{
  "_format": "hh-sol-artifact-1",
  "contractName": "VotingSystem",
  "sourceName": "contracts/VotingSystem.sol",
  "abi": [
    {
      "inputs": [],
      "stateMutability": "nonpayable",
      "type": "constructor"
    },
    {
      "anonymous": false,
      "inputs": [
        {
          "indexed": false,
          "internalType": "address",
          "name": "candidate",
          "type": "address"
        },
        {
          "indexed": false,
          "internalType": "string",
          "name": "name",
          "type": "string"
        },
        {
          "indexed": false,
          "internalType": "string",
          "name": "nationalID",
          "type": "string"
        },
        {
          "indexed": false,
          "internalType": "string",
          "name": "area",
          "type": "string"
        }
      ],
      "name": "CandidateRegistered",
      "type": "event"
    },
    {
      "anonymous": false,
      "inputs": [
        {
          "indexed": false,
          "internalType": "address",
          "name": "voter",
          "type": "address"
        },
        {
          "indexed": false,
          "internalType": "address",
          "name": "candidate",
          "type": "address"
        },
        {
          "indexed": false,
          "internalType": "string",
          "name": "area",
          "type": "string"
        }
      ],
      "name": "VoteCasted",
      "type": "event"
    },
    {
      "anonymous": false,
      "inputs": [
        {
          "indexed": false,
          "internalType": "address",
          "name": "voter",
          "type": "address"
        },
        {
          "indexed": false,
          "internalType": "string",
          "name": "nationalID",
          "type": "string"
        },
        {
          "indexed": false,
          "internalType": "string",
          "name": "area",
          "type": "string"
        }
      ],
      "name": "VoterRegistered",
      "type": "event"
    },
    {
      "anonymous": false,
      "inputs": [
        {
          "indexed": false,
          "internalType": "address",
          "name": "winner",
          "type": "address"
        },
        {
          "indexed": false,
          "internalType": "uint256",
          "name": "voteCount",
          "type": "uint256"
        },
        {
          "indexed": false,
          "internalType": "string",
          "name": "area",
          "type": "string"
        }
      ],
      "name": "VotingEnded",
      "type": "event"
    },
    {
      "inputs": [
        {
          "internalType": "string",
          "name": "_areaName",
          "type": "string"
        },
        {
          "internalType": "uint256",
          "name": "_maxVoters",
          "type": "uint256"
        }
      ],
      "name": "addArea",
      "outputs": [],
      "stateMutability": "nonpayable",
      "type": "function"
    },
    {
      "inputs": [],
      "name": "admin",
      "outputs": [
        {
          "internalType": "address",
          "name": "",
          "type": "address"
        }
      ],
      "stateMutability": "view",
      "type": "function"
    },
    {
      "inputs": [
        {
          "internalType": "uint256",
          "name": "",
          "type": "uint256"
        }
      ],
      "name": "areaList",
      "outputs": [
        {
          "internalType": "string",
          "name": "",
          "type": "string"
        }
      ],
      "stateMutability": "view",
      "type": "function"
    },
    {
      "inputs": [
        {
          "internalType": "string",
          "name": "",
          "type": "string"
        }
      ],
      "name": "areas",
      "outputs": [
        {
          "internalType": "uint256",
          "name": "maxVoters",
          "type": "uint256"
        },
        {
          "internalType": "uint256",
          "name": "currentVotes",
          "type": "uint256"
        }
      ],
      "stateMutability": "view",
      "type": "function"
    },
    {
      "inputs": [
        {
          "internalType": "uint256",
          "name": "",
          "type": "uint256"
        }
      ],
      "name": "candidateList",
      "outputs": [
        {
          "internalType": "address",
          "name": "",
          "type": "address"
        }
      ],
      "stateMutability": "view",
      "type": "function"
    },
    {
      "inputs": [
        {
          "internalType": "address",
          "name": "",
          "type": "address"
        }
      ],
      "name": "candidates",
      "outputs": [
        {
          "internalType": "string",
          "name": "name",
          "type": "string"
        },
        {
          "internalType": "address",
          "name": "candidateAddress",
          "type": "address"
        },
        {
          "internalType": "uint256",
          "name": "voteCount",
          "type": "uint256"
        },
        {
          "internalType": "string",
          "name": "area",
          "type": "string"
        },
        {
          "internalType": "string",
          "name": "nationalID",
          "type": "string"
        }
      ],
      "stateMutability": "view",
      "type": "function"
    },
    {
      "inputs": [],
      "name": "endVoting",
      "outputs": [],
      "stateMutability": "nonpayable",
      "type": "function"
    },
    {
      "inputs": [],
      "name": "getAreas",
      "outputs": [
        {
          "internalType": "string[]",
          "name": "",
          "type": "string[]"
        }
      ],
      "stateMutability": "view",
      "type": "function"
    },
    {
      "inputs": [],
      "name": "getCandidates",
      "outputs": [
        {
          "internalType": "address[]",
          "name": "",
          "type": "address[]"
        }
      ],
      "stateMutability": "view",
      "type": "function"
    },
    {
      "inputs": [
        {
          "internalType": "string",
          "name": "_areaName",
          "type": "string"
        }
      ],
      "name": "getCandidatesByArea",
      "outputs": [
        {
          "internalType": "address[]",
          "name": "",
          "type": "address[]"
        },
        {
          "internalType": "string[]",
          "name": "",
          "type": "string[]"
        }
      ],
      "stateMutability": "view",
      "type": "function"
    },
    {
      "inputs": [
        {
          "internalType": "address",
          "name": "_candidate",
          "type": "address"
        },
        {
          "internalType": "string",
          "name": "_name",
          "type": "string"
        },
        {
          "internalType": "string",
          "name": "_nationalID",
          "type": "string"
        },
        {
          "internalType": "string",
          "name": "_areaName",
          "type": "string"
        }
      ],
      "name": "registerCandidate",
      "outputs": [],
      "stateMutability": "nonpayable",
      "type": "function"
    },
    {
      "inputs": [
        {
          "internalType": "address",
          "name": "_voter",
          "type": "address"
        },
        {
          "internalType": "string",
          "name": "_nationalID",
          "type": "string"
        },
        {
          "internalType": "string",
          "name": "_areaName",
          "type": "string"
        }
      ],
      "name": "registerVoter",
      "outputs": [],
      "stateMutability": "nonpayable",
      "type": "function"
    },
    {
      "inputs": [],
      "name": "startVoting",
      "outputs": [],
      "stateMutability": "nonpayable",
      "type": "function"
    },
    {
      "inputs": [
        {
          "internalType": "address",
          "name": "_candidate",
          "type": "address"
        },
        {
          "internalType": "string",
          "name": "_nationalID",
          "type": "string"
        },
        {
          "internalType": "string",
          "name": "_area",
          "type": "string"
        }
      ],
      "name": "vote",
      "outputs": [],
      "stateMutability": "nonpayable",
      "type": "function"
    },
    {
      "inputs": [
        {
          "internalType": "address",
          "name": "",
          "type": "address"
        }
      ],
      "name": "voters",
      "outputs": [
        {
          "internalType": "bool",
          "name": "isRegistered",
          "type": "bool"
        },
        {
          "internalType": "bool",
          "name": "hasVoted",
          "type": "bool"
        },
        {
          "internalType": "address",
          "name": "votedCandidate",
          "type": "address"
        },
        {
          "internalType": "string",
          "name": "area",
          "type": "string"
        },
        {
          "internalType": "string",
          "name": "nationalID",
          "type": "string"
        }
      ],
      "stateMutability": "view",
      "type": "function"
    },
    {
      "inputs": [],
      "name": "votingEnded",
      "outputs": [
        {
          "internalType": "bool",
          "name": "",
          "type": "bool"
        }
      ],
      "stateMutability": "view",
      "type": "function"
    },
    {
      "inputs": [],
      "name": "votingStarted",
      "outputs": [
        {
          "internalType": "bool",
          "name": "",
          "type": "bool"
        }
      ],
      "stateMutability": "view",
      "type": "function"
    }
  ],
  "bytecode": "0x6080604052348015600f57600080fd5b50336000806101000a81548173ffffffffffffffffffffffffffffffffffffffff021916908373ffffffffffffffffffffffffffffffffffffffff1602179055506139ae8061005f6000396000f3fe608060405234801561001057600080fd5b506004361061010b5760003560e01c806392275f63116100a2578063b13c744b11610071578063b13c744b146102af578063bb8fab8e146102df578063c3403ddf146102fb578063d4a7de3e14610305578063f851a440146103365761010b565b806392275f63146102255780639d5a052914610241578063a3ec138d1461025f578063ac6ba3c3146102935761010b565b80633e46d279116100de5780633e46d27914610172578063438aabdc146101a257806383d948b7146101d35780638ab66a90146101f15761010b565b806306a49fce146101105780631ec6b60a1461012e57806321b3f528146101385780632ea3981a14610154575b600080fd5b610118610354565b60405161012591906123b2565b60405180910390f35b6101366103e2565b005b610152600480360381019061014d919061255a565b6104f1565b005b61015c610953565b6040516101699190612756565b60405180910390f35b61018c600480360381019061018791906127ae565b610a2c565b6040516101999190612825565b60405180910390f35b6101bc60048036038101906101b79190612847565b610ad8565b6040516101ca929190612890565b60405180910390f35b6101db610fa0565b6040516101e891906128e2565b60405180910390f35b61020b600480360381019061020691906128fd565b610fb3565b60405161021c959493929190612948565b60405180910390f35b61023f600480360381019061023a91906129b0565b6111a1565b005b610249611735565b60405161025691906128e2565b60405180910390f35b610279600480360381019061027491906128fd565b611748565b60405161028a959493929190612a3b565b60405180910390f35b6102ad60048036038101906102a89190612a9c565b6118c8565b005b6102c960048036038101906102c491906127ae565b611ac5565b6040516102d69190612af8565b60405180910390f35b6102f960048036038101906102f491906129b0565b611b04565b005b610303611ea2565b005b61031f600480360381019061031a9190612847565b612264565b60405161032d929190612b13565b60405180910390f35b61033e61229e565b60405161034b9190612af8565b60405180910390f35b606060068054806020026020016040519081016040528092919081815260200182805480156103d857602002820191906000526020600020905b8160009054906101000a900473ffffffffffffffffffffffffffffffffffffffff1673ffffffffffffffffffffffffffffffffffffffff168152602001906001019080831161038e575b5050505050905090565b60008054906101000a900473ffffffffffffffffffffffffffffffffffffffff1673ffffffffffffffffffffffffffffffffffffffff163373ffffffffffffffffffffffffffffffffffffffff1614610470576040517f08c379a000000000000000000000000000000000000000000000000000000000815260040161046790612bae565b60405180910390fd5b600260068054905010156104b9576040517f08c379a00000000000000000000000000000000000000000000000000000000081526004016104b090612c40565b60405180910390fd5b6001600860006101000a81548160ff0219169083151502179055506000600860016101000a81548160ff021916908315150217905550565b60008054906101000a900473ffffffffffffffffffffffffffffffffffffffff1673ffffffffffffffffffffffffffffffffffffffff163373ffffffffffffffffffffffffffffffffffffffff161461057f576040517f08c379a000000000000000000000000000000000000000000000000000000000815260040161057690612bae565b60405180910390fd5b60006005826040516105919190612c9c565b908152602001604051809103902060000154116105e3576040517f08c379a00000000000000000000000000000000000000000000000000000000081526004016105da90612cff565b60405180910390fd5b6000835111610627576040517f08c379a000000000000000000000000000000000000000000000000000000000815260040161061e90612d6b565b60405180910390fd5b600073ffffffffffffffffffffffffffffffffffffffff16600360008673ffffffffffffffffffffffffffffffffffffffff1673ffffffffffffffffffffffffffffffffffffffff16815260200190815260200160002060010160009054906101000a900473ffffffffffffffffffffffffffffffffffffffff1673ffffffffffffffffffffffffffffffffffffffff16146106f8576040517f08c379a00000000000000000000000000000000000000000000000000000000081526004016106ef90612dd7565b60405180910390fd5b6004826040516107089190612c9c565b908152602001604051809103902060009054906101000a900460ff1615610764576040517f08c379a000000000000000000000000000000000000000000000000000000000815260040161075b90612e43565b60405180910390fd5b6040518060a001604052808481526020018573ffffffffffffffffffffffffffffffffffffffff1681526020016000815260200182815260200183815250600360008673ffffffffffffffffffffffffffffffffffffffff1673ffffffffffffffffffffffffffffffffffffffff16815260200190815260200160002060008201518160000190816107f6919061306f565b5060208201518160010160006101000a81548173ffffffffffffffffffffffffffffffffffffffff021916908373ffffffffffffffffffffffffffffffffffffffff16021790555060408201518160020155606082015181600301908161085d919061306f565b506080820151816004019081610873919061306f565b5090505060016004836040516108899190612c9c565b908152602001604051809103902060006101000a81548160ff0219169083151502179055506006849080600181540180825580915050600190039060005260206000200160009091909190916101000a81548173ffffffffffffffffffffffffffffffffffffffff021916908373ffffffffffffffffffffffffffffffffffffffff1602179055507ed6fea68f71a20d8149f227f87e8cf7e6ad320b2dad4b45465b14599b80ee09848484846040516109459493929190613141565b60405180910390a150505050565b60606007805480602002602001604051908101604052809291908181526020016000905b82821015610a2357838290600052602060002001805461099690612e92565b80601f01602080910402602001604051908101604052809291908181526020018280546109c290612e92565b8015610a0f5780601f106109e457610100808354040283529160200191610a0f565b820191906000526020600020905b8154815290600101906020018083116109f257829003601f168201915b505050505081526020019060010190610977565b50505050905090565b60078181548110610a3c57600080fd5b906000526020600020016000915090508054610a5790612e92565b80601f0160208091040260200160405190810160405280929190818152602001828054610a8390612e92565b8015610ad05780601f10610aa557610100808354040283529160200191610ad0565b820191906000526020600020905b815481529060010190602001808311610ab357829003601f168201915b505050505081565b6060806000600584604051610aed9190612c9c565b90815260200160405180910390206000015411610b3f576040517f08c379a0000000000000000000000000000000000000000000000000000000008152600401610b3690612cff565b60405180910390fd5b6000805b600680549050811015610c3e5784604051602001610b619190612c9c565b604051602081830303815290604052805190602001206003600060068481548110610b8f57610b8e61319b565b5b9060005260206000200160009054906101000a900473ffffffffffffffffffffffffffffffffffffffff1673ffffffffffffffffffffffffffffffffffffffff1673ffffffffffffffffffffffffffffffffffffffff168152602001908152602001600020600301604051602001610c07919061324d565b6040516020818303038152906040528051906020012003610c31578180610c2d90613293565b9250505b8080600101915050610b43565b5060008167ffffffffffffffff811115610c5b57610c5a61242f565b5b604051908082528060200260200182016040528015610c895781602001602082028036833780820191505090505b50905060008267ffffffffffffffff811115610ca857610ca761242f565b5b604051908082528060200260200182016040528015610cdb57816020015b6060815260200190600190039081610cc65790505b5090506000805b600680549050811015610f905787604051602001610d009190612c9c565b604051602081830303815290604052805190602001206003600060068481548110610d2e57610d2d61319b565b5b9060005260206000200160009054906101000a900473ffffffffffffffffffffffffffffffffffffffff1673ffffffffffffffffffffffffffffffffffffffff1673ffffffffffffffffffffffffffffffffffffffff168152602001908152602001600020600301604051602001610da6919061324d565b6040516020818303038152906040528051906020012003610f835760068181548110610dd557610dd461319b565b5b9060005260206000200160009054906101000a900473ffffffffffffffffffffffffffffffffffffffff16848381518110610e1357610e1261319b565b5b602002602001019073ffffffffffffffffffffffffffffffffffffffff16908173ffffffffffffffffffffffffffffffffffffffff16815250506003600060068381548110610e6557610e6461319b565b5b9060005260206000200160009054906101000a900473ffffffffffffffffffffffffffffffffffffffff1673ffffffffffffffffffffffffffffffffffffffff1673ffffffffffffffffffffffffffffffffffffffff1681526020019081526020016000206000018054610ed890612e92565b80601f0160208091040260200160405190810160405280929190818152602001828054610f0490612e92565b8015610f515780601f10610f2657610100808354040283529160200191610f51565b820191906000526020600020905b815481529060010190602001808311610f3457829003601f168201915b5050505050838381518110610f6957610f6861319b565b5b60200260200101819052508180610f7f90613293565b9250505b8080600101915050610ce2565b5082829550955050505050915091565b600860009054906101000a900460ff1681565b6003602052806000526040600020600091509050806000018054610fd690612e92565b80601f016020809104026020016040519081016040528092919081815260200182805461100290612e92565b801561104f5780601f106110245761010080835404028352916020019161104f565b820191906000526020600020905b81548152906001019060200180831161103257829003601f168201915b5050505050908060010160009054906101000a900473ffffffffffffffffffffffffffffffffffffffff169080600201549080600301805461109090612e92565b80601f01602080910402602001604051908101604052809291908181526020018280546110bc90612e92565b80156111095780601f106110de57610100808354040283529160200191611109565b820191906000526020600020905b8154815290600101906020018083116110ec57829003601f168201915b50505050509080600401805461111e90612e92565b80601f016020809104026020016040519081016040528092919081815260200182805461114a90612e92565b80156111975780601f1061116c57610100808354040283529160200191611197565b820191906000526020600020905b81548152906001019060200180831161117a57829003601f168201915b5050505050905085565b600860009054906101000a900460ff1680156111ca5750600860019054906101000a900460ff16155b611209576040517f08c379a000000000000000000000000000000000000000000000000000000000815260040161120090613327565b60405180910390fd5b6000600160003373ffffffffffffffffffffffffffffffffffffffff1673ffffffffffffffffffffffffffffffffffffffff16815260200190815260200160002090508060000160009054906101000a900460ff1661129d576040517f08c379a000000000000000000000000000000000000000000000000000000000815260040161129490613393565b60405180910390fd5b8060000160019054906101000a900460ff16156112ef576040517f08c379a00000000000000000000000000000000000000000000000000000000081526004016112e6906133ff565b60405180910390fd5b826040516020016113009190612c9c565b604051602081830303815290604052805190602001208160020160405160200161132a919061324d565b6040516020818303038152906040528051906020012014611380576040517f08c379a00000000000000000000000000000000000000000000000000000000081526004016113779061346b565b60405180910390fd5b816040516020016113919190612c9c565b60405160208183030381529060405280519060200120816001016040516020016113bb919061324d565b6040516020818303038152906040528051906020012014611411576040517f08c379a0000000000000000000000000000000000000000000000000000000008152600401611408906134fd565b60405180910390fd5b600073ffffffffffffffffffffffffffffffffffffffff16600360008673ffffffffffffffffffffffffffffffffffffffff1673ffffffffffffffffffffffffffffffffffffffff16815260200190815260200160002060010160009054906101000a900473ffffffffffffffffffffffffffffffffffffffff1673ffffffffffffffffffffffffffffffffffffffff16036114e2576040517f08c379a00000000000000000000000000000000000000000000000000000000081526004016114d990613569565b60405180910390fd5b816040516020016114f39190612c9c565b60405160208183030381529060405280519060200120600360008673ffffffffffffffffffffffffffffffffffffffff1673ffffffffffffffffffffffffffffffffffffffff16815260200190815260200160002060030160405160200161155b919061324d565b60405160208183030381529060405280519060200120146115b1576040517f08c379a00000000000000000000000000000000000000000000000000000000081526004016115a8906135fb565b60405180910390fd5b60006005836040516115c39190612c9c565b90815260200160405180910390209050806000015481600101541061161d576040517f08c379a00000000000000000000000000000000000000000000000000000000081526004016116149061368d565b60405180910390fd5b60018260000160016101000a81548160ff021916908315150217905550848260000160026101000a81548173ffffffffffffffffffffffffffffffffffffffff021916908373ffffffffffffffffffffffffffffffffffffffff1602179055506001600360008773ffffffffffffffffffffffffffffffffffffffff1673ffffffffffffffffffffffffffffffffffffffff16815260200190815260200160002060020160008282546116d091906136ad565b9250508190555060018160010160008282546116ec91906136ad565b925050819055507f8d1cfb67c4b6ddfa4950ade9b8090e8da23fb82114fea7fd43c4cbbe2c2367b3338685604051611726939291906136e1565b60405180910390a15050505050565b600860019054906101000a900460ff1681565b60016020528060005260406000206000915090508060000160009054906101000a900460ff16908060000160019054906101000a900460ff16908060000160029054906101000a900473ffffffffffffffffffffffffffffffffffffffff16908060010180546117b790612e92565b80601f01602080910402602001604051908101604052809291908181526020018280546117e390612e92565b80156118305780601f1061180557610100808354040283529160200191611830565b820191906000526020600020905b81548152906001019060200180831161181357829003601f168201915b50505050509080600201805461184590612e92565b80601f016020809104026020016040519081016040528092919081815260200182805461187190612e92565b80156118be5780601f10611893576101008083540402835291602001916118be565b820191906000526020600020905b8154815290600101906020018083116118a157829003601f168201915b5050505050905085565b60008054906101000a900473ffffffffffffffffffffffffffffffffffffffff1673ffffffffffffffffffffffffffffffffffffffff163373ffffffffffffffffffffffffffffffffffffffff1614611956576040517f08c379a000000000000000000000000000000000000000000000000000000000815260040161194d90612bae565b60405180910390fd5b600082511161199a576040517f08c379a00000000000000000000000000000000000000000000000000000000081526004016119919061376b565b60405180910390fd5b600081116119dd576040517f08c379a00000000000000000000000000000000000000000000000000000000081526004016119d4906137fd565b60405180910390fd5b60006005836040516119ef9190612c9c565b90815260200160405180910390206000015414611a41576040517f08c379a0000000000000000000000000000000000000000000000000000000008152600401611a3890613869565b60405180910390fd5b60405180604001604052808281526020016000815250600583604051611a679190612c9c565b90815260200160405180910390206000820151816000015560208201518160010155905050600782908060018154018082558091505060019003906000526020600020016000909190919091509081611ac0919061306f565b505050565b60068181548110611ad557600080fd5b906000526020600020016000915054906101000a900473ffffffffffffffffffffffffffffffffffffffff1681565b60008054906101000a900473ffffffffffffffffffffffffffffffffffffffff1673ffffffffffffffffffffffffffffffffffffffff163373ffffffffffffffffffffffffffffffffffffffff1614611b92576040517f08c379a0000000000000000000000000000000000000000000000000000000008152600401611b8990612bae565b60405180910390fd5b6000600582604051611ba49190612c9c565b90815260200160405180910390206000015411611bf6576040517f08c379a0000000000000000000000000000000000000000000000000000000008152600401611bed90612cff565b60405180910390fd5b600160008473ffffffffffffffffffffffffffffffffffffffff1673ffffffffffffffffffffffffffffffffffffffff16815260200190815260200160002060000160009054906101000a900460ff1615611c86576040517f08c379a0000000000000000000000000000000000000000000000000000000008152600401611c7d906138d5565b60405180910390fd5b600282604051611c969190612c9c565b908152602001604051809103902060009054906101000a900460ff1615611cf2576040517f08c379a0000000000000000000000000000000000000000000000000000000008152600401611ce990612e43565b60405180910390fd5b6040518060a00160405280600115158152602001600015158152602001600073ffffffffffffffffffffffffffffffffffffffff16815260200182815260200183815250600160008573ffffffffffffffffffffffffffffffffffffffff1673ffffffffffffffffffffffffffffffffffffffff16815260200190815260200160002060008201518160000160006101000a81548160ff02191690831515021790555060208201518160000160016101000a81548160ff02191690831515021790555060408201518160000160026101000a81548173ffffffffffffffffffffffffffffffffffffffff021916908373ffffffffffffffffffffffffffffffffffffffff1602179055506060820151816001019081611e11919061306f565b506080820151816002019081611e27919061306f565b509050506001600283604051611e3d9190612c9c565b908152602001604051809103902060006101000a81548160ff0219169083151502179055507f96ac7a421360a2bd773d747b2f64b40a916821c4906dbfdebf787c292e741f7d838383604051611e95939291906138f5565b60405180910390a1505050565b60008054906101000a900473ffffffffffffffffffffffffffffffffffffffff1673ffffffffffffffffffffffffffffffffffffffff163373ffffffffffffffffffffffffffffffffffffffff1614611f30576040517f08c379a0000000000000000000000000000000000000000000000000000000008152600401611f2790612bae565b60405180910390fd5b600860009054906101000a900460ff168015611f595750600860019054906101000a900460ff16155b611f98576040517f08c379a0000000000000000000000000000000000000000000000000000000008152600401611f8f90613327565b60405180910390fd5b6001600860016101000a81548160ff0219169083151502179055506000600860006101000a81548160ff02191690831515021790555060005b60078054905081101561226157600060078281548110611ff457611ff361319b565b5b90600052602060002001805461200990612e92565b80601f016020809104026020016040519081016040528092919081815260200182805461203590612e92565b80156120825780601f1061205757610100808354040283529160200191612082565b820191906000526020600020905b81548152906001019060200180831161206557829003601f168201915b5050505050905060008060005b600680549050811015612215576000600682815481106120b2576120b161319b565b5b9060005260206000200160009054906101000a900473ffffffffffffffffffffffffffffffffffffffff169050846040516020016120f09190612c9c565b60405160208183030381529060405280519060200120600360008373ffffffffffffffffffffffffffffffffffffffff1673ffffffffffffffffffffffffffffffffffffffff168152602001908152602001600020600301604051602001612158919061324d565b60405160208183030381529060405280519060200120036122075782600360008373ffffffffffffffffffffffffffffffffffffffff1673ffffffffffffffffffffffffffffffffffffffff16815260200190815260200160002060020154111561220657600360008273ffffffffffffffffffffffffffffffffffffffff1673ffffffffffffffffffffffffffffffffffffffff1681526020019081526020016000206002015492508093505b5b50808060010191505061208f565b507f3b281afe48905f20862f01b6e1bc6eaf6079665f84380a6022228a68c38308f08282856040516122499392919061393a565b60405180910390a15050508080600101915050611fd1565b50565b6005818051602081018201805184825260208301602085012081835280955050505050506000915090508060000154908060010154905082565b60008054906101000a900473ffffffffffffffffffffffffffffffffffffffff1681565b600081519050919050565b600082825260208201905092915050565b6000819050602082019050919050565b600073ffffffffffffffffffffffffffffffffffffffff82169050919050565b6000612319826122ee565b9050919050565b6123298161230e565b82525050565b600061233b8383612320565b60208301905092915050565b6000602082019050919050565b600061235f826122c2565b61236981856122cd565b9350612374836122de565b8060005b838110156123a557815161238c888261232f565b975061239783612347565b925050600181019050612378565b5085935050505092915050565b600060208201905081810360008301526123cc8184612354565b905092915050565b6000604051905090565b600080fd5b600080fd5b6123f18161230e565b81146123fc57600080fd5b50565b60008135905061240e816123e8565b92915050565b600080fd5b600080fd5b6000601f19601f8301169050919050565b7f4e487b7100000000000000000000000000000000000000000000000000000000600052604160045260246000fd5b6124678261241e565b810181811067ffffffffffffffff821117156124865761248561242f565b5b80604052505050565b60006124996123d4565b90506124a5828261245e565b919050565b600067ffffffffffffffff8211156124c5576124c461242f565b5b6124ce8261241e565b9050602081019050919050565b82818337600083830152505050565b60006124fd6124f8846124aa565b61248f565b90508281526020810184848401111561251957612518612419565b5b6125248482856124db565b509392505050565b600082601f83011261254157612540612414565b5b81356125518482602086016124ea565b91505092915050565b60008060008060808587031215612574576125736123de565b5b6000612582878288016123ff565b945050602085013567ffffffffffffffff8111156125a3576125a26123e3565b5b6125af8782880161252c565b935050604085013567ffffffffffffffff8111156125d0576125cf6123e3565b5b6125dc8782880161252c565b925050606085013567ffffffffffffffff8111156125fd576125fc6123e3565b5b6126098782880161252c565b91505092959194509250565b600081519050919050565b600082825260208201905092915050565b6000819050602082019050919050565b600081519050919050565b600082825260208201905092915050565b60005b8381101561267b578082015181840152602081019050612660565b60008484015250505050565b600061269282612641565b61269c818561264c565b93506126ac81856020860161265d565b6126b58161241e565b840191505092915050565b60006126cc8383612687565b905092915050565b6000602082019050919050565b60006126ec82612615565b6126f68185612620565b93508360208202850161270885612631565b8060005b85811015612744578484038952815161272585826126c0565b9450612730836126d4565b925060208a0199505060018101905061270c565b50829750879550505050505092915050565b6000602082019050818103600083015261277081846126e1565b905092915050565b6000819050919050565b61278b81612778565b811461279657600080fd5b50565b6000813590506127a881612782565b92915050565b6000602082840312156127c4576127c36123de565b5b60006127d284828501612799565b91505092915050565b600082825260208201905092915050565b60006127f782612641565b61280181856127db565b935061281181856020860161265d565b61281a8161241e565b840191505092915050565b6000602082019050818103600083015261283f81846127ec565b905092915050565b60006020828403121561285d5761285c6123de565b5b600082013567ffffffffffffffff81111561287b5761287a6123e3565b5b6128878482850161252c565b91505092915050565b600060408201905081810360008301526128aa8185612354565b905081810360208301526128be81846126e1565b90509392505050565b60008115159050919050565b6128dc816128c7565b82525050565b60006020820190506128f760008301846128d3565b92915050565b600060208284031215612913576129126123de565b5b6000612921848285016123ff565b91505092915050565b6129338161230e565b82525050565b61294281612778565b82525050565b600060a082019050818103600083015261296281886127ec565b9050612971602083018761292a565b61297e6040830186612939565b818103606083015261299081856127ec565b905081810360808301526129a481846127ec565b90509695505050505050565b6000806000606084860312156129c9576129c86123de565b5b60006129d7868287016123ff565b935050602084013567ffffffffffffffff8111156129f8576129f76123e3565b5b612a048682870161252c565b925050604084013567ffffffffffffffff811115612a2557612a246123e3565b5b612a318682870161252c565b9150509250925092565b600060a082019050612a5060008301886128d3565b612a5d60208301876128d3565b612a6a604083018661292a565b8181036060830152612a7c81856127ec565b90508181036080830152612a9081846127ec565b90509695505050505050565b60008060408385031215612ab357612ab26123de565b5b600083013567ffffffffffffffff811115612ad157612ad06123e3565b5b612add8582860161252c565b9250506020612aee85828601612799565b9150509250929050565b6000602082019050612b0d600083018461292a565b92915050565b6000604082019050612b286000830185612939565b612b356020830184612939565b9392505050565b7f4f6e6c792061646d696e2063616e20706572666f726d2074686973206163746960008201527f6f6e2e0000000000000000000000000000000000000000000000000000000000602082015250565b6000612b986023836127db565b9150612ba382612b3c565b604082019050919050565b60006020820190508181036000830152612bc781612b8b565b9050919050565b7f4174206c656173742074776f2063616e6469646174657320726571756972656460008201527f2e00000000000000000000000000000000000000000000000000000000000000602082015250565b6000612c2a6021836127db565b9150612c3582612bce565b604082019050919050565b60006020820190508181036000830152612c5981612c1d565b9050919050565b600081905092915050565b6000612c7682612641565b612c808185612c60565b9350612c9081856020860161265d565b80840191505092915050565b6000612ca88284612c6b565b915081905092915050565b7f4172656120646f6573206e6f742065786973742e000000000000000000000000600082015250565b6000612ce96014836127db565b9150612cf482612cb3565b602082019050919050565b60006020820190508181036000830152612d1881612cdc565b9050919050565b7f43616e646964617465206e616d652063616e6e6f7420626520656d7074792e00600082015250565b6000612d55601f836127db565b9150612d6082612d1f565b602082019050919050565b60006020820190508181036000830152612d8481612d48565b9050919050565b7f43616e64696461746520616c726561647920726567697374657265642e000000600082015250565b6000612dc1601d836127db565b9150612dcc82612d8b565b602082019050919050565b60006020820190508181036000830152612df081612db4565b9050919050565b7f4e6174696f6e616c20494420616c726561647920726567697374657265642e00600082015250565b6000612e2d601f836127db565b9150612e3882612df7565b602082019050919050565b60006020820190508181036000830152612e5c81612e20565b9050919050565b7f4e487b7100000000000000000000000000000000000000000000000000000000600052602260045260246000fd5b60006002820490506001821680612eaa57607f821691505b602082108103612ebd57612ebc612e63565b5b50919050565b60008190508160005260206000209050919050565b60006020601f8301049050919050565b600082821b905092915050565b600060088302612f257fffffffffffffffffffffffffffffffffffffffffffffffffffffffffffffffff82612ee8565b612f2f8683612ee8565b95508019841693508086168417925050509392505050565b6000819050919050565b6000612f6c612f67612f6284612778565b612f47565b612778565b9050919050565b6000819050919050565b612f8683612f51565b612f9a612f9282612f73565b848454612ef5565b825550505050565b600090565b612faf612fa2565b612fba818484612f7d565b505050565b5b81811015612fde57612fd3600082612fa7565b600181019050612fc0565b5050565b601f82111561302357612ff481612ec3565b612ffd84612ed8565b8101602085101561300c578190505b61302061301885612ed8565b830182612fbf565b50505b505050565b600082821c905092915050565b600061304660001984600802613028565b1980831691505092915050565b600061305f8383613035565b9150826002028217905092915050565b61307882612641565b67ffffffffffffffff8111156130915761309061242f565b5b61309b8254612e92565b6130a6828285612fe2565b600060209050601f8311600181146130d957600084156130c7578287015190505b6130d18582613053565b865550613139565b601f1984166130e786612ec3565b60005b8281101561310f578489015182556001820191506020850194506020810190506130ea565b8683101561312c5784890151613128601f891682613035565b8355505b6001600288020188555050505b505050505050565b6000608082019050613156600083018761292a565b818103602083015261316881866127ec565b9050818103604083015261317c81856127ec565b9050818103606083015261319081846127ec565b905095945050505050565b7f4e487b7100000000000000000000000000000000000000000000000000000000600052603260045260246000fd5b600081546131d781612e92565b6131e18186612c60565b945060018216600081146131fc576001811461321157613244565b60ff1983168652811515820286019350613244565b61321a85612ec3565b60005b8381101561323c5781548189015260018201915060208101905061321d565b838801955050505b50505092915050565b600061325982846131ca565b915081905092915050565b7f4e487b7100000000000000000000000000000000000000000000000000000000600052601160045260246000fd5b600061329e82612778565b91507fffffffffffffffffffffffffffffffffffffffffffffffffffffffffffffffff82036132d0576132cf613264565b5b600182019050919050565b7f566f74696e67206973206e6f74206163746976652e0000000000000000000000600082015250565b60006133116015836127db565b915061331c826132db565b602082019050919050565b6000602082019050818103600083015261334081613304565b9050919050565b7f596f7520617265206e6f74207265676973746572656420746f20766f74652e00600082015250565b600061337d601f836127db565b915061338882613347565b602082019050919050565b600060208201905081810360008301526133ac81613370565b9050919050565b7f596f75206861766520616c726561647920766f7465642e000000000000000000600082015250565b60006133e96017836127db565b91506133f4826133b3565b602082019050919050565b60006020820190508181036000830152613418816133dc565b9050919050565b7f4e6174696f6e616c20494420646f6573206e6f74206d617463682e0000000000600082015250565b6000613455601b836127db565b91506134608261341f565b602082019050919050565b6000602082019050818103600083015261348481613448565b9050919050565b7f4172656120646f6573206e6f74206d617463682074686520766f74657227732060008201527f7265676973746572656420617265612e00000000000000000000000000000000602082015250565b60006134e76030836127db565b91506134f28261348b565b604082019050919050565b60006020820190508181036000830152613516816134da565b9050919050565b7f496e76616c69642063616e6469646174652e0000000000000000000000000000600082015250565b60006135536012836127db565b915061355e8261351d565b602082019050919050565b6000602082019050818103600083015261358281613546565b9050919050565b7f43616e64696461746520616e6420766f746572206d75737420626520696e207460008201527f68652073616d6520617265612e00000000000000000000000000000000000000602082015250565b60006135e5602d836127db565b91506135f082613589565b604082019050919050565b60006020820190508181036000830152613614816135d8565b9050919050565b7f566f74696e67206c696d697420666f722074686973206172656120686173206260008201527f65656e20726561636865642e0000000000000000000000000000000000000000602082015250565b6000613677602c836127db565b91506136828261361b565b604082019050919050565b600060208201905081810360008301526136a68161366a565b9050919050565b60006136b882612778565b91506136c383612778565b92508282019050808211156136db576136da613264565b5b92915050565b60006060820190506136f6600083018661292a565b613703602083018561292a565b818103604083015261371581846127ec565b9050949350505050565b7f41726561206e616d652063616e6e6f7420626520656d7074792e000000000000600082015250565b6000613755601a836127db565b91506137608261371f565b602082019050919050565b6000602082019050818103600083015261378481613748565b9050919050565b7f41726561206d7573742068617665207265676973746572656420766f7465727360008201527f2e00000000000000000000000000000000000000000000000000000000000000602082015250565b60006137e76021836127db565b91506137f28261378b565b604082019050919050565b60006020820190508181036000830152613816816137da565b9050919050565b7f4172656120616c7265616479206578697374732e000000000000000000000000600082015250565b60006138536014836127db565b915061385e8261381d565b602082019050919050565b6000602082019050818103600083015261388281613846565b9050919050565b7f566f74657220616c726561647920726567697374657265642e00000000000000600082015250565b60006138bf6019836127db565b91506138ca82613889565b602082019050919050565b600060208201905081810360008301526138ee816138b2565b9050919050565b600060608201905061390a600083018661292a565b818103602083015261391c81856127ec565b9050818103604083015261393081846127ec565b9050949350505050565b600060608201905061394f600083018661292a565b61395c6020830185612939565b818103604083015261396e81846127ec565b905094935050505056fea264697066735822122004082c6997fe46d557426cd7956bab3628fe0e603d31f5cd6aebb75a271039d264736f6c634300081c0033",
  "linkReferences": {},
  "deployedLinkReferences": {}
}