{
  "_format": "hh-sol-artifact-1",
  "contractName": "VotingSystem",
  "sourceName": "contracts/VotingSystem.sol",
  "abi": [
    {
      "inputs": [],
      "stateMutability": "nonpayable",
      "type": "constructor"
    },
    {
      "anonymous": false,
      "inputs": [
        {
          "indexed": false,
          "internalType": "address",
          "name": "candidate",
          "type": "address"
        },
        {
          "indexed": false,
          "internalType": "string",
          "name": "name",
          "type": "string"
        },
        {
          "indexed": false,
          "internalType": "string",
          "name": "nationalID",
          "type": "string"
        },
        {
          "indexed": false,
          "internalType": "string",
          "name": "area",
          "type": "string"
        }
      ],
      "name": "CandidateRegistered",
      "type": "event"
    },
    {
      "anonymous": false,
      "inputs": [
        {
          "indexed": false,
          "internalType": "address",
          "name": "voter",
          "type": "address"
        },
        {
          "indexed": false,
          "internalType": "address",
          "name": "candidate",
          "type": "address"
        },
        {
          "indexed": false,
          "internalType": "string",
          "name": "area",
          "type": "string"
        }
      ],
      "name": "VoteCasted",
      "type": "event"
    },
    {
      "anonymous": false,
      "inputs": [
        {
          "indexed": false,
          "internalType": "address",
          "name": "voter",
          "type": "address"
        },
        {
          "indexed": false,
          "internalType": "string",
          "name": "nationalID",
          "type": "string"
        },
        {
          "indexed": false,
          "internalType": "string",
          "name": "area",
          "type": "string"
        }
      ],
      "name": "VoterRegistered",
      "type": "event"
    },
    {
      "anonymous": false,
      "inputs": [
        {
          "indexed": false,
          "internalType": "address",
          "name": "winner",
          "type": "address"
        },
        {
          "indexed": false,
          "internalType": "uint256",
          "name": "voteCount",
          "type": "uint256"
        },
        {
          "indexed": false,
          "internalType": "string",
          "name": "area",
          "type": "string"
        }
      ],
      "name": "VotingEnded",
      "type": "event"
    },
    {
      "inputs": [
        {
          "internalType": "string",
          "name": "_areaName",
          "type": "string"
        },
        {
          "internalType": "uint256",
          "name": "_maxVoters",
          "type": "uint256"
        }
      ],
      "name": "addArea",
      "outputs": [],
      "stateMutability": "nonpayable",
      "type": "function"
    },
    {
      "inputs": [],
      "name": "admin",
      "outputs": [
        {
          "internalType": "address",
          "name": "",
          "type": "address"
        }
      ],
      "stateMutability": "view",
      "type": "function"
    },
    {
      "inputs": [
        {
          "internalType": "uint256",
          "name": "",
          "type": "uint256"
        }
      ],
      "name": "areaList",
      "outputs": [
        {
          "internalType": "string",
          "name": "",
          "type": "string"
        }
      ],
      "stateMutability": "view",
      "type": "function"
    },
    {
      "inputs": [
        {
          "internalType": "string",
          "name": "",
          "type": "string"
        }
      ],
      "name": "areas",
      "outputs": [
        {
          "internalType": "uint256",
          "name": "maxVoters",
          "type": "uint256"
        },
        {
          "internalType": "uint256",
          "name": "currentVotes",
          "type": "uint256"
        }
      ],
      "stateMutability": "view",
      "type": "function"
    },
    {
      "inputs": [
        {
          "internalType": "uint256",
          "name": "",
          "type": "uint256"
        }
      ],
      "name": "candidateList",
      "outputs": [
        {
          "internalType": "address",
          "name": "",
          "type": "address"
        }
      ],
      "stateMutability": "view",
      "type": "function"
    },
    {
      "inputs": [
        {
          "internalType": "address",
          "name": "",
          "type": "address"
        }
      ],
      "name": "candidates",
      "outputs": [
        {
          "internalType": "string",
          "name": "name",
          "type": "string"
        },
        {
          "internalType": "address",
          "name": "candidateAddress",
          "type": "address"
        },
        {
          "internalType": "uint256",
          "name": "voteCount",
          "type": "uint256"
        },
        {
          "internalType": "string",
          "name": "area",
          "type": "string"
        },
        {
          "internalType": "string",
          "name": "nationalID",
          "type": "string"
        }
      ],
      "stateMutability": "view",
      "type": "function"
    },
    {
      "inputs": [],
      "name": "endVoting",
      "outputs": [],
      "stateMutability": "nonpayable",
      "type": "function"
    },
    {
      "inputs": [],
      "name": "getAreas",
      "outputs": [
        {
          "internalType": "string[]",
          "name": "",
          "type": "string[]"
        }
      ],
      "stateMutability": "view",
      "type": "function"
    },
    {
      "inputs": [],
      "name": "getCandidates",
      "outputs": [
        {
          "internalType": "address[]",
          "name": "",
          "type": "address[]"
        }
      ],
      "stateMutability": "view",
      "type": "function"
    },
    {
      "inputs": [
        {
          "internalType": "string",
          "name": "_areaName",
          "type": "string"
        }
      ],
      "name": "getCandidatesByArea",
      "outputs": [
        {
          "internalType": "address[]",
          "name": "",
          "type": "address[]"
        },
        {
          "internalType": "string[]",
          "name": "",
          "type": "string[]"
        }
      ],
      "stateMutability": "view",
      "type": "function"
    },
    {
      "inputs": [
        {
          "internalType": "string",
          "name": "_areaName",
          "type": "string"
        }
      ],
      "name": "getVotersByArea",
      "outputs": [
        {
          "internalType": "address[]",
          "name": "",
          "type": "address[]"
        },
        {
          "internalType": "string[]",
          "name": "",
          "type": "string[]"
        }
      ],
      "stateMutability": "view",
      "type": "function"
    },
    {
      "inputs": [
        {
          "internalType": "string",
          "name": "_areaName",
          "type": "string"
        }
      ],
      "name": "getWinnerByArea",
      "outputs": [
        {
          "internalType": "address",
          "name": "",
          "type": "address"
        },
        {
          "internalType": "string",
          "name": "",
          "type": "string"
        },
        {
          "internalType": "uint256",
          "name": "",
          "type": "uint256"
        }
      ],
      "stateMutability": "view",
      "type": "function"
    },
    {
      "inputs": [
        {
          "internalType": "address",
          "name": "_candidate",
          "type": "address"
        },
        {
          "internalType": "string",
          "name": "_name",
          "type": "string"
        },
        {
          "internalType": "string",
          "name": "_nationalID",
          "type": "string"
        },
        {
          "internalType": "string",
          "name": "_areaName",
          "type": "string"
        }
      ],
      "name": "registerCandidate",
      "outputs": [],
      "stateMutability": "nonpayable",
      "type": "function"
    },
    {
      "inputs": [
        {
          "internalType": "address",
          "name": "_voter",
          "type": "address"
        },
        {
          "internalType": "string",
          "name": "_nationalID",
          "type": "string"
        },
        {
          "internalType": "string",
          "name": "_areaName",
          "type": "string"
        }
      ],
      "name": "registerVoter",
      "outputs": [],
      "stateMutability": "nonpayable",
      "type": "function"
    },
    {
      "inputs": [],
      "name": "startVoting",
      "outputs": [],
      "stateMutability": "nonpayable",
      "type": "function"
    },
    {
      "inputs": [
        {
          "internalType": "address",
          "name": "_candidate",
          "type": "address"
        },
        {
          "internalType": "string",
          "name": "_nationalID",
          "type": "string"
        },
        {
          "internalType": "string",
          "name": "_area",
          "type": "string"
        }
      ],
      "name": "vote",
      "outputs": [],
      "stateMutability": "nonpayable",
      "type": "function"
    },
    {
      "inputs": [
        {
          "internalType": "uint256",
          "name": "",
          "type": "uint256"
        }
      ],
      "name": "voterList",
      "outputs": [
        {
          "internalType": "address",
          "name": "",
          "type": "address"
        }
      ],
      "stateMutability": "view",
      "type": "function"
    },
    {
      "inputs": [
        {
          "internalType": "address",
          "name": "",
          "type": "address"
        }
      ],
      "name": "voters",
      "outputs": [
        {
          "internalType": "bool",
          "name": "isRegistered",
          "type": "bool"
        },
        {
          "internalType": "bool",
          "name": "hasVoted",
          "type": "bool"
        },
        {
          "internalType": "address",
          "name": "votedCandidate",
          "type": "address"
        },
        {
          "internalType": "string",
          "name": "area",
          "type": "string"
        },
        {
          "internalType": "string",
          "name": "nationalID",
          "type": "string"
        }
      ],
      "stateMutability": "view",
      "type": "function"
    },
    {
      "inputs": [],
      "name": "votingEnded",
      "outputs": [
        {
          "internalType": "bool",
          "name": "",
          "type": "bool"
        }
      ],
      "stateMutability": "view",
      "type": "function"
    },
    {
      "inputs": [],
      "name": "votingStarted",
      "outputs": [
        {
          "internalType": "bool",
          "name": "",
          "type": "bool"
        }
      ],
      "stateMutability": "view",
      "type": "function"
    }
  ],
  "bytecode": "0x6080604052348015600f57600080fd5b50336000806101000a81548173ffffffffffffffffffffffffffffffffffffffff021916908373ffffffffffffffffffffffffffffffffffffffff1602179055506143d48061005f6000396000f3fe608060405234801561001057600080fd5b506004361061012c5760003560e01c80638ab66a90116100ad578063b13c744b11610071578063b13c744b14610363578063bb8fab8e14610393578063c3403ddf146103af578063d4a7de3e146103b9578063f851a440146103ea5761012c565b80638ab66a90146102a557806392275f63146102d95780639d5a0529146102f5578063a3ec138d14610313578063ac6ba3c3146103475761012c565b8063432dea47116100f4578063432dea47146101c3578063438aabdc146101f557806350e2e8af1461022657806366e26c031461025657806383d948b7146102875761012c565b806306a49fce146101315780631ec6b60a1461014f57806321b3f528146101595780632ea3981a146101755780633e46d27914610193575b600080fd5b610139610408565b6040516101469190612d9a565b60405180910390f35b610157610496565b005b610173600480360381019061016e9190612f42565b6105a5565b005b61017d610a07565b60405161018a919061313e565b60405180910390f35b6101ad60048036038101906101a89190613196565b610ae0565b6040516101ba919061320d565b60405180910390f35b6101dd60048036038101906101d8919061322f565b610b8c565b6040516101ec93929190613296565b60405180910390f35b61020f600480360381019061020a919061322f565b610f56565b60405161021d9291906132d4565b60405180910390f35b610240600480360381019061023b9190613196565b61141e565b60405161024d919061330b565b60405180910390f35b610270600480360381019061026b919061322f565b61145d565b60405161027e9291906132d4565b60405180910390f35b61028f611925565b60405161029c9190613341565b60405180910390f35b6102bf60048036038101906102ba919061335c565b611938565b6040516102d0959493929190613389565b60405180910390f35b6102f360048036038101906102ee91906133f1565b611b26565b005b6102fd6120ba565b60405161030a9190613341565b60405180910390f35b61032d6004803603810190610328919061335c565b6120cd565b60405161033e95949392919061347c565b60405180910390f35b610361600480360381019061035c91906134dd565b61224d565b005b61037d60048036038101906103789190613196565b61244a565b60405161038a919061330b565b60405180910390f35b6103ad60048036038101906103a891906133f1565b612489565b005b6103b761288a565b005b6103d360048036038101906103ce919061322f565b612c4c565b6040516103e1929190613539565b60405180910390f35b6103f2612c86565b6040516103ff919061330b565b60405180910390f35b6060600680548060200260200160405190810160405280929190818152602001828054801561048c57602002820191906000526020600020905b8160009054906101000a900473ffffffffffffffffffffffffffffffffffffffff1673ffffffffffffffffffffffffffffffffffffffff1681526020019060010190808311610442575b5050505050905090565b60008054906101000a900473ffffffffffffffffffffffffffffffffffffffff1673ffffffffffffffffffffffffffffffffffffffff163373ffffffffffffffffffffffffffffffffffffffff1614610524576040517f08c379a000000000000000000000000000000000000000000000000000000000815260040161051b906135d4565b60405180910390fd5b6002600680549050101561056d576040517f08c379a000000000000000000000000000000000000000000000000000000000815260040161056490613666565b60405180910390fd5b6001600960006101000a81548160ff0219169083151502179055506000600960016101000a81548160ff021916908315150217905550565b60008054906101000a900473ffffffffffffffffffffffffffffffffffffffff1673ffffffffffffffffffffffffffffffffffffffff163373ffffffffffffffffffffffffffffffffffffffff1614610633576040517f08c379a000000000000000000000000000000000000000000000000000000000815260040161062a906135d4565b60405180910390fd5b600060058260405161064591906136c2565b90815260200160405180910390206000015411610697576040517f08c379a000000000000000000000000000000000000000000000000000000000815260040161068e90613725565b60405180910390fd5b60008351116106db576040517f08c379a00000000000000000000000000000000000000000000000000000000081526004016106d290613791565b60405180910390fd5b600073ffffffffffffffffffffffffffffffffffffffff16600360008673ffffffffffffffffffffffffffffffffffffffff1673ffffffffffffffffffffffffffffffffffffffff16815260200190815260200160002060010160009054906101000a900473ffffffffffffffffffffffffffffffffffffffff1673ffffffffffffffffffffffffffffffffffffffff16146107ac576040517f08c379a00000000000000000000000000000000000000000000000000000000081526004016107a3906137fd565b60405180910390fd5b6004826040516107bc91906136c2565b908152602001604051809103902060009054906101000a900460ff1615610818576040517f08c379a000000000000000000000000000000000000000000000000000000000815260040161080f90613869565b60405180910390fd5b6040518060a001604052808481526020018573ffffffffffffffffffffffffffffffffffffffff1681526020016000815260200182815260200183815250600360008673ffffffffffffffffffffffffffffffffffffffff1673ffffffffffffffffffffffffffffffffffffffff16815260200190815260200160002060008201518160000190816108aa9190613a95565b5060208201518160010160006101000a81548173ffffffffffffffffffffffffffffffffffffffff021916908373ffffffffffffffffffffffffffffffffffffffff1602179055506040820151816002015560608201518160030190816109119190613a95565b5060808201518160040190816109279190613a95565b50905050600160048360405161093d91906136c2565b908152602001604051809103902060006101000a81548160ff0219169083151502179055506006849080600181540180825580915050600190039060005260206000200160009091909190916101000a81548173ffffffffffffffffffffffffffffffffffffffff021916908373ffffffffffffffffffffffffffffffffffffffff1602179055507ed6fea68f71a20d8149f227f87e8cf7e6ad320b2dad4b45465b14599b80ee09848484846040516109f99493929190613b67565b60405180910390a150505050565b60606007805480602002602001604051908101604052809291908181526020016000905b82821015610ad7578382906000526020600020018054610a4a906138b8565b80601f0160208091040260200160405190810160405280929190818152602001828054610a76906138b8565b8015610ac35780601f10610a9857610100808354040283529160200191610ac3565b820191906000526020600020905b815481529060010190602001808311610aa657829003601f168201915b505050505081526020019060010190610a2b565b50505050905090565b60078181548110610af057600080fd5b906000526020600020016000915090508054610b0b906138b8565b80601f0160208091040260200160405190810160405280929190818152602001828054610b37906138b8565b8015610b845780601f10610b5957610100808354040283529160200191610b84565b820191906000526020600020905b815481529060010190602001808311610b6757829003601f168201915b505050505081565b60006060600080600585604051610ba391906136c2565b90815260200160405180910390206000015411610bf5576040517f08c379a0000000000000000000000000000000000000000000000000000000008152600401610bec90613725565b60405180910390fd5b600080606060005b600680549050811015610f425787604051602001610c1b91906136c2565b604051602081830303815290604052805190602001206003600060068481548110610c4957610c48613bc1565b5b9060005260206000200160009054906101000a900473ffffffffffffffffffffffffffffffffffffffff1673ffffffffffffffffffffffffffffffffffffffff1673ffffffffffffffffffffffffffffffffffffffff168152602001908152602001600020600301604051602001610cc19190613c73565b6040516020818303038152906040528051906020012003610f3557826003600060068481548110610cf557610cf4613bc1565b5b9060005260206000200160009054906101000a900473ffffffffffffffffffffffffffffffffffffffff1673ffffffffffffffffffffffffffffffffffffffff1673ffffffffffffffffffffffffffffffffffffffff168152602001908152602001600020600201541115610f34576003600060068381548110610d7c57610d7b613bc1565b5b9060005260206000200160009054906101000a900473ffffffffffffffffffffffffffffffffffffffff1673ffffffffffffffffffffffffffffffffffffffff1673ffffffffffffffffffffffffffffffffffffffff16815260200190815260200160002060020154925060068181548110610dfb57610dfa613bc1565b5b9060005260206000200160009054906101000a900473ffffffffffffffffffffffffffffffffffffffff1693506003600060068381548110610e4057610e3f613bc1565b5b9060005260206000200160009054906101000a900473ffffffffffffffffffffffffffffffffffffffff1673ffffffffffffffffffffffffffffffffffffffff1673ffffffffffffffffffffffffffffffffffffffff1681526020019081526020016000206000018054610eb3906138b8565b80601f0160208091040260200160405190810160405280929190818152602001828054610edf906138b8565b8015610f2c5780601f10610f0157610100808354040283529160200191610f2c565b820191906000526020600020905b815481529060010190602001808311610f0f57829003601f168201915b505050505091505b5b8080600101915050610bfd565b508281839550955095505050509193909250565b6060806000600584604051610f6b91906136c2565b90815260200160405180910390206000015411610fbd576040517f08c379a0000000000000000000000000000000000000000000000000000000008152600401610fb490613725565b60405180910390fd5b6000805b6006805490508110156110bc5784604051602001610fdf91906136c2565b60405160208183030381529060405280519060200120600360006006848154811061100d5761100c613bc1565b5b9060005260206000200160009054906101000a900473ffffffffffffffffffffffffffffffffffffffff1673ffffffffffffffffffffffffffffffffffffffff1673ffffffffffffffffffffffffffffffffffffffff1681526020019081526020016000206003016040516020016110859190613c73565b60405160208183030381529060405280519060200120036110af5781806110ab90613cb9565b9250505b8080600101915050610fc1565b5060008167ffffffffffffffff8111156110d9576110d8612e17565b5b6040519080825280602002602001820160405280156111075781602001602082028036833780820191505090505b50905060008267ffffffffffffffff81111561112657611125612e17565b5b60405190808252806020026020018201604052801561115957816020015b60608152602001906001900390816111445790505b5090506000805b60068054905081101561140e578760405160200161117e91906136c2565b6040516020818303038152906040528051906020012060036000600684815481106111ac576111ab613bc1565b5b9060005260206000200160009054906101000a900473ffffffffffffffffffffffffffffffffffffffff1673ffffffffffffffffffffffffffffffffffffffff1673ffffffffffffffffffffffffffffffffffffffff1681526020019081526020016000206003016040516020016112249190613c73565b6040516020818303038152906040528051906020012003611401576006818154811061125357611252613bc1565b5b9060005260206000200160009054906101000a900473ffffffffffffffffffffffffffffffffffffffff1684838151811061129157611290613bc1565b5b602002602001019073ffffffffffffffffffffffffffffffffffffffff16908173ffffffffffffffffffffffffffffffffffffffff168152505060036000600683815481106112e3576112e2613bc1565b5b9060005260206000200160009054906101000a900473ffffffffffffffffffffffffffffffffffffffff1673ffffffffffffffffffffffffffffffffffffffff1673ffffffffffffffffffffffffffffffffffffffff1681526020019081526020016000206000018054611356906138b8565b80601f0160208091040260200160405190810160405280929190818152602001828054611382906138b8565b80156113cf5780601f106113a4576101008083540402835291602001916113cf565b820191906000526020600020905b8154815290600101906020018083116113b257829003601f168201915b50505050508383815181106113e7576113e6613bc1565b5b602002602001018190525081806113fd90613cb9565b9250505b8080600101915050611160565b5082829550955050505050915091565b6008818154811061142e57600080fd5b906000526020600020016000915054906101000a900473ffffffffffffffffffffffffffffffffffffffff1681565b606080600060058460405161147291906136c2565b908152602001604051809103902060000154116114c4576040517f08c379a00000000000000000000000000000000000000000000000000000000081526004016114bb90613725565b60405180910390fd5b6000805b6008805490508110156115c357846040516020016114e691906136c2565b60405160208183030381529060405280519060200120600160006008848154811061151457611513613bc1565b5b9060005260206000200160009054906101000a900473ffffffffffffffffffffffffffffffffffffffff1673ffffffffffffffffffffffffffffffffffffffff1673ffffffffffffffffffffffffffffffffffffffff16815260200190815260200160002060010160405160200161158c9190613c73565b60405160208183030381529060405280519060200120036115b65781806115b290613cb9565b9250505b80806001019150506114c8565b5060008167ffffffffffffffff8111156115e0576115df612e17565b5b60405190808252806020026020018201604052801561160e5781602001602082028036833780820191505090505b50905060008267ffffffffffffffff81111561162d5761162c612e17565b5b60405190808252806020026020018201604052801561166057816020015b606081526020019060019003908161164b5790505b5090506000805b600880549050811015611915578760405160200161168591906136c2565b6040516020818303038152906040528051906020012060016000600884815481106116b3576116b2613bc1565b5b9060005260206000200160009054906101000a900473ffffffffffffffffffffffffffffffffffffffff1673ffffffffffffffffffffffffffffffffffffffff1673ffffffffffffffffffffffffffffffffffffffff16815260200190815260200160002060010160405160200161172b9190613c73565b6040516020818303038152906040528051906020012003611908576008818154811061175a57611759613bc1565b5b9060005260206000200160009054906101000a900473ffffffffffffffffffffffffffffffffffffffff1684838151811061179857611797613bc1565b5b602002602001019073ffffffffffffffffffffffffffffffffffffffff16908173ffffffffffffffffffffffffffffffffffffffff168152505060016000600883815481106117ea576117e9613bc1565b5b9060005260206000200160009054906101000a900473ffffffffffffffffffffffffffffffffffffffff1673ffffffffffffffffffffffffffffffffffffffff1673ffffffffffffffffffffffffffffffffffffffff168152602001908152602001600020600201805461185d906138b8565b80601f0160208091040260200160405190810160405280929190818152602001828054611889906138b8565b80156118d65780601f106118ab576101008083540402835291602001916118d6565b820191906000526020600020905b8154815290600101906020018083116118b957829003601f168201915b50505050508383815181106118ee576118ed613bc1565b5b6020026020010181905250818061190490613cb9565b9250505b8080600101915050611667565b5082829550955050505050915091565b600960009054906101000a900460ff1681565b600360205280600052604060002060009150905080600001805461195b906138b8565b80601f0160208091040260200160405190810160405280929190818152602001828054611987906138b8565b80156119d45780601f106119a9576101008083540402835291602001916119d4565b820191906000526020600020905b8154815290600101906020018083116119b757829003601f168201915b5050505050908060010160009054906101000a900473ffffffffffffffffffffffffffffffffffffffff1690806002015490806003018054611a15906138b8565b80601f0160208091040260200160405190810160405280929190818152602001828054611a41906138b8565b8015611a8e5780601f10611a6357610100808354040283529160200191611a8e565b820191906000526020600020905b815481529060010190602001808311611a7157829003601f168201915b505050505090806004018054611aa3906138b8565b80601f0160208091040260200160405190810160405280929190818152602001828054611acf906138b8565b8015611b1c5780601f10611af157610100808354040283529160200191611b1c565b820191906000526020600020905b815481529060010190602001808311611aff57829003601f168201915b5050505050905085565b600960009054906101000a900460ff168015611b4f5750600960019054906101000a900460ff16155b611b8e576040517f08c379a0000000000000000000000000000000000000000000000000000000008152600401611b8590613d4d565b60405180910390fd5b6000600160003373ffffffffffffffffffffffffffffffffffffffff1673ffffffffffffffffffffffffffffffffffffffff16815260200190815260200160002090508060000160009054906101000a900460ff16611c22576040517f08c379a0000000000000000000000000000000000000000000000000000000008152600401611c1990613db9565b60405180910390fd5b8060000160019054906101000a900460ff1615611c74576040517f08c379a0000000000000000000000000000000000000000000000000000000008152600401611c6b90613e25565b60405180910390fd5b82604051602001611c8591906136c2565b6040516020818303038152906040528051906020012081600201604051602001611caf9190613c73565b6040516020818303038152906040528051906020012014611d05576040517f08c379a0000000000000000000000000000000000000000000000000000000008152600401611cfc90613e91565b60405180910390fd5b81604051602001611d1691906136c2565b6040516020818303038152906040528051906020012081600101604051602001611d409190613c73565b6040516020818303038152906040528051906020012014611d96576040517f08c379a0000000000000000000000000000000000000000000000000000000008152600401611d8d90613f23565b60405180910390fd5b600073ffffffffffffffffffffffffffffffffffffffff16600360008673ffffffffffffffffffffffffffffffffffffffff1673ffffffffffffffffffffffffffffffffffffffff16815260200190815260200160002060010160009054906101000a900473ffffffffffffffffffffffffffffffffffffffff1673ffffffffffffffffffffffffffffffffffffffff1603611e67576040517f08c379a0000000000000000000000000000000000000000000000000000000008152600401611e5e90613f8f565b60405180910390fd5b81604051602001611e7891906136c2565b60405160208183030381529060405280519060200120600360008673ffffffffffffffffffffffffffffffffffffffff1673ffffffffffffffffffffffffffffffffffffffff168152602001908152602001600020600301604051602001611ee09190613c73565b6040516020818303038152906040528051906020012014611f36576040517f08c379a0000000000000000000000000000000000000000000000000000000008152600401611f2d90614021565b60405180910390fd5b6000600583604051611f4891906136c2565b908152602001604051809103902090508060000154816001015410611fa2576040517f08c379a0000000000000000000000000000000000000000000000000000000008152600401611f99906140b3565b60405180910390fd5b60018260000160016101000a81548160ff021916908315150217905550848260000160026101000a81548173ffffffffffffffffffffffffffffffffffffffff021916908373ffffffffffffffffffffffffffffffffffffffff1602179055506001600360008773ffffffffffffffffffffffffffffffffffffffff1673ffffffffffffffffffffffffffffffffffffffff168152602001908152602001600020600201600082825461205591906140d3565b92505081905550600181600101600082825461207191906140d3565b925050819055507f8d1cfb67c4b6ddfa4950ade9b8090e8da23fb82114fea7fd43c4cbbe2c2367b33386856040516120ab93929190614107565b60405180910390a15050505050565b600960019054906101000a900460ff1681565b60016020528060005260406000206000915090508060000160009054906101000a900460ff16908060000160019054906101000a900460ff16908060000160029054906101000a900473ffffffffffffffffffffffffffffffffffffffff169080600101805461213c906138b8565b80601f0160208091040260200160405190810160405280929190818152602001828054612168906138b8565b80156121b55780601f1061218a576101008083540402835291602001916121b5565b820191906000526020600020905b81548152906001019060200180831161219857829003601f168201915b5050505050908060020180546121ca906138b8565b80601f01602080910402602001604051908101604052809291908181526020018280546121f6906138b8565b80156122435780601f1061221857610100808354040283529160200191612243565b820191906000526020600020905b81548152906001019060200180831161222657829003601f168201915b5050505050905085565b60008054906101000a900473ffffffffffffffffffffffffffffffffffffffff1673ffffffffffffffffffffffffffffffffffffffff163373ffffffffffffffffffffffffffffffffffffffff16146122db576040517f08c379a00000000000000000000000000000000000000000000000000000000081526004016122d2906135d4565b60405180910390fd5b600082511161231f576040517f08c379a000000000000000000000000000000000000000000000000000000000815260040161231690614191565b60405180910390fd5b60008111612362576040517f08c379a000000000000000000000000000000000000000000000000000000000815260040161235990614223565b60405180910390fd5b600060058360405161237491906136c2565b908152602001604051809103902060000154146123c6576040517f08c379a00000000000000000000000000000000000000000000000000000000081526004016123bd9061428f565b60405180910390fd5b604051806040016040528082815260200160008152506005836040516123ec91906136c2565b908152602001604051809103902060008201518160000155602082015181600101559050506007829080600181540180825580915050600190039060005260206000200160009091909190915090816124459190613a95565b505050565b6006818154811061245a57600080fd5b906000526020600020016000915054906101000a900473ffffffffffffffffffffffffffffffffffffffff1681565b60008054906101000a900473ffffffffffffffffffffffffffffffffffffffff1673ffffffffffffffffffffffffffffffffffffffff163373ffffffffffffffffffffffffffffffffffffffff1614612517576040517f08c379a000000000000000000000000000000000000000000000000000000000815260040161250e906135d4565b60405180910390fd5b600060058260405161252991906136c2565b9081526020016040518091039020600001541161257b576040517f08c379a000000000000000000000000000000000000000000000000000000000815260040161257290613725565b60405180910390fd5b600160008473ffffffffffffffffffffffffffffffffffffffff1673ffffffffffffffffffffffffffffffffffffffff16815260200190815260200160002060000160009054906101000a900460ff161561260b576040517f08c379a0000000000000000000000000000000000000000000000000000000008152600401612602906142fb565b60405180910390fd5b60028260405161261b91906136c2565b908152602001604051809103902060009054906101000a900460ff1615612677576040517f08c379a000000000000000000000000000000000000000000000000000000000815260040161266e90613869565b60405180910390fd5b6040518060a00160405280600115158152602001600015158152602001600073ffffffffffffffffffffffffffffffffffffffff16815260200182815260200183815250600160008573ffffffffffffffffffffffffffffffffffffffff1673ffffffffffffffffffffffffffffffffffffffff16815260200190815260200160002060008201518160000160006101000a81548160ff02191690831515021790555060208201518160000160016101000a81548160ff02191690831515021790555060408201518160000160026101000a81548173ffffffffffffffffffffffffffffffffffffffff021916908373ffffffffffffffffffffffffffffffffffffffff16021790555060608201518160010190816127969190613a95565b5060808201518160020190816127ac9190613a95565b5090505060016002836040516127c291906136c2565b908152602001604051809103902060006101000a81548160ff0219169083151502179055506008839080600181540180825580915050600190039060005260206000200160009091909190916101000a81548173ffffffffffffffffffffffffffffffffffffffff021916908373ffffffffffffffffffffffffffffffffffffffff1602179055507f96ac7a421360a2bd773d747b2f64b40a916821c4906dbfdebf787c292e741f7d83838360405161287d9392919061431b565b60405180910390a1505050565b60008054906101000a900473ffffffffffffffffffffffffffffffffffffffff1673ffffffffffffffffffffffffffffffffffffffff163373ffffffffffffffffffffffffffffffffffffffff1614612918576040517f08c379a000000000000000000000000000000000000000000000000000000000815260040161290f906135d4565b60405180910390fd5b600960009054906101000a900460ff1680156129415750600960019054906101000a900460ff16155b612980576040517f08c379a000000000000000000000000000000000000000000000000000000000815260040161297790613d4d565b60405180910390fd5b6001600960016101000a81548160ff0219169083151502179055506000600960006101000a81548160ff02191690831515021790555060005b600780549050811015612c49576000600782815481106129dc576129db613bc1565b5b9060005260206000200180546129f1906138b8565b80601f0160208091040260200160405190810160405280929190818152602001828054612a1d906138b8565b8015612a6a5780601f10612a3f57610100808354040283529160200191612a6a565b820191906000526020600020905b815481529060010190602001808311612a4d57829003601f168201915b5050505050905060008060005b600680549050811015612bfd57600060068281548110612a9a57612a99613bc1565b5b9060005260206000200160009054906101000a900473ffffffffffffffffffffffffffffffffffffffff16905084604051602001612ad891906136c2565b60405160208183030381529060405280519060200120600360008373ffffffffffffffffffffffffffffffffffffffff1673ffffffffffffffffffffffffffffffffffffffff168152602001908152602001600020600301604051602001612b409190613c73565b6040516020818303038152906040528051906020012003612bef5782600360008373ffffffffffffffffffffffffffffffffffffffff1673ffffffffffffffffffffffffffffffffffffffff168152602001908152602001600020600201541115612bee57600360008273ffffffffffffffffffffffffffffffffffffffff1673ffffffffffffffffffffffffffffffffffffffff1681526020019081526020016000206002015492508093505b5b508080600101915050612a77565b507f3b281afe48905f20862f01b6e1bc6eaf6079665f84380a6022228a68c38308f0828285604051612c3193929190614360565b60405180910390a150505080806001019150506129b9565b50565b6005818051602081018201805184825260208301602085012081835280955050505050506000915090508060000154908060010154905082565b60008054906101000a900473ffffffffffffffffffffffffffffffffffffffff1681565b600081519050919050565b600082825260208201905092915050565b6000819050602082019050919050565b600073ffffffffffffffffffffffffffffffffffffffff82169050919050565b6000612d0182612cd6565b9050919050565b612d1181612cf6565b82525050565b6000612d238383612d08565b60208301905092915050565b6000602082019050919050565b6000612d4782612caa565b612d518185612cb5565b9350612d5c83612cc6565b8060005b83811015612d8d578151612d748882612d17565b9750612d7f83612d2f565b925050600181019050612d60565b5085935050505092915050565b60006020820190508181036000830152612db48184612d3c565b905092915050565b6000604051905090565b600080fd5b600080fd5b612dd981612cf6565b8114612de457600080fd5b50565b600081359050612df681612dd0565b92915050565b600080fd5b600080fd5b6000601f19601f8301169050919050565b7f4e487b7100000000000000000000000000000000000000000000000000000000600052604160045260246000fd5b612e4f82612e06565b810181811067ffffffffffffffff82111715612e6e57612e6d612e17565b5b80604052505050565b6000612e81612dbc565b9050612e8d8282612e46565b919050565b600067ffffffffffffffff821115612ead57612eac612e17565b5b612eb682612e06565b9050602081019050919050565b82818337600083830152505050565b6000612ee5612ee084612e92565b612e77565b905082815260208101848484011115612f0157612f00612e01565b5b612f0c848285612ec3565b509392505050565b600082601f830112612f2957612f28612dfc565b5b8135612f39848260208601612ed2565b91505092915050565b60008060008060808587031215612f5c57612f5b612dc6565b5b6000612f6a87828801612de7565b945050602085013567ffffffffffffffff811115612f8b57612f8a612dcb565b5b612f9787828801612f14565b935050604085013567ffffffffffffffff811115612fb857612fb7612dcb565b5b612fc487828801612f14565b925050606085013567ffffffffffffffff811115612fe557612fe4612dcb565b5b612ff187828801612f14565b91505092959194509250565b600081519050919050565b600082825260208201905092915050565b6000819050602082019050919050565b600081519050919050565b600082825260208201905092915050565b60005b83811015613063578082015181840152602081019050613048565b60008484015250505050565b600061307a82613029565b6130848185613034565b9350613094818560208601613045565b61309d81612e06565b840191505092915050565b60006130b4838361306f565b905092915050565b6000602082019050919050565b60006130d482612ffd565b6130de8185613008565b9350836020820285016130f085613019565b8060005b8581101561312c578484038952815161310d85826130a8565b9450613118836130bc565b925060208a019950506001810190506130f4565b50829750879550505050505092915050565b6000602082019050818103600083015261315881846130c9565b905092915050565b6000819050919050565b61317381613160565b811461317e57600080fd5b50565b6000813590506131908161316a565b92915050565b6000602082840312156131ac576131ab612dc6565b5b60006131ba84828501613181565b91505092915050565b600082825260208201905092915050565b60006131df82613029565b6131e981856131c3565b93506131f9818560208601613045565b61320281612e06565b840191505092915050565b6000602082019050818103600083015261322781846131d4565b905092915050565b60006020828403121561324557613244612dc6565b5b600082013567ffffffffffffffff81111561326357613262612dcb565b5b61326f84828501612f14565b91505092915050565b61328181612cf6565b82525050565b61329081613160565b82525050565b60006060820190506132ab6000830186613278565b81810360208301526132bd81856131d4565b90506132cc6040830184613287565b949350505050565b600060408201905081810360008301526132ee8185612d3c565b9050818103602083015261330281846130c9565b90509392505050565b60006020820190506133206000830184613278565b92915050565b60008115159050919050565b61333b81613326565b82525050565b60006020820190506133566000830184613332565b92915050565b60006020828403121561337257613371612dc6565b5b600061338084828501612de7565b91505092915050565b600060a08201905081810360008301526133a381886131d4565b90506133b26020830187613278565b6133bf6040830186613287565b81810360608301526133d181856131d4565b905081810360808301526133e581846131d4565b90509695505050505050565b60008060006060848603121561340a57613409612dc6565b5b600061341886828701612de7565b935050602084013567ffffffffffffffff81111561343957613438612dcb565b5b61344586828701612f14565b925050604084013567ffffffffffffffff81111561346657613465612dcb565b5b61347286828701612f14565b9150509250925092565b600060a0820190506134916000830188613332565b61349e6020830187613332565b6134ab6040830186613278565b81810360608301526134bd81856131d4565b905081810360808301526134d181846131d4565b90509695505050505050565b600080604083850312156134f4576134f3612dc6565b5b600083013567ffffffffffffffff81111561351257613511612dcb565b5b61351e85828601612f14565b925050602061352f85828601613181565b9150509250929050565b600060408201905061354e6000830185613287565b61355b6020830184613287565b9392505050565b7f4f6e6c792061646d696e2063616e20706572666f726d2074686973206163746960008201527f6f6e2e0000000000000000000000000000000000000000000000000000000000602082015250565b60006135be6023836131c3565b91506135c982613562565b604082019050919050565b600060208201905081810360008301526135ed816135b1565b9050919050565b7f4174206c656173742074776f2063616e6469646174657320726571756972656460008201527f2e00000000000000000000000000000000000000000000000000000000000000602082015250565b60006136506021836131c3565b915061365b826135f4565b604082019050919050565b6000602082019050818103600083015261367f81613643565b9050919050565b600081905092915050565b600061369c82613029565b6136a68185613686565b93506136b6818560208601613045565b80840191505092915050565b60006136ce8284613691565b915081905092915050565b7f4172656120646f6573206e6f742065786973742e000000000000000000000000600082015250565b600061370f6014836131c3565b915061371a826136d9565b602082019050919050565b6000602082019050818103600083015261373e81613702565b9050919050565b7f43616e646964617465206e616d652063616e6e6f7420626520656d7074792e00600082015250565b600061377b601f836131c3565b915061378682613745565b602082019050919050565b600060208201905081810360008301526137aa8161376e565b9050919050565b7f43616e64696461746520616c726561647920726567697374657265642e000000600082015250565b60006137e7601d836131c3565b91506137f2826137b1565b602082019050919050565b60006020820190508181036000830152613816816137da565b9050919050565b7f4e6174696f6e616c20494420616c726561647920726567697374657265642e00600082015250565b6000613853601f836131c3565b915061385e8261381d565b602082019050919050565b6000602082019050818103600083015261388281613846565b9050919050565b7f4e487b7100000000000000000000000000000000000000000000000000000000600052602260045260246000fd5b600060028204905060018216806138d057607f821691505b6020821081036138e3576138e2613889565b5b50919050565b60008190508160005260206000209050919050565b60006020601f8301049050919050565b600082821b905092915050565b60006008830261394b7fffffffffffffffffffffffffffffffffffffffffffffffffffffffffffffffff8261390e565b613955868361390e565b95508019841693508086168417925050509392505050565b6000819050919050565b600061399261398d61398884613160565b61396d565b613160565b9050919050565b6000819050919050565b6139ac83613977565b6139c06139b882613999565b84845461391b565b825550505050565b600090565b6139d56139c8565b6139e08184846139a3565b505050565b5b81811015613a04576139f96000826139cd565b6001810190506139e6565b5050565b601f821115613a4957613a1a816138e9565b613a23846138fe565b81016020851015613a32578190505b613a46613a3e856138fe565b8301826139e5565b50505b505050565b600082821c905092915050565b6000613a6c60001984600802613a4e565b1980831691505092915050565b6000613a858383613a5b565b9150826002028217905092915050565b613a9e82613029565b67ffffffffffffffff811115613ab757613ab6612e17565b5b613ac182546138b8565b613acc828285613a08565b600060209050601f831160018114613aff5760008415613aed578287015190505b613af78582613a79565b865550613b5f565b601f198416613b0d866138e9565b60005b82811015613b3557848901518255600182019150602085019450602081019050613b10565b86831015613b525784890151613b4e601f891682613a5b565b8355505b6001600288020188555050505b505050505050565b6000608082019050613b7c6000830187613278565b8181036020830152613b8e81866131d4565b90508181036040830152613ba281856131d4565b90508181036060830152613bb681846131d4565b905095945050505050565b7f4e487b7100000000000000000000000000000000000000000000000000000000600052603260045260246000fd5b60008154613bfd816138b8565b613c078186613686565b94506001821660008114613c225760018114613c3757613c6a565b60ff1983168652811515820286019350613c6a565b613c40856138e9565b60005b83811015613c6257815481890152600182019150602081019050613c43565b838801955050505b50505092915050565b6000613c7f8284613bf0565b915081905092915050565b7f4e487b7100000000000000000000000000000000000000000000000000000000600052601160045260246000fd5b6000613cc482613160565b91507fffffffffffffffffffffffffffffffffffffffffffffffffffffffffffffffff8203613cf657613cf5613c8a565b5b600182019050919050565b7f566f74696e67206973206e6f74206163746976652e0000000000000000000000600082015250565b6000613d376015836131c3565b9150613d4282613d01565b602082019050919050565b60006020820190508181036000830152613d6681613d2a565b9050919050565b7f596f7520617265206e6f74207265676973746572656420746f20766f74652e00600082015250565b6000613da3601f836131c3565b9150613dae82613d6d565b602082019050919050565b60006020820190508181036000830152613dd281613d96565b9050919050565b7f596f75206861766520616c726561647920766f7465642e000000000000000000600082015250565b6000613e0f6017836131c3565b9150613e1a82613dd9565b602082019050919050565b60006020820190508181036000830152613e3e81613e02565b9050919050565b7f4e6174696f6e616c20494420646f6573206e6f74206d617463682e0000000000600082015250565b6000613e7b601b836131c3565b9150613e8682613e45565b602082019050919050565b60006020820190508181036000830152613eaa81613e6e565b9050919050565b7f4172656120646f6573206e6f74206d617463682074686520766f74657227732060008201527f7265676973746572656420617265612e00000000000000000000000000000000602082015250565b6000613f0d6030836131c3565b9150613f1882613eb1565b604082019050919050565b60006020820190508181036000830152613f3c81613f00565b9050919050565b7f496e76616c69642063616e6469646174652e0000000000000000000000000000600082015250565b6000613f796012836131c3565b9150613f8482613f43565b602082019050919050565b60006020820190508181036000830152613fa881613f6c565b9050919050565b7f43616e64696461746520616e6420766f746572206d75737420626520696e207460008201527f68652073616d6520617265612e00000000000000000000000000000000000000602082015250565b600061400b602d836131c3565b915061401682613faf565b604082019050919050565b6000602082019050818103600083015261403a81613ffe565b9050919050565b7f566f74696e67206c696d697420666f722074686973206172656120686173206260008201527f65656e20726561636865642e0000000000000000000000000000000000000000602082015250565b600061409d602c836131c3565b91506140a882614041565b604082019050919050565b600060208201905081810360008301526140cc81614090565b9050919050565b60006140de82613160565b91506140e983613160565b925082820190508082111561410157614100613c8a565b5b92915050565b600060608201905061411c6000830186613278565b6141296020830185613278565b818103604083015261413b81846131d4565b9050949350505050565b7f41726561206e616d652063616e6e6f7420626520656d7074792e000000000000600082015250565b600061417b601a836131c3565b915061418682614145565b602082019050919050565b600060208201905081810360008301526141aa8161416e565b9050919050565b7f41726561206d7573742068617665207265676973746572656420766f7465727360008201527f2e00000000000000000000000000000000000000000000000000000000000000602082015250565b600061420d6021836131c3565b9150614218826141b1565b604082019050919050565b6000602082019050818103600083015261423c81614200565b9050919050565b7f4172656120616c7265616479206578697374732e000000000000000000000000600082015250565b60006142796014836131c3565b915061428482614243565b602082019050919050565b600060208201905081810360008301526142a88161426c565b9050919050565b7f566f74657220616c726561647920726567697374657265642e00000000000000600082015250565b60006142e56019836131c3565b91506142f0826142af565b602082019050919050565b60006020820190508181036000830152614314816142d8565b9050919050565b60006060820190506143306000830186613278565b818103602083015261434281856131d4565b9050818103604083015261435681846131d4565b9050949350505050565b60006060820190506143756000830186613278565b6143826020830185613287565b818103604083015261439481846131d4565b905094935050505056fea2646970667358221220196e924d9c79320f8b2290182c68dc65bb8c20b9e98341456661426ff902408d64736f6c634300081c0033",
  "linkReferences": {},
  "deployedLinkReferences": {}
}