{
  "_format": "hh-sol-artifact-1",
  "contractName": "VotingSystem",
  "sourceName": "contracts/VotingSystem.sol",
  "abi": [
    {
      "inputs": [],
      "stateMutability": "nonpayable",
      "type": "constructor"
    },
    {
      "anonymous": false,
      "inputs": [
        {
          "indexed": false,
          "internalType": "address",
          "name": "candidate",
          "type": "address"
        },
        {
          "indexed": false,
          "internalType": "string",
          "name": "name",
          "type": "string"
        },
        {
          "indexed": false,
          "internalType": "string",
          "name": "nationalID",
          "type": "string"
        },
        {
          "indexed": false,
          "internalType": "string",
          "name": "area",
          "type": "string"
        }
      ],
      "name": "CandidateRegistered",
      "type": "event"
    },
    {
      "anonymous": false,
      "inputs": [
        {
          "indexed": false,
          "internalType": "address",
          "name": "voter",
          "type": "address"
        },
        {
          "indexed": false,
          "internalType": "address",
          "name": "candidate",
          "type": "address"
        },
        {
          "indexed": false,
          "internalType": "string",
          "name": "area",
          "type": "string"
        }
      ],
      "name": "VoteCasted",
      "type": "event"
    },
    {
      "anonymous": false,
      "inputs": [
        {
          "indexed": false,
          "internalType": "address",
          "name": "voter",
          "type": "address"
        },
        {
          "indexed": false,
          "internalType": "string",
          "name": "nationalID",
          "type": "string"
        },
        {
          "indexed": false,
          "internalType": "string",
          "name": "area",
          "type": "string"
        }
      ],
      "name": "VoterRegistered",
      "type": "event"
    },
    {
      "anonymous": false,
      "inputs": [
        {
          "indexed": false,
          "internalType": "address",
          "name": "winner",
          "type": "address"
        },
        {
          "indexed": false,
          "internalType": "uint256",
          "name": "voteCount",
          "type": "uint256"
        },
        {
          "indexed": false,
          "internalType": "string",
          "name": "area",
          "type": "string"
        }
      ],
      "name": "VotingEnded",
      "type": "event"
    },
    {
      "inputs": [
        {
          "internalType": "string",
          "name": "_areaName",
          "type": "string"
        },
        {
          "internalType": "uint256",
          "name": "_maxVoters",
          "type": "uint256"
        }
      ],
      "name": "addArea",
      "outputs": [],
      "stateMutability": "nonpayable",
      "type": "function"
    },
    {
      "inputs": [],
      "name": "admin",
      "outputs": [
        {
          "internalType": "address",
          "name": "",
          "type": "address"
        }
      ],
      "stateMutability": "view",
      "type": "function"
    },
    {
      "inputs": [
        {
          "internalType": "uint256",
          "name": "",
          "type": "uint256"
        }
      ],
      "name": "areaList",
      "outputs": [
        {
          "internalType": "string",
          "name": "",
          "type": "string"
        }
      ],
      "stateMutability": "view",
      "type": "function"
    },
    {
      "inputs": [
        {
          "internalType": "string",
          "name": "",
          "type": "string"
        }
      ],
      "name": "areas",
      "outputs": [
        {
          "internalType": "uint256",
          "name": "maxVoters",
          "type": "uint256"
        },
        {
          "internalType": "uint256",
          "name": "currentVotes",
          "type": "uint256"
        }
      ],
      "stateMutability": "view",
      "type": "function"
    },
    {
      "inputs": [
        {
          "internalType": "uint256",
          "name": "",
          "type": "uint256"
        }
      ],
      "name": "candidateList",
      "outputs": [
        {
          "internalType": "address",
          "name": "",
          "type": "address"
        }
      ],
      "stateMutability": "view",
      "type": "function"
    },
    {
      "inputs": [
        {
          "internalType": "address",
          "name": "",
          "type": "address"
        }
      ],
      "name": "candidates",
      "outputs": [
        {
          "internalType": "string",
          "name": "name",
          "type": "string"
        },
        {
          "internalType": "address",
          "name": "candidateAddress",
          "type": "address"
        },
        {
          "internalType": "uint256",
          "name": "voteCount",
          "type": "uint256"
        },
        {
          "internalType": "string",
          "name": "area",
          "type": "string"
        },
        {
          "internalType": "string",
          "name": "nationalID",
          "type": "string"
        }
      ],
      "stateMutability": "view",
      "type": "function"
    },
    {
      "inputs": [],
      "name": "endVoting",
      "outputs": [],
      "stateMutability": "nonpayable",
      "type": "function"
    },
    {
      "inputs": [],
      "name": "getAreas",
      "outputs": [
        {
          "internalType": "string[]",
          "name": "",
          "type": "string[]"
        }
      ],
      "stateMutability": "view",
      "type": "function"
    },
    {
      "inputs": [],
      "name": "getCandidates",
      "outputs": [
        {
          "internalType": "string[]",
          "name": "",
          "type": "string[]"
        }
      ],
      "stateMutability": "view",
      "type": "function"
    },
    {
      "inputs": [
        {
          "internalType": "string",
          "name": "_areaName",
          "type": "string"
        }
      ],
      "name": "getCandidatesByArea",
      "outputs": [
        {
          "internalType": "address[]",
          "name": "",
          "type": "address[]"
        },
        {
          "internalType": "string[]",
          "name": "",
          "type": "string[]"
        }
      ],
      "stateMutability": "view",
      "type": "function"
    },
    {
      "inputs": [],
      "name": "getTotalValidVotersByAllAreas",
      "outputs": [
        {
          "internalType": "string[]",
          "name": "",
          "type": "string[]"
        },
        {
          "internalType": "uint256[]",
          "name": "",
          "type": "uint256[]"
        }
      ],
      "stateMutability": "view",
      "type": "function"
    },
    {
      "inputs": [
        {
          "internalType": "string",
          "name": "_areaName",
          "type": "string"
        }
      ],
      "name": "getWinnerByArea",
      "outputs": [
        {
          "internalType": "address",
          "name": "",
          "type": "address"
        },
        {
          "internalType": "string",
          "name": "",
          "type": "string"
        },
        {
          "internalType": "uint256",
          "name": "",
          "type": "uint256"
        }
      ],
      "stateMutability": "view",
      "type": "function"
    },
    {
      "inputs": [
        {
          "internalType": "address",
          "name": "_candidate",
          "type": "address"
        },
        {
          "internalType": "string",
          "name": "_name",
          "type": "string"
        },
        {
          "internalType": "string",
          "name": "_nationalID",
          "type": "string"
        },
        {
          "internalType": "string",
          "name": "_areaName",
          "type": "string"
        }
      ],
      "name": "registerCandidate",
      "outputs": [],
      "stateMutability": "nonpayable",
      "type": "function"
    },
    {
      "inputs": [
        {
          "internalType": "address",
          "name": "_voter",
          "type": "address"
        },
        {
          "internalType": "string",
          "name": "_nationalID",
          "type": "string"
        },
        {
          "internalType": "string",
          "name": "_areaName",
          "type": "string"
        }
      ],
      "name": "registerVoter",
      "outputs": [],
      "stateMutability": "nonpayable",
      "type": "function"
    },
    {
      "inputs": [],
      "name": "startVoting",
      "outputs": [],
      "stateMutability": "nonpayable",
      "type": "function"
    },
    {
      "inputs": [
        {
          "internalType": "address",
          "name": "_candidate",
          "type": "address"
        },
        {
          "internalType": "string",
          "name": "_nationalID",
          "type": "string"
        },
        {
          "internalType": "string",
          "name": "_area",
          "type": "string"
        }
      ],
      "name": "vote",
      "outputs": [],
      "stateMutability": "nonpayable",
      "type": "function"
    },
    {
      "inputs": [
        {
          "internalType": "uint256",
          "name": "",
          "type": "uint256"
        }
      ],
      "name": "voterList",
      "outputs": [
        {
          "internalType": "address",
          "name": "",
          "type": "address"
        }
      ],
      "stateMutability": "view",
      "type": "function"
    },
    {
      "inputs": [
        {
          "internalType": "address",
          "name": "",
          "type": "address"
        }
      ],
      "name": "voters",
      "outputs": [
        {
          "internalType": "bool",
          "name": "isRegistered",
          "type": "bool"
        },
        {
          "internalType": "bool",
          "name": "hasVoted",
          "type": "bool"
        },
        {
          "internalType": "address",
          "name": "votedCandidate",
          "type": "address"
        },
        {
          "internalType": "string",
          "name": "area",
          "type": "string"
        },
        {
          "internalType": "string",
          "name": "nationalID",
          "type": "string"
        }
      ],
      "stateMutability": "view",
      "type": "function"
    },
    {
      "inputs": [],
      "name": "votingEnded",
      "outputs": [
        {
          "internalType": "bool",
          "name": "",
          "type": "bool"
        }
      ],
      "stateMutability": "view",
      "type": "function"
    },
    {
      "inputs": [],
      "name": "votingStarted",
      "outputs": [
        {
          "internalType": "bool",
          "name": "",
          "type": "bool"
        }
      ],
      "stateMutability": "view",
      "type": "function"
    }
  ],
  "bytecode": "0x6080604052348015600f57600080fd5b50336000806101000a81548173ffffffffffffffffffffffffffffffffffffffff021916908373ffffffffffffffffffffffffffffffffffffffff16021790555061443d8061005f6000396000f3fe608060405234801561001057600080fd5b506004361061012c5760003560e01c80638dfba9ac116100ad578063b13c744b11610071578063b13c744b14610351578063bb8fab8e14610381578063c3403ddf1461039d578063d4a7de3e146103a7578063f851a440146103d85761012c565b80638dfba9ac146102a857806392275f63146102c75780639d5a0529146102e3578063a3ec138d14610301578063ac6ba3c3146103355761012c565b8063432dea47116100f4578063432dea47146101c3578063438aabdc146101f557806350e2e8af1461022657806383d948b7146102565780638ab66a90146102745761012c565b806306a49fce146101315780631ec6b60a1461014f57806321b3f528146101595780632ea3981a146101755780633e46d27914610193575b600080fd5b6101396103f6565b6040516101469190612d92565b60405180910390f35b61015761059b565b005b610173600480360381019061016e9190612f5b565b6106aa565b005b61017d610b0c565b60405161018a9190612d92565b60405180910390f35b6101ad60048036038101906101a8919061304c565b610be5565b6040516101ba91906130c3565b60405180910390f35b6101dd60048036038101906101d891906130e5565b610c91565b6040516101ec9392919061314c565b60405180910390f35b61020f600480360381019061020a91906130e5565b61105b565b60405161021d929190613248565b60405180910390f35b610240600480360381019061023b919061304c565b611523565b60405161024d919061327f565b60405180910390f35b61025e611562565b60405161026b91906132b5565b60405180910390f35b61028e600480360381019061028991906132d0565b611575565b60405161029f9594939291906132fd565b60405180910390f35b6102b0611763565b6040516102be929190613423565b60405180910390f35b6102e160048036038101906102dc919061345a565b611abc565b005b6102eb612050565b6040516102f891906132b5565b60405180910390f35b61031b600480360381019061031691906132d0565b612063565b60405161032c9594939291906134e5565b60405180910390f35b61034f600480360381019061034a9190613546565b6121e3565b005b61036b6004803603810190610366919061304c565b6123e0565b604051610378919061327f565b60405180910390f35b61039b6004803603810190610396919061345a565b61241f565b005b6103a5612820565b005b6103c160048036038101906103bc91906130e5565b612be2565b6040516103cf9291906135a2565b60405180910390f35b6103e0612c1c565b6040516103ed919061327f565b60405180910390f35b6060600060068054905067ffffffffffffffff81111561041957610418612e30565b5b60405190808252806020026020018201604052801561044c57816020015b60608152602001906001900390816104375790505b50905060005b600680549050811015610593576003600060068381548110610477576104766135cb565b5b9060005260206000200160009054906101000a900473ffffffffffffffffffffffffffffffffffffffff1673ffffffffffffffffffffffffffffffffffffffff1673ffffffffffffffffffffffffffffffffffffffff16815260200190815260200160002060000180546104ea90613629565b80601f016020809104026020016040519081016040528092919081815260200182805461051690613629565b80156105635780601f1061053857610100808354040283529160200191610563565b820191906000526020600020905b81548152906001019060200180831161054657829003601f168201915b505050505082828151811061057b5761057a6135cb565b5b60200260200101819052508080600101915050610452565b508091505090565b60008054906101000a900473ffffffffffffffffffffffffffffffffffffffff1673ffffffffffffffffffffffffffffffffffffffff163373ffffffffffffffffffffffffffffffffffffffff1614610629576040517f08c379a0000000000000000000000000000000000000000000000000000000008152600401610620906136cc565b60405180910390fd5b60026006805490501015610672576040517f08c379a00000000000000000000000000000000000000000000000000000000081526004016106699061375e565b60405180910390fd5b6001600960006101000a81548160ff0219169083151502179055506000600960016101000a81548160ff021916908315150217905550565b60008054906101000a900473ffffffffffffffffffffffffffffffffffffffff1673ffffffffffffffffffffffffffffffffffffffff163373ffffffffffffffffffffffffffffffffffffffff1614610738576040517f08c379a000000000000000000000000000000000000000000000000000000000815260040161072f906136cc565b60405180910390fd5b600060058260405161074a91906137ba565b9081526020016040518091039020600001541161079c576040517f08c379a00000000000000000000000000000000000000000000000000000000081526004016107939061381d565b60405180910390fd5b60008351116107e0576040517f08c379a00000000000000000000000000000000000000000000000000000000081526004016107d790613889565b60405180910390fd5b600073ffffffffffffffffffffffffffffffffffffffff16600360008673ffffffffffffffffffffffffffffffffffffffff1673ffffffffffffffffffffffffffffffffffffffff16815260200190815260200160002060010160009054906101000a900473ffffffffffffffffffffffffffffffffffffffff1673ffffffffffffffffffffffffffffffffffffffff16146108b1576040517f08c379a00000000000000000000000000000000000000000000000000000000081526004016108a8906138f5565b60405180910390fd5b6004826040516108c191906137ba565b908152602001604051809103902060009054906101000a900460ff161561091d576040517f08c379a000000000000000000000000000000000000000000000000000000000815260040161091490613961565b60405180910390fd5b6040518060a001604052808481526020018573ffffffffffffffffffffffffffffffffffffffff1681526020016000815260200182815260200183815250600360008673ffffffffffffffffffffffffffffffffffffffff1673ffffffffffffffffffffffffffffffffffffffff16815260200190815260200160002060008201518160000190816109af9190613b2d565b5060208201518160010160006101000a81548173ffffffffffffffffffffffffffffffffffffffff021916908373ffffffffffffffffffffffffffffffffffffffff160217905550604082015181600201556060820151816003019081610a169190613b2d565b506080820151816004019081610a2c9190613b2d565b509050506001600483604051610a4291906137ba565b908152602001604051809103902060006101000a81548160ff0219169083151502179055506006849080600181540180825580915050600190039060005260206000200160009091909190916101000a81548173ffffffffffffffffffffffffffffffffffffffff021916908373ffffffffffffffffffffffffffffffffffffffff1602179055507ed6fea68f71a20d8149f227f87e8cf7e6ad320b2dad4b45465b14599b80ee0984848484604051610afe9493929190613bff565b60405180910390a150505050565b60606007805480602002602001604051908101604052809291908181526020016000905b82821015610bdc578382906000526020600020018054610b4f90613629565b80601f0160208091040260200160405190810160405280929190818152602001828054610b7b90613629565b8015610bc85780601f10610b9d57610100808354040283529160200191610bc8565b820191906000526020600020905b815481529060010190602001808311610bab57829003601f168201915b505050505081526020019060010190610b30565b50505050905090565b60078181548110610bf557600080fd5b906000526020600020016000915090508054610c1090613629565b80601f0160208091040260200160405190810160405280929190818152602001828054610c3c90613629565b8015610c895780601f10610c5e57610100808354040283529160200191610c89565b820191906000526020600020905b815481529060010190602001808311610c6c57829003601f168201915b505050505081565b60006060600080600585604051610ca891906137ba565b90815260200160405180910390206000015411610cfa576040517f08c379a0000000000000000000000000000000000000000000000000000000008152600401610cf19061381d565b60405180910390fd5b600080606060005b6006805490508110156110475787604051602001610d2091906137ba565b604051602081830303815290604052805190602001206003600060068481548110610d4e57610d4d6135cb565b5b9060005260206000200160009054906101000a900473ffffffffffffffffffffffffffffffffffffffff1673ffffffffffffffffffffffffffffffffffffffff1673ffffffffffffffffffffffffffffffffffffffff168152602001908152602001600020600301604051602001610dc69190613cdc565b604051602081830303815290604052805190602001200361103a57826003600060068481548110610dfa57610df96135cb565b5b9060005260206000200160009054906101000a900473ffffffffffffffffffffffffffffffffffffffff1673ffffffffffffffffffffffffffffffffffffffff1673ffffffffffffffffffffffffffffffffffffffff168152602001908152602001600020600201541115611039576003600060068381548110610e8157610e806135cb565b5b9060005260206000200160009054906101000a900473ffffffffffffffffffffffffffffffffffffffff1673ffffffffffffffffffffffffffffffffffffffff1673ffffffffffffffffffffffffffffffffffffffff16815260200190815260200160002060020154925060068181548110610f0057610eff6135cb565b5b9060005260206000200160009054906101000a900473ffffffffffffffffffffffffffffffffffffffff1693506003600060068381548110610f4557610f446135cb565b5b9060005260206000200160009054906101000a900473ffffffffffffffffffffffffffffffffffffffff1673ffffffffffffffffffffffffffffffffffffffff1673ffffffffffffffffffffffffffffffffffffffff1681526020019081526020016000206000018054610fb890613629565b80601f0160208091040260200160405190810160405280929190818152602001828054610fe490613629565b80156110315780601f1061100657610100808354040283529160200191611031565b820191906000526020600020905b81548152906001019060200180831161101457829003601f168201915b505050505091505b5b8080600101915050610d02565b508281839550955095505050509193909250565b606080600060058460405161107091906137ba565b908152602001604051809103902060000154116110c2576040517f08c379a00000000000000000000000000000000000000000000000000000000081526004016110b99061381d565b60405180910390fd5b6000805b6006805490508110156111c157846040516020016110e491906137ba565b604051602081830303815290604052805190602001206003600060068481548110611112576111116135cb565b5b9060005260206000200160009054906101000a900473ffffffffffffffffffffffffffffffffffffffff1673ffffffffffffffffffffffffffffffffffffffff1673ffffffffffffffffffffffffffffffffffffffff16815260200190815260200160002060030160405160200161118a9190613cdc565b60405160208183030381529060405280519060200120036111b45781806111b090613d22565b9250505b80806001019150506110c6565b5060008167ffffffffffffffff8111156111de576111dd612e30565b5b60405190808252806020026020018201604052801561120c5781602001602082028036833780820191505090505b50905060008267ffffffffffffffff81111561122b5761122a612e30565b5b60405190808252806020026020018201604052801561125e57816020015b60608152602001906001900390816112495790505b5090506000805b600680549050811015611513578760405160200161128391906137ba565b6040516020818303038152906040528051906020012060036000600684815481106112b1576112b06135cb565b5b9060005260206000200160009054906101000a900473ffffffffffffffffffffffffffffffffffffffff1673ffffffffffffffffffffffffffffffffffffffff1673ffffffffffffffffffffffffffffffffffffffff1681526020019081526020016000206003016040516020016113299190613cdc565b60405160208183030381529060405280519060200120036115065760068181548110611358576113576135cb565b5b9060005260206000200160009054906101000a900473ffffffffffffffffffffffffffffffffffffffff16848381518110611396576113956135cb565b5b602002602001019073ffffffffffffffffffffffffffffffffffffffff16908173ffffffffffffffffffffffffffffffffffffffff168152505060036000600683815481106113e8576113e76135cb565b5b9060005260206000200160009054906101000a900473ffffffffffffffffffffffffffffffffffffffff1673ffffffffffffffffffffffffffffffffffffffff1673ffffffffffffffffffffffffffffffffffffffff168152602001908152602001600020600001805461145b90613629565b80601f016020809104026020016040519081016040528092919081815260200182805461148790613629565b80156114d45780601f106114a9576101008083540402835291602001916114d4565b820191906000526020600020905b8154815290600101906020018083116114b757829003601f168201915b50505050508383815181106114ec576114eb6135cb565b5b6020026020010181905250818061150290613d22565b9250505b8080600101915050611265565b5082829550955050505050915091565b6008818154811061153357600080fd5b906000526020600020016000915054906101000a900473ffffffffffffffffffffffffffffffffffffffff1681565b600960009054906101000a900460ff1681565b600360205280600052604060002060009150905080600001805461159890613629565b80601f01602080910402602001604051908101604052809291908181526020018280546115c490613629565b80156116115780601f106115e657610100808354040283529160200191611611565b820191906000526020600020905b8154815290600101906020018083116115f457829003601f168201915b5050505050908060010160009054906101000a900473ffffffffffffffffffffffffffffffffffffffff169080600201549080600301805461165290613629565b80601f016020809104026020016040519081016040528092919081815260200182805461167e90613629565b80156116cb5780601f106116a0576101008083540402835291602001916116cb565b820191906000526020600020905b8154815290600101906020018083116116ae57829003601f168201915b5050505050908060040180546116e090613629565b80601f016020809104026020016040519081016040528092919081815260200182805461170c90613629565b80156117595780601f1061172e57610100808354040283529160200191611759565b820191906000526020600020905b81548152906001019060200180831161173c57829003601f168201915b5050505050905085565b606080600060078054905067ffffffffffffffff81111561178757611786612e30565b5b6040519080825280602002602001820160405280156117ba57816020015b60608152602001906001900390816117a55790505b509050600060078054905067ffffffffffffffff8111156117de576117dd612e30565b5b60405190808252806020026020018201604052801561180c5781602001602082028036833780820191505090505b50905060005b600780549050811015611aaf5760008060078381548110611836576118356135cb565b5b90600052602060002001805461184b90613629565b80601f016020809104026020016040519081016040528092919081815260200182805461187790613629565b80156118c45780601f10611899576101008083540402835291602001916118c4565b820191906000526020600020905b8154815290600101906020018083116118a757829003601f168201915b5050505050905060005b600880549050811015611a605760016000600883815481106118f3576118f26135cb565b5b9060005260206000200160009054906101000a900473ffffffffffffffffffffffffffffffffffffffff1673ffffffffffffffffffffffffffffffffffffffff1673ffffffffffffffffffffffffffffffffffffffff16815260200190815260200160002060000160009054906101000a900460ff168015611a3f57508160405160200161198191906137ba565b6040516020818303038152906040528051906020012060016000600884815481106119af576119ae6135cb565b5b9060005260206000200160009054906101000a900473ffffffffffffffffffffffffffffffffffffffff1673ffffffffffffffffffffffffffffffffffffffff1673ffffffffffffffffffffffffffffffffffffffff168152602001908152602001600020600101604051602001611a279190613cdc565b60405160208183030381529060405280519060200120145b15611a53578280611a4f90613d22565b9350505b80806001019150506118ce565b5080858481518110611a7557611a746135cb565b5b602002602001018190525081848481518110611a9457611a936135cb565b5b60200260200101818152505050508080600101915050611812565b5081819350935050509091565b600960009054906101000a900460ff168015611ae55750600960019054906101000a900460ff16155b611b24576040517f08c379a0000000000000000000000000000000000000000000000000000000008152600401611b1b90613db6565b60405180910390fd5b6000600160003373ffffffffffffffffffffffffffffffffffffffff1673ffffffffffffffffffffffffffffffffffffffff16815260200190815260200160002090508060000160009054906101000a900460ff16611bb8576040517f08c379a0000000000000000000000000000000000000000000000000000000008152600401611baf90613e22565b60405180910390fd5b8060000160019054906101000a900460ff1615611c0a576040517f08c379a0000000000000000000000000000000000000000000000000000000008152600401611c0190613e8e565b60405180910390fd5b82604051602001611c1b91906137ba565b6040516020818303038152906040528051906020012081600201604051602001611c459190613cdc565b6040516020818303038152906040528051906020012014611c9b576040517f08c379a0000000000000000000000000000000000000000000000000000000008152600401611c9290613efa565b60405180910390fd5b81604051602001611cac91906137ba565b6040516020818303038152906040528051906020012081600101604051602001611cd69190613cdc565b6040516020818303038152906040528051906020012014611d2c576040517f08c379a0000000000000000000000000000000000000000000000000000000008152600401611d2390613f8c565b60405180910390fd5b600073ffffffffffffffffffffffffffffffffffffffff16600360008673ffffffffffffffffffffffffffffffffffffffff1673ffffffffffffffffffffffffffffffffffffffff16815260200190815260200160002060010160009054906101000a900473ffffffffffffffffffffffffffffffffffffffff1673ffffffffffffffffffffffffffffffffffffffff1603611dfd576040517f08c379a0000000000000000000000000000000000000000000000000000000008152600401611df490613ff8565b60405180910390fd5b81604051602001611e0e91906137ba565b60405160208183030381529060405280519060200120600360008673ffffffffffffffffffffffffffffffffffffffff1673ffffffffffffffffffffffffffffffffffffffff168152602001908152602001600020600301604051602001611e769190613cdc565b6040516020818303038152906040528051906020012014611ecc576040517f08c379a0000000000000000000000000000000000000000000000000000000008152600401611ec39061408a565b60405180910390fd5b6000600583604051611ede91906137ba565b908152602001604051809103902090508060000154816001015410611f38576040517f08c379a0000000000000000000000000000000000000000000000000000000008152600401611f2f9061411c565b60405180910390fd5b60018260000160016101000a81548160ff021916908315150217905550848260000160026101000a81548173ffffffffffffffffffffffffffffffffffffffff021916908373ffffffffffffffffffffffffffffffffffffffff1602179055506001600360008773ffffffffffffffffffffffffffffffffffffffff1673ffffffffffffffffffffffffffffffffffffffff1681526020019081526020016000206002016000828254611feb919061413c565b925050819055506001816001016000828254612007919061413c565b925050819055507f8d1cfb67c4b6ddfa4950ade9b8090e8da23fb82114fea7fd43c4cbbe2c2367b333868560405161204193929190614170565b60405180910390a15050505050565b600960019054906101000a900460ff1681565b60016020528060005260406000206000915090508060000160009054906101000a900460ff16908060000160019054906101000a900460ff16908060000160029054906101000a900473ffffffffffffffffffffffffffffffffffffffff16908060010180546120d290613629565b80601f01602080910402602001604051908101604052809291908181526020018280546120fe90613629565b801561214b5780601f106121205761010080835404028352916020019161214b565b820191906000526020600020905b81548152906001019060200180831161212e57829003601f168201915b50505050509080600201805461216090613629565b80601f016020809104026020016040519081016040528092919081815260200182805461218c90613629565b80156121d95780601f106121ae576101008083540402835291602001916121d9565b820191906000526020600020905b8154815290600101906020018083116121bc57829003601f168201915b5050505050905085565b60008054906101000a900473ffffffffffffffffffffffffffffffffffffffff1673ffffffffffffffffffffffffffffffffffffffff163373ffffffffffffffffffffffffffffffffffffffff1614612271576040517f08c379a0000000000000000000000000000000000000000000000000000000008152600401612268906136cc565b60405180910390fd5b60008251116122b5576040517f08c379a00000000000000000000000000000000000000000000000000000000081526004016122ac906141fa565b60405180910390fd5b600081116122f8576040517f08c379a00000000000000000000000000000000000000000000000000000000081526004016122ef9061428c565b60405180910390fd5b600060058360405161230a91906137ba565b9081526020016040518091039020600001541461235c576040517f08c379a0000000000000000000000000000000000000000000000000000000008152600401612353906142f8565b60405180910390fd5b6040518060400160405280828152602001600081525060058360405161238291906137ba565b908152602001604051809103902060008201518160000155602082015181600101559050506007829080600181540180825580915050600190039060005260206000200160009091909190915090816123db9190613b2d565b505050565b600681815481106123f057600080fd5b906000526020600020016000915054906101000a900473ffffffffffffffffffffffffffffffffffffffff1681565b60008054906101000a900473ffffffffffffffffffffffffffffffffffffffff1673ffffffffffffffffffffffffffffffffffffffff163373ffffffffffffffffffffffffffffffffffffffff16146124ad576040517f08c379a00000000000000000000000000000000000000000000000000000000081526004016124a4906136cc565b60405180910390fd5b60006005826040516124bf91906137ba565b90815260200160405180910390206000015411612511576040517f08c379a00000000000000000000000000000000000000000000000000000000081526004016125089061381d565b60405180910390fd5b600160008473ffffffffffffffffffffffffffffffffffffffff1673ffffffffffffffffffffffffffffffffffffffff16815260200190815260200160002060000160009054906101000a900460ff16156125a1576040517f08c379a000000000000000000000000000000000000000000000000000000000815260040161259890614364565b60405180910390fd5b6002826040516125b191906137ba565b908152602001604051809103902060009054906101000a900460ff161561260d576040517f08c379a000000000000000000000000000000000000000000000000000000000815260040161260490613961565b60405180910390fd5b6040518060a00160405280600115158152602001600015158152602001600073ffffffffffffffffffffffffffffffffffffffff16815260200182815260200183815250600160008573ffffffffffffffffffffffffffffffffffffffff1673ffffffffffffffffffffffffffffffffffffffff16815260200190815260200160002060008201518160000160006101000a81548160ff02191690831515021790555060208201518160000160016101000a81548160ff02191690831515021790555060408201518160000160026101000a81548173ffffffffffffffffffffffffffffffffffffffff021916908373ffffffffffffffffffffffffffffffffffffffff160217905550606082015181600101908161272c9190613b2d565b5060808201518160020190816127429190613b2d565b50905050600160028360405161275891906137ba565b908152602001604051809103902060006101000a81548160ff0219169083151502179055506008839080600181540180825580915050600190039060005260206000200160009091909190916101000a81548173ffffffffffffffffffffffffffffffffffffffff021916908373ffffffffffffffffffffffffffffffffffffffff1602179055507f96ac7a421360a2bd773d747b2f64b40a916821c4906dbfdebf787c292e741f7d83838360405161281393929190614384565b60405180910390a1505050565b60008054906101000a900473ffffffffffffffffffffffffffffffffffffffff1673ffffffffffffffffffffffffffffffffffffffff163373ffffffffffffffffffffffffffffffffffffffff16146128ae576040517f08c379a00000000000000000000000000000000000000000000000000000000081526004016128a5906136cc565b60405180910390fd5b600960009054906101000a900460ff1680156128d75750600960019054906101000a900460ff16155b612916576040517f08c379a000000000000000000000000000000000000000000000000000000000815260040161290d90613db6565b60405180910390fd5b6001600960016101000a81548160ff0219169083151502179055506000600960006101000a81548160ff02191690831515021790555060005b600780549050811015612bdf57600060078281548110612972576129716135cb565b5b90600052602060002001805461298790613629565b80601f01602080910402602001604051908101604052809291908181526020018280546129b390613629565b8015612a005780601f106129d557610100808354040283529160200191612a00565b820191906000526020600020905b8154815290600101906020018083116129e357829003601f168201915b5050505050905060008060005b600680549050811015612b9357600060068281548110612a3057612a2f6135cb565b5b9060005260206000200160009054906101000a900473ffffffffffffffffffffffffffffffffffffffff16905084604051602001612a6e91906137ba565b60405160208183030381529060405280519060200120600360008373ffffffffffffffffffffffffffffffffffffffff1673ffffffffffffffffffffffffffffffffffffffff168152602001908152602001600020600301604051602001612ad69190613cdc565b6040516020818303038152906040528051906020012003612b855782600360008373ffffffffffffffffffffffffffffffffffffffff1673ffffffffffffffffffffffffffffffffffffffff168152602001908152602001600020600201541115612b8457600360008273ffffffffffffffffffffffffffffffffffffffff1673ffffffffffffffffffffffffffffffffffffffff1681526020019081526020016000206002015492508093505b5b508080600101915050612a0d565b507f3b281afe48905f20862f01b6e1bc6eaf6079665f84380a6022228a68c38308f0828285604051612bc7939291906143c9565b60405180910390a1505050808060010191505061294f565b50565b6005818051602081018201805184825260208301602085012081835280955050505050506000915090508060000154908060010154905082565b60008054906101000a900473ffffffffffffffffffffffffffffffffffffffff1681565b600081519050919050565b600082825260208201905092915050565b6000819050602082019050919050565b600081519050919050565b600082825260208201905092915050565b60005b83811015612ca6578082015181840152602081019050612c8b565b60008484015250505050565b6000601f19601f8301169050919050565b6000612cce82612c6c565b612cd88185612c77565b9350612ce8818560208601612c88565b612cf181612cb2565b840191505092915050565b6000612d088383612cc3565b905092915050565b6000602082019050919050565b6000612d2882612c40565b612d328185612c4b565b935083602082028501612d4485612c5c565b8060005b85811015612d805784840389528151612d618582612cfc565b9450612d6c83612d10565b925060208a01995050600181019050612d48565b50829750879550505050505092915050565b60006020820190508181036000830152612dac8184612d1d565b905092915050565b6000604051905090565b600080fd5b600080fd5b600073ffffffffffffffffffffffffffffffffffffffff82169050919050565b6000612df382612dc8565b9050919050565b612e0381612de8565b8114612e0e57600080fd5b50565b600081359050612e2081612dfa565b92915050565b600080fd5b600080fd5b7f4e487b7100000000000000000000000000000000000000000000000000000000600052604160045260246000fd5b612e6882612cb2565b810181811067ffffffffffffffff82111715612e8757612e86612e30565b5b80604052505050565b6000612e9a612db4565b9050612ea68282612e5f565b919050565b600067ffffffffffffffff821115612ec657612ec5612e30565b5b612ecf82612cb2565b9050602081019050919050565b82818337600083830152505050565b6000612efe612ef984612eab565b612e90565b905082815260208101848484011115612f1a57612f19612e2b565b5b612f25848285612edc565b509392505050565b600082601f830112612f4257612f41612e26565b5b8135612f52848260208601612eeb565b91505092915050565b60008060008060808587031215612f7557612f74612dbe565b5b6000612f8387828801612e11565b945050602085013567ffffffffffffffff811115612fa457612fa3612dc3565b5b612fb087828801612f2d565b935050604085013567ffffffffffffffff811115612fd157612fd0612dc3565b5b612fdd87828801612f2d565b925050606085013567ffffffffffffffff811115612ffe57612ffd612dc3565b5b61300a87828801612f2d565b91505092959194509250565b6000819050919050565b61302981613016565b811461303457600080fd5b50565b60008135905061304681613020565b92915050565b60006020828403121561306257613061612dbe565b5b600061307084828501613037565b91505092915050565b600082825260208201905092915050565b600061309582612c6c565b61309f8185613079565b93506130af818560208601612c88565b6130b881612cb2565b840191505092915050565b600060208201905081810360008301526130dd818461308a565b905092915050565b6000602082840312156130fb576130fa612dbe565b5b600082013567ffffffffffffffff81111561311957613118612dc3565b5b61312584828501612f2d565b91505092915050565b61313781612de8565b82525050565b61314681613016565b82525050565b6000606082019050613161600083018661312e565b8181036020830152613173818561308a565b9050613182604083018461313d565b949350505050565b600081519050919050565b600082825260208201905092915050565b6000819050602082019050919050565b6131bf81612de8565b82525050565b60006131d183836131b6565b60208301905092915050565b6000602082019050919050565b60006131f58261318a565b6131ff8185613195565b935061320a836131a6565b8060005b8381101561323b57815161322288826131c5565b975061322d836131dd565b92505060018101905061320e565b5085935050505092915050565b6000604082019050818103600083015261326281856131ea565b905081810360208301526132768184612d1d565b90509392505050565b6000602082019050613294600083018461312e565b92915050565b60008115159050919050565b6132af8161329a565b82525050565b60006020820190506132ca60008301846132a6565b92915050565b6000602082840312156132e6576132e5612dbe565b5b60006132f484828501612e11565b91505092915050565b600060a0820190508181036000830152613317818861308a565b9050613326602083018761312e565b613333604083018661313d565b8181036060830152613345818561308a565b90508181036080830152613359818461308a565b90509695505050505050565b600081519050919050565b600082825260208201905092915050565b6000819050602082019050919050565b61339a81613016565b82525050565b60006133ac8383613391565b60208301905092915050565b6000602082019050919050565b60006133d082613365565b6133da8185613370565b93506133e583613381565b8060005b838110156134165781516133fd88826133a0565b9750613408836133b8565b9250506001810190506133e9565b5085935050505092915050565b6000604082019050818103600083015261343d8185612d1d565b9050818103602083015261345181846133c5565b90509392505050565b60008060006060848603121561347357613472612dbe565b5b600061348186828701612e11565b935050602084013567ffffffffffffffff8111156134a2576134a1612dc3565b5b6134ae86828701612f2d565b925050604084013567ffffffffffffffff8111156134cf576134ce612dc3565b5b6134db86828701612f2d565b9150509250925092565b600060a0820190506134fa60008301886132a6565b61350760208301876132a6565b613514604083018661312e565b8181036060830152613526818561308a565b9050818103608083015261353a818461308a565b90509695505050505050565b6000806040838503121561355d5761355c612dbe565b5b600083013567ffffffffffffffff81111561357b5761357a612dc3565b5b61358785828601612f2d565b925050602061359885828601613037565b9150509250929050565b60006040820190506135b7600083018561313d565b6135c4602083018461313d565b9392505050565b7f4e487b7100000000000000000000000000000000000000000000000000000000600052603260045260246000fd5b7f4e487b7100000000000000000000000000000000000000000000000000000000600052602260045260246000fd5b6000600282049050600182168061364157607f821691505b602082108103613654576136536135fa565b5b50919050565b7f4f6e6c792061646d696e2063616e20706572666f726d2074686973206163746960008201527f6f6e2e0000000000000000000000000000000000000000000000000000000000602082015250565b60006136b6602383613079565b91506136c18261365a565b604082019050919050565b600060208201905081810360008301526136e5816136a9565b9050919050565b7f4174206c656173742074776f2063616e6469646174657320726571756972656460008201527f2e00000000000000000000000000000000000000000000000000000000000000602082015250565b6000613748602183613079565b9150613753826136ec565b604082019050919050565b600060208201905081810360008301526137778161373b565b9050919050565b600081905092915050565b600061379482612c6c565b61379e818561377e565b93506137ae818560208601612c88565b80840191505092915050565b60006137c68284613789565b915081905092915050565b7f4172656120646f6573206e6f742065786973742e000000000000000000000000600082015250565b6000613807601483613079565b9150613812826137d1565b602082019050919050565b60006020820190508181036000830152613836816137fa565b9050919050565b7f43616e646964617465206e616d652063616e6e6f7420626520656d7074792e00600082015250565b6000613873601f83613079565b915061387e8261383d565b602082019050919050565b600060208201905081810360008301526138a281613866565b9050919050565b7f43616e64696461746520616c726561647920726567697374657265642e000000600082015250565b60006138df601d83613079565b91506138ea826138a9565b602082019050919050565b6000602082019050818103600083015261390e816138d2565b9050919050565b7f4e6174696f6e616c20494420616c726561647920726567697374657265642e00600082015250565b600061394b601f83613079565b915061395682613915565b602082019050919050565b6000602082019050818103600083015261397a8161393e565b9050919050565b60008190508160005260206000209050919050565b60006020601f8301049050919050565b600082821b905092915050565b6000600883026139e37fffffffffffffffffffffffffffffffffffffffffffffffffffffffffffffffff826139a6565b6139ed86836139a6565b95508019841693508086168417925050509392505050565b6000819050919050565b6000613a2a613a25613a2084613016565b613a05565b613016565b9050919050565b6000819050919050565b613a4483613a0f565b613a58613a5082613a31565b8484546139b3565b825550505050565b600090565b613a6d613a60565b613a78818484613a3b565b505050565b5b81811015613a9c57613a91600082613a65565b600181019050613a7e565b5050565b601f821115613ae157613ab281613981565b613abb84613996565b81016020851015613aca578190505b613ade613ad685613996565b830182613a7d565b50505b505050565b600082821c905092915050565b6000613b0460001984600802613ae6565b1980831691505092915050565b6000613b1d8383613af3565b9150826002028217905092915050565b613b3682612c6c565b67ffffffffffffffff811115613b4f57613b4e612e30565b5b613b598254613629565b613b64828285613aa0565b600060209050601f831160018114613b975760008415613b85578287015190505b613b8f8582613b11565b865550613bf7565b601f198416613ba586613981565b60005b82811015613bcd57848901518255600182019150602085019450602081019050613ba8565b86831015613bea5784890151613be6601f891682613af3565b8355505b6001600288020188555050505b505050505050565b6000608082019050613c14600083018761312e565b8181036020830152613c26818661308a565b90508181036040830152613c3a818561308a565b90508181036060830152613c4e818461308a565b905095945050505050565b60008154613c6681613629565b613c70818661377e565b94506001821660008114613c8b5760018114613ca057613cd3565b60ff1983168652811515820286019350613cd3565b613ca985613981565b60005b83811015613ccb57815481890152600182019150602081019050613cac565b838801955050505b50505092915050565b6000613ce88284613c59565b915081905092915050565b7f4e487b7100000000000000000000000000000000000000000000000000000000600052601160045260246000fd5b6000613d2d82613016565b91507fffffffffffffffffffffffffffffffffffffffffffffffffffffffffffffffff8203613d5f57613d5e613cf3565b5b600182019050919050565b7f566f74696e67206973206e6f74206163746976652e0000000000000000000000600082015250565b6000613da0601583613079565b9150613dab82613d6a565b602082019050919050565b60006020820190508181036000830152613dcf81613d93565b9050919050565b7f596f7520617265206e6f74207265676973746572656420746f20766f74652e00600082015250565b6000613e0c601f83613079565b9150613e1782613dd6565b602082019050919050565b60006020820190508181036000830152613e3b81613dff565b9050919050565b7f596f75206861766520616c726561647920766f7465642e000000000000000000600082015250565b6000613e78601783613079565b9150613e8382613e42565b602082019050919050565b60006020820190508181036000830152613ea781613e6b565b9050919050565b7f4e6174696f6e616c20494420646f6573206e6f74206d617463682e0000000000600082015250565b6000613ee4601b83613079565b9150613eef82613eae565b602082019050919050565b60006020820190508181036000830152613f1381613ed7565b9050919050565b7f4172656120646f6573206e6f74206d617463682074686520766f74657227732060008201527f7265676973746572656420617265612e00000000000000000000000000000000602082015250565b6000613f76603083613079565b9150613f8182613f1a565b604082019050919050565b60006020820190508181036000830152613fa581613f69565b9050919050565b7f496e76616c69642063616e6469646174652e0000000000000000000000000000600082015250565b6000613fe2601283613079565b9150613fed82613fac565b602082019050919050565b6000602082019050818103600083015261401181613fd5565b9050919050565b7f43616e64696461746520616e6420766f746572206d75737420626520696e207460008201527f68652073616d6520617265612e00000000000000000000000000000000000000602082015250565b6000614074602d83613079565b915061407f82614018565b604082019050919050565b600060208201905081810360008301526140a381614067565b9050919050565b7f566f74696e67206c696d697420666f722074686973206172656120686173206260008201527f65656e20726561636865642e0000000000000000000000000000000000000000602082015250565b6000614106602c83613079565b9150614111826140aa565b604082019050919050565b60006020820190508181036000830152614135816140f9565b9050919050565b600061414782613016565b915061415283613016565b925082820190508082111561416a57614169613cf3565b5b92915050565b6000606082019050614185600083018661312e565b614192602083018561312e565b81810360408301526141a4818461308a565b9050949350505050565b7f41726561206e616d652063616e6e6f7420626520656d7074792e000000000000600082015250565b60006141e4601a83613079565b91506141ef826141ae565b602082019050919050565b60006020820190508181036000830152614213816141d7565b9050919050565b7f41726561206d7573742068617665207265676973746572656420766f7465727360008201527f2e00000000000000000000000000000000000000000000000000000000000000602082015250565b6000614276602183613079565b91506142818261421a565b604082019050919050565b600060208201905081810360008301526142a581614269565b9050919050565b7f4172656120616c7265616479206578697374732e000000000000000000000000600082015250565b60006142e2601483613079565b91506142ed826142ac565b602082019050919050565b60006020820190508181036000830152614311816142d5565b9050919050565b7f566f74657220616c726561647920726567697374657265642e00000000000000600082015250565b600061434e601983613079565b915061435982614318565b602082019050919050565b6000602082019050818103600083015261437d81614341565b9050919050565b6000606082019050614399600083018661312e565b81810360208301526143ab818561308a565b905081810360408301526143bf818461308a565b9050949350505050565b60006060820190506143de600083018661312e565b6143eb602083018561313d565b81810360408301526143fd818461308a565b905094935050505056fea264697066735822122073c7f3945455bcb2dc09150df9c17d1316a88108d0be90ce1f6de40e9f32686b64736f6c634300081c0033",
  "linkReferences": {},
  "deployedLinkReferences": {}
}