{
  "_format": "hh-sol-artifact-1",
  "contractName": "VotingSystem",
  "sourceName": "contracts/VotingSystem.sol",
  "abi": [
    {
      "inputs": [],
      "stateMutability": "nonpayable",
      "type": "constructor"
    },
    {
      "anonymous": false,
      "inputs": [
        {
          "indexed": false,
          "internalType": "address",
          "name": "candidate",
          "type": "address"
        },
        {
          "indexed": false,
          "internalType": "string",
          "name": "name",
          "type": "string"
        },
        {
          "indexed": false,
          "internalType": "string",
          "name": "nationalID",
          "type": "string"
        },
        {
          "indexed": false,
          "internalType": "string",
          "name": "area",
          "type": "string"
        }
      ],
      "name": "CandidateRegistered",
      "type": "event"
    },
    {
      "anonymous": false,
      "inputs": [
        {
          "indexed": false,
          "internalType": "address",
          "name": "voter",
          "type": "address"
        },
        {
          "indexed": false,
          "internalType": "address",
          "name": "candidate",
          "type": "address"
        },
        {
          "indexed": false,
          "internalType": "string",
          "name": "area",
          "type": "string"
        }
      ],
      "name": "VoteCasted",
      "type": "event"
    },
    {
      "anonymous": false,
      "inputs": [
        {
          "indexed": false,
          "internalType": "address",
          "name": "voter",
          "type": "address"
        },
        {
          "indexed": false,
          "internalType": "string",
          "name": "nationalID",
          "type": "string"
        },
        {
          "indexed": false,
          "internalType": "string",
          "name": "area",
          "type": "string"
        }
      ],
      "name": "VoterRegistered",
      "type": "event"
    },
    {
      "anonymous": false,
      "inputs": [
        {
          "indexed": false,
          "internalType": "address",
          "name": "winner",
          "type": "address"
        },
        {
          "indexed": false,
          "internalType": "uint256",
          "name": "voteCount",
          "type": "uint256"
        },
        {
          "indexed": false,
          "internalType": "string",
          "name": "area",
          "type": "string"
        }
      ],
      "name": "VotingEnded",
      "type": "event"
    },
    {
      "anonymous": false,
      "inputs": [],
      "name": "VotingSystemReset",
      "type": "event"
    },
    {
      "inputs": [
        {
          "internalType": "string",
          "name": "_areaName",
          "type": "string"
        },
        {
          "internalType": "uint256",
          "name": "_maxVoters",
          "type": "uint256"
        }
      ],
      "name": "addArea",
      "outputs": [],
      "stateMutability": "nonpayable",
      "type": "function"
    },
    {
      "inputs": [],
      "name": "admin",
      "outputs": [
        {
          "internalType": "address",
          "name": "",
          "type": "address"
        }
      ],
      "stateMutability": "view",
      "type": "function"
    },
    {
      "inputs": [
        {
          "internalType": "uint256",
          "name": "",
          "type": "uint256"
        }
      ],
      "name": "areaList",
      "outputs": [
        {
          "internalType": "string",
          "name": "",
          "type": "string"
        }
      ],
      "stateMutability": "view",
      "type": "function"
    },
    {
      "inputs": [
        {
          "internalType": "string",
          "name": "",
          "type": "string"
        }
      ],
      "name": "areas",
      "outputs": [
        {
          "internalType": "uint256",
          "name": "maxVoters",
          "type": "uint256"
        },
        {
          "internalType": "uint256",
          "name": "currentVotes",
          "type": "uint256"
        }
      ],
      "stateMutability": "view",
      "type": "function"
    },
    {
      "inputs": [
        {
          "internalType": "uint256",
          "name": "",
          "type": "uint256"
        }
      ],
      "name": "candidateList",
      "outputs": [
        {
          "internalType": "address",
          "name": "",
          "type": "address"
        }
      ],
      "stateMutability": "view",
      "type": "function"
    },
    {
      "inputs": [
        {
          "internalType": "address",
          "name": "",
          "type": "address"
        }
      ],
      "name": "candidates",
      "outputs": [
        {
          "internalType": "string",
          "name": "name",
          "type": "string"
        },
        {
          "internalType": "address",
          "name": "candidateAddress",
          "type": "address"
        },
        {
          "internalType": "uint256",
          "name": "voteCount",
          "type": "uint256"
        },
        {
          "internalType": "string",
          "name": "area",
          "type": "string"
        },
        {
          "internalType": "string",
          "name": "nationalID",
          "type": "string"
        }
      ],
      "stateMutability": "view",
      "type": "function"
    },
    {
      "inputs": [],
      "name": "endVoting",
      "outputs": [],
      "stateMutability": "nonpayable",
      "type": "function"
    },
    {
      "inputs": [],
      "name": "getAreas",
      "outputs": [
        {
          "internalType": "string[]",
          "name": "",
          "type": "string[]"
        }
      ],
      "stateMutability": "view",
      "type": "function"
    },
    {
      "inputs": [],
      "name": "getCandidates",
      "outputs": [
        {
          "internalType": "string[]",
          "name": "",
          "type": "string[]"
        }
      ],
      "stateMutability": "view",
      "type": "function"
    },
    {
      "inputs": [
        {
          "internalType": "string",
          "name": "_areaName",
          "type": "string"
        }
      ],
      "name": "getCandidatesByArea",
      "outputs": [
        {
          "internalType": "address[]",
          "name": "",
          "type": "address[]"
        },
        {
          "internalType": "string[]",
          "name": "",
          "type": "string[]"
        }
      ],
      "stateMutability": "view",
      "type": "function"
    },
    {
      "inputs": [],
      "name": "getTotalValidVotersByAllAreas",
      "outputs": [
        {
          "internalType": "string[]",
          "name": "",
          "type": "string[]"
        },
        {
          "internalType": "uint256[]",
          "name": "",
          "type": "uint256[]"
        }
      ],
      "stateMutability": "view",
      "type": "function"
    },
    {
      "inputs": [
        {
          "internalType": "string",
          "name": "_areaName",
          "type": "string"
        }
      ],
      "name": "getWinnerByArea",
      "outputs": [
        {
          "internalType": "address",
          "name": "",
          "type": "address"
        },
        {
          "internalType": "string",
          "name": "",
          "type": "string"
        },
        {
          "internalType": "uint256",
          "name": "",
          "type": "uint256"
        }
      ],
      "stateMutability": "view",
      "type": "function"
    },
    {
      "inputs": [
        {
          "internalType": "address",
          "name": "_candidate",
          "type": "address"
        },
        {
          "internalType": "string",
          "name": "_name",
          "type": "string"
        },
        {
          "internalType": "string",
          "name": "_nationalID",
          "type": "string"
        },
        {
          "internalType": "string",
          "name": "_areaName",
          "type": "string"
        }
      ],
      "name": "registerCandidate",
      "outputs": [],
      "stateMutability": "nonpayable",
      "type": "function"
    },
    {
      "inputs": [
        {
          "internalType": "address",
          "name": "_voter",
          "type": "address"
        },
        {
          "internalType": "string",
          "name": "_nationalID",
          "type": "string"
        },
        {
          "internalType": "string",
          "name": "_areaName",
          "type": "string"
        }
      ],
      "name": "registerVoter",
      "outputs": [],
      "stateMutability": "nonpayable",
      "type": "function"
    },
    {
      "inputs": [],
      "name": "resetVotingSystem",
      "outputs": [],
      "stateMutability": "nonpayable",
      "type": "function"
    },
    {
      "inputs": [],
      "name": "startVoting",
      "outputs": [],
      "stateMutability": "nonpayable",
      "type": "function"
    },
    {
      "inputs": [
        {
          "internalType": "string",
          "name": "_candidateName",
          "type": "string"
        },
        {
          "internalType": "string",
          "name": "_nationalID",
          "type": "string"
        },
        {
          "internalType": "string",
          "name": "_area",
          "type": "string"
        }
      ],
      "name": "vote",
      "outputs": [],
      "stateMutability": "nonpayable",
      "type": "function"
    },
    {
      "inputs": [
        {
          "internalType": "uint256",
          "name": "",
          "type": "uint256"
        }
      ],
      "name": "voterList",
      "outputs": [
        {
          "internalType": "address",
          "name": "",
          "type": "address"
        }
      ],
      "stateMutability": "view",
      "type": "function"
    },
    {
      "inputs": [
        {
          "internalType": "address",
          "name": "",
          "type": "address"
        }
      ],
      "name": "voters",
      "outputs": [
        {
          "internalType": "bool",
          "name": "isRegistered",
          "type": "bool"
        },
        {
          "internalType": "bool",
          "name": "hasVoted",
          "type": "bool"
        },
        {
          "internalType": "address",
          "name": "votedCandidate",
          "type": "address"
        },
        {
          "internalType": "string",
          "name": "area",
          "type": "string"
        },
        {
          "internalType": "string",
          "name": "nationalID",
          "type": "string"
        }
      ],
      "stateMutability": "view",
      "type": "function"
    },
    {
      "inputs": [],
      "name": "votingEnded",
      "outputs": [
        {
          "internalType": "bool",
          "name": "",
          "type": "bool"
        }
      ],
      "stateMutability": "view",
      "type": "function"
    },
    {
      "inputs": [],
      "name": "votingStarted",
      "outputs": [
        {
          "internalType": "bool",
          "name": "",
          "type": "bool"
        }
      ],
      "stateMutability": "view",
      "type": "function"
    }
  ],
  "bytecode": "0x6080604052348015600f57600080fd5b50336000806101000a81548173ffffffffffffffffffffffffffffffffffffffff021916908373ffffffffffffffffffffffffffffffffffffffff160217905550614a2c8061005f6000396000f3fe608060405234801561001057600080fd5b50600436106101375760003560e01c80638ab66a90116100b8578063ac6ba3c31161007c578063ac6ba3c31461034a578063b13c744b14610366578063bb8fab8e14610396578063c3403ddf146103b2578063d4a7de3e146103bc578063f851a440146103ed57610137565b80638ab66a90146102895780638dfba9ac146102bd57806395f59fe1146102dc5780639d5a0529146102f8578063a3ec138d1461031657610137565b80633e46d279116100ff5780633e46d279146101a8578063432dea47146101d8578063438aabdc1461020a57806350e2e8af1461023b57806383d948b71461026b57610137565b806303b2b7f01461013c57806306a49fce146101465780631ec6b60a1461016457806321b3f5281461016e5780632ea3981a1461018a575b600080fd5b61014461040b565b005b61014e6107ea565b60405161015b91906132da565b60405180910390f35b61016c61098f565b005b610188600480360381019061018391906134a3565b610a9e565b005b610192610f00565b60405161019f91906132da565b60405180910390f35b6101c260048036038101906101bd9190613594565b610fd9565b6040516101cf919061360b565b60405180910390f35b6101f260048036038101906101ed919061362d565b611085565b60405161020193929190613694565b60405180910390f35b610224600480360381019061021f919061362d565b61144f565b604051610232929190613790565b60405180910390f35b61025560048036038101906102509190613594565b611917565b60405161026291906137c7565b60405180910390f35b610273611956565b60405161028091906137fd565b60405180910390f35b6102a3600480360381019061029e9190613818565b611969565b6040516102b4959493929190613845565b60405180910390f35b6102c5611b57565b6040516102d392919061396b565b60405180910390f35b6102f660048036038101906102f191906139a2565b611eb0565b005b61030061251a565b60405161030d91906137fd565b60405180910390f35b610330600480360381019061032b9190613818565b61252d565b604051610341959493929190613a49565b60405180910390f35b610364600480360381019061035f9190613aaa565b6126ad565b005b610380600480360381019061037b9190613594565b6128aa565b60405161038d91906137c7565b60405180910390f35b6103b060048036038101906103ab9190613b06565b6128e9565b005b6103ba612cea565b005b6103d660048036038101906103d1919061362d565b6130ac565b6040516103e4929190613b91565b60405180910390f35b6103f56130e6565b60405161040291906137c7565b60405180910390f35b60008054906101000a900473ffffffffffffffffffffffffffffffffffffffff1673ffffffffffffffffffffffffffffffffffffffff163373ffffffffffffffffffffffffffffffffffffffff1614610499576040517f08c379a000000000000000000000000000000000000000000000000000000000815260040161049090613c2c565b60405180910390fd5b60005b6008805490508110156105ab576000600882815481106104bf576104be613c4c565b5b9060005260206000200160009054906101000a900473ffffffffffffffffffffffffffffffffffffffff169050600160008273ffffffffffffffffffffffffffffffffffffffff1673ffffffffffffffffffffffffffffffffffffffff168152602001908152602001600020600080820160006101000a81549060ff02191690556000820160016101000a81549060ff02191690556000820160026101000a81549073ffffffffffffffffffffffffffffffffffffffff021916905560018201600061058b919061310a565b60028201600061059b919061310a565b505050808060010191505061049c565b5060005b6006805490508110156106ae576000600682815481106105d2576105d1613c4c565b5b9060005260206000200160009054906101000a900473ffffffffffffffffffffffffffffffffffffffff169050600360008273ffffffffffffffffffffffffffffffffffffffff1673ffffffffffffffffffffffffffffffffffffffff1681526020019081526020016000206000808201600061064f919061310a565b6001820160006101000a81549073ffffffffffffffffffffffffffffffffffffffff0219169055600282016000905560038201600061068e919061310a565b60048201600061069e919061310a565b50505080806001019150506105af565b5060005b60078054905081101561079f576000600782815481106106d5576106d4613c4c565b5b9060005260206000200180546106ea90613caa565b80601f016020809104026020016040519081016040528092919081815260200182805461071690613caa565b80156107635780601f1061073857610100808354040283529160200191610763565b820191906000526020600020905b81548152906001019060200180831161074657829003601f168201915b50505050509050600060058260405161077c9190613d17565b9081526020016040518091039020600101819055505080806001019150506106b2565b50600860006107ae919061314a565b600660006107bc919061314a565b7f0bf08627280db28f838829bac111b71826df049e015888aaa3d0429d21b897b760405160405180910390a1565b6060600060068054905067ffffffffffffffff81111561080d5761080c613378565b5b60405190808252806020026020018201604052801561084057816020015b606081526020019060019003908161082b5790505b50905060005b60068054905081101561098757600360006006838154811061086b5761086a613c4c565b5b9060005260206000200160009054906101000a900473ffffffffffffffffffffffffffffffffffffffff1673ffffffffffffffffffffffffffffffffffffffff1673ffffffffffffffffffffffffffffffffffffffff16815260200190815260200160002060000180546108de90613caa565b80601f016020809104026020016040519081016040528092919081815260200182805461090a90613caa565b80156109575780601f1061092c57610100808354040283529160200191610957565b820191906000526020600020905b81548152906001019060200180831161093a57829003601f168201915b505050505082828151811061096f5761096e613c4c565b5b60200260200101819052508080600101915050610846565b508091505090565b60008054906101000a900473ffffffffffffffffffffffffffffffffffffffff1673ffffffffffffffffffffffffffffffffffffffff163373ffffffffffffffffffffffffffffffffffffffff1614610a1d576040517f08c379a0000000000000000000000000000000000000000000000000000000008152600401610a1490613c2c565b60405180910390fd5b60026006805490501015610a66576040517f08c379a0000000000000000000000000000000000000000000000000000000008152600401610a5d90613da0565b60405180910390fd5b6001600960006101000a81548160ff0219169083151502179055506000600960016101000a81548160ff021916908315150217905550565b60008054906101000a900473ffffffffffffffffffffffffffffffffffffffff1673ffffffffffffffffffffffffffffffffffffffff163373ffffffffffffffffffffffffffffffffffffffff1614610b2c576040517f08c379a0000000000000000000000000000000000000000000000000000000008152600401610b2390613c2c565b60405180910390fd5b6000600582604051610b3e9190613d17565b90815260200160405180910390206000015411610b90576040517f08c379a0000000000000000000000000000000000000000000000000000000008152600401610b8790613e0c565b60405180910390fd5b6000835111610bd4576040517f08c379a0000000000000000000000000000000000000000000000000000000008152600401610bcb90613e78565b60405180910390fd5b600073ffffffffffffffffffffffffffffffffffffffff16600360008673ffffffffffffffffffffffffffffffffffffffff1673ffffffffffffffffffffffffffffffffffffffff16815260200190815260200160002060010160009054906101000a900473ffffffffffffffffffffffffffffffffffffffff1673ffffffffffffffffffffffffffffffffffffffff1614610ca5576040517f08c379a0000000000000000000000000000000000000000000000000000000008152600401610c9c90613ee4565b60405180910390fd5b600482604051610cb59190613d17565b908152602001604051809103902060009054906101000a900460ff1615610d11576040517f08c379a0000000000000000000000000000000000000000000000000000000008152600401610d0890613f50565b60405180910390fd5b6040518060a001604052808481526020018573ffffffffffffffffffffffffffffffffffffffff1681526020016000815260200182815260200183815250600360008673ffffffffffffffffffffffffffffffffffffffff1673ffffffffffffffffffffffffffffffffffffffff1681526020019081526020016000206000820151816000019081610da3919061411c565b5060208201518160010160006101000a81548173ffffffffffffffffffffffffffffffffffffffff021916908373ffffffffffffffffffffffffffffffffffffffff160217905550604082015181600201556060820151816003019081610e0a919061411c565b506080820151816004019081610e20919061411c565b509050506001600483604051610e369190613d17565b908152602001604051809103902060006101000a81548160ff0219169083151502179055506006849080600181540180825580915050600190039060005260206000200160009091909190916101000a81548173ffffffffffffffffffffffffffffffffffffffff021916908373ffffffffffffffffffffffffffffffffffffffff1602179055507ed6fea68f71a20d8149f227f87e8cf7e6ad320b2dad4b45465b14599b80ee0984848484604051610ef294939291906141ee565b60405180910390a150505050565b60606007805480602002602001604051908101604052809291908181526020016000905b82821015610fd0578382906000526020600020018054610f4390613caa565b80601f0160208091040260200160405190810160405280929190818152602001828054610f6f90613caa565b8015610fbc5780601f10610f9157610100808354040283529160200191610fbc565b820191906000526020600020905b815481529060010190602001808311610f9f57829003601f168201915b505050505081526020019060010190610f24565b50505050905090565b60078181548110610fe957600080fd5b90600052602060002001600091509050805461100490613caa565b80601f016020809104026020016040519081016040528092919081815260200182805461103090613caa565b801561107d5780601f106110525761010080835404028352916020019161107d565b820191906000526020600020905b81548152906001019060200180831161106057829003601f168201915b505050505081565b6000606060008060058560405161109c9190613d17565b908152602001604051809103902060000154116110ee576040517f08c379a00000000000000000000000000000000000000000000000000000000081526004016110e590613e0c565b60405180910390fd5b600080606060005b60068054905081101561143b57876040516020016111149190613d17565b60405160208183030381529060405280519060200120600360006006848154811061114257611141613c4c565b5b9060005260206000200160009054906101000a900473ffffffffffffffffffffffffffffffffffffffff1673ffffffffffffffffffffffffffffffffffffffff1673ffffffffffffffffffffffffffffffffffffffff1681526020019081526020016000206003016040516020016111ba91906142cb565b604051602081830303815290604052805190602001200361142e578260036000600684815481106111ee576111ed613c4c565b5b9060005260206000200160009054906101000a900473ffffffffffffffffffffffffffffffffffffffff1673ffffffffffffffffffffffffffffffffffffffff1673ffffffffffffffffffffffffffffffffffffffff16815260200190815260200160002060020154111561142d57600360006006838154811061127557611274613c4c565b5b9060005260206000200160009054906101000a900473ffffffffffffffffffffffffffffffffffffffff1673ffffffffffffffffffffffffffffffffffffffff1673ffffffffffffffffffffffffffffffffffffffff168152602001908152602001600020600201549250600681815481106112f4576112f3613c4c565b5b9060005260206000200160009054906101000a900473ffffffffffffffffffffffffffffffffffffffff169350600360006006838154811061133957611338613c4c565b5b9060005260206000200160009054906101000a900473ffffffffffffffffffffffffffffffffffffffff1673ffffffffffffffffffffffffffffffffffffffff1673ffffffffffffffffffffffffffffffffffffffff16815260200190815260200160002060000180546113ac90613caa565b80601f01602080910402602001604051908101604052809291908181526020018280546113d890613caa565b80156114255780601f106113fa57610100808354040283529160200191611425565b820191906000526020600020905b81548152906001019060200180831161140857829003601f168201915b505050505091505b5b80806001019150506110f6565b508281839550955095505050509193909250565b60608060006005846040516114649190613d17565b908152602001604051809103902060000154116114b6576040517f08c379a00000000000000000000000000000000000000000000000000000000081526004016114ad90613e0c565b60405180910390fd5b6000805b6006805490508110156115b557846040516020016114d89190613d17565b60405160208183030381529060405280519060200120600360006006848154811061150657611505613c4c565b5b9060005260206000200160009054906101000a900473ffffffffffffffffffffffffffffffffffffffff1673ffffffffffffffffffffffffffffffffffffffff1673ffffffffffffffffffffffffffffffffffffffff16815260200190815260200160002060030160405160200161157e91906142cb565b60405160208183030381529060405280519060200120036115a85781806115a490614311565b9250505b80806001019150506114ba565b5060008167ffffffffffffffff8111156115d2576115d1613378565b5b6040519080825280602002602001820160405280156116005781602001602082028036833780820191505090505b50905060008267ffffffffffffffff81111561161f5761161e613378565b5b60405190808252806020026020018201604052801561165257816020015b606081526020019060019003908161163d5790505b5090506000805b60068054905081101561190757876040516020016116779190613d17565b6040516020818303038152906040528051906020012060036000600684815481106116a5576116a4613c4c565b5b9060005260206000200160009054906101000a900473ffffffffffffffffffffffffffffffffffffffff1673ffffffffffffffffffffffffffffffffffffffff1673ffffffffffffffffffffffffffffffffffffffff16815260200190815260200160002060030160405160200161171d91906142cb565b60405160208183030381529060405280519060200120036118fa576006818154811061174c5761174b613c4c565b5b9060005260206000200160009054906101000a900473ffffffffffffffffffffffffffffffffffffffff1684838151811061178a57611789613c4c565b5b602002602001019073ffffffffffffffffffffffffffffffffffffffff16908173ffffffffffffffffffffffffffffffffffffffff168152505060036000600683815481106117dc576117db613c4c565b5b9060005260206000200160009054906101000a900473ffffffffffffffffffffffffffffffffffffffff1673ffffffffffffffffffffffffffffffffffffffff1673ffffffffffffffffffffffffffffffffffffffff168152602001908152602001600020600001805461184f90613caa565b80601f016020809104026020016040519081016040528092919081815260200182805461187b90613caa565b80156118c85780601f1061189d576101008083540402835291602001916118c8565b820191906000526020600020905b8154815290600101906020018083116118ab57829003601f168201915b50505050508383815181106118e0576118df613c4c565b5b602002602001018190525081806118f690614311565b9250505b8080600101915050611659565b5082829550955050505050915091565b6008818154811061192757600080fd5b906000526020600020016000915054906101000a900473ffffffffffffffffffffffffffffffffffffffff1681565b600960009054906101000a900460ff1681565b600360205280600052604060002060009150905080600001805461198c90613caa565b80601f01602080910402602001604051908101604052809291908181526020018280546119b890613caa565b8015611a055780601f106119da57610100808354040283529160200191611a05565b820191906000526020600020905b8154815290600101906020018083116119e857829003601f168201915b5050505050908060010160009054906101000a900473ffffffffffffffffffffffffffffffffffffffff1690806002015490806003018054611a4690613caa565b80601f0160208091040260200160405190810160405280929190818152602001828054611a7290613caa565b8015611abf5780601f10611a9457610100808354040283529160200191611abf565b820191906000526020600020905b815481529060010190602001808311611aa257829003601f168201915b505050505090806004018054611ad490613caa565b80601f0160208091040260200160405190810160405280929190818152602001828054611b0090613caa565b8015611b4d5780601f10611b2257610100808354040283529160200191611b4d565b820191906000526020600020905b815481529060010190602001808311611b3057829003601f168201915b5050505050905085565b606080600060078054905067ffffffffffffffff811115611b7b57611b7a613378565b5b604051908082528060200260200182016040528015611bae57816020015b6060815260200190600190039081611b995790505b509050600060078054905067ffffffffffffffff811115611bd257611bd1613378565b5b604051908082528060200260200182016040528015611c005781602001602082028036833780820191505090505b50905060005b600780549050811015611ea35760008060078381548110611c2a57611c29613c4c565b5b906000526020600020018054611c3f90613caa565b80601f0160208091040260200160405190810160405280929190818152602001828054611c6b90613caa565b8015611cb85780601f10611c8d57610100808354040283529160200191611cb8565b820191906000526020600020905b815481529060010190602001808311611c9b57829003601f168201915b5050505050905060005b600880549050811015611e54576001600060088381548110611ce757611ce6613c4c565b5b9060005260206000200160009054906101000a900473ffffffffffffffffffffffffffffffffffffffff1673ffffffffffffffffffffffffffffffffffffffff1673ffffffffffffffffffffffffffffffffffffffff16815260200190815260200160002060000160009054906101000a900460ff168015611e33575081604051602001611d759190613d17565b604051602081830303815290604052805190602001206001600060088481548110611da357611da2613c4c565b5b9060005260206000200160009054906101000a900473ffffffffffffffffffffffffffffffffffffffff1673ffffffffffffffffffffffffffffffffffffffff1673ffffffffffffffffffffffffffffffffffffffff168152602001908152602001600020600101604051602001611e1b91906142cb565b60405160208183030381529060405280519060200120145b15611e47578280611e4390614311565b9350505b8080600101915050611cc2565b5080858481518110611e6957611e68613c4c565b5b602002602001018190525081848481518110611e8857611e87613c4c565b5b60200260200101818152505050508080600101915050611c06565b5081819350935050509091565b600960009054906101000a900460ff168015611ed95750600960019054906101000a900460ff16155b611f18576040517f08c379a0000000000000000000000000000000000000000000000000000000008152600401611f0f906143a5565b60405180910390fd5b6000600160003373ffffffffffffffffffffffffffffffffffffffff1673ffffffffffffffffffffffffffffffffffffffff16815260200190815260200160002090508060000160009054906101000a900460ff16611fac576040517f08c379a0000000000000000000000000000000000000000000000000000000008152600401611fa390614411565b60405180910390fd5b8060000160019054906101000a900460ff1615611ffe576040517f08c379a0000000000000000000000000000000000000000000000000000000008152600401611ff59061447d565b60405180910390fd5b8260405160200161200f9190613d17565b604051602081830303815290604052805190602001208160020160405160200161203991906142cb565b604051602081830303815290604052805190602001201461208f576040517f08c379a0000000000000000000000000000000000000000000000000000000008152600401612086906144e9565b60405180910390fd5b816040516020016120a09190613d17565b60405160208183030381529060405280519060200120816001016040516020016120ca91906142cb565b6040516020818303038152906040528051906020012014612120576040517f08c379a00000000000000000000000000000000000000000000000000000000081526004016121179061457b565b60405180910390fd5b6000805b60068054905081101561225657856040516020016121429190613d17565b6040516020818303038152906040528051906020012060036000600684815481106121705761216f613c4c565b5b9060005260206000200160009054906101000a900473ffffffffffffffffffffffffffffffffffffffff1673ffffffffffffffffffffffffffffffffffffffff1673ffffffffffffffffffffffffffffffffffffffff1681526020019081526020016000206000016040516020016121e891906142cb565b6040516020818303038152906040528051906020012003612249576006818154811061221757612216613c4c565b5b9060005260206000200160009054906101000a900473ffffffffffffffffffffffffffffffffffffffff169150612256565b8080600101915050612124565b50600073ffffffffffffffffffffffffffffffffffffffff168173ffffffffffffffffffffffffffffffffffffffff16036122c6576040517f08c379a00000000000000000000000000000000000000000000000000000000081526004016122bd906145e7565b60405180910390fd5b826040516020016122d79190613d17565b60405160208183030381529060405280519060200120600360008373ffffffffffffffffffffffffffffffffffffffff1673ffffffffffffffffffffffffffffffffffffffff16815260200190815260200160002060030160405160200161233f91906142cb565b6040516020818303038152906040528051906020012014612395576040517f08c379a000000000000000000000000000000000000000000000000000000000815260040161238c90614679565b60405180910390fd5b60006005846040516123a79190613d17565b908152602001604051809103902090508060000154816001015410612401576040517f08c379a00000000000000000000000000000000000000000000000000000000081526004016123f89061470b565b60405180910390fd5b60018360000160016101000a81548160ff021916908315150217905550818360000160026101000a81548173ffffffffffffffffffffffffffffffffffffffff021916908373ffffffffffffffffffffffffffffffffffffffff1602179055506001600360008473ffffffffffffffffffffffffffffffffffffffff1673ffffffffffffffffffffffffffffffffffffffff16815260200190815260200160002060020160008282546124b4919061472b565b9250508190555060018160010160008282546124d0919061472b565b925050819055507f8d1cfb67c4b6ddfa4950ade9b8090e8da23fb82114fea7fd43c4cbbe2c2367b333838660405161250a9392919061475f565b60405180910390a1505050505050565b600960019054906101000a900460ff1681565b60016020528060005260406000206000915090508060000160009054906101000a900460ff16908060000160019054906101000a900460ff16908060000160029054906101000a900473ffffffffffffffffffffffffffffffffffffffff169080600101805461259c90613caa565b80601f01602080910402602001604051908101604052809291908181526020018280546125c890613caa565b80156126155780601f106125ea57610100808354040283529160200191612615565b820191906000526020600020905b8154815290600101906020018083116125f857829003601f168201915b50505050509080600201805461262a90613caa565b80601f016020809104026020016040519081016040528092919081815260200182805461265690613caa565b80156126a35780601f10612678576101008083540402835291602001916126a3565b820191906000526020600020905b81548152906001019060200180831161268657829003601f168201915b5050505050905085565b60008054906101000a900473ffffffffffffffffffffffffffffffffffffffff1673ffffffffffffffffffffffffffffffffffffffff163373ffffffffffffffffffffffffffffffffffffffff161461273b576040517f08c379a000000000000000000000000000000000000000000000000000000000815260040161273290613c2c565b60405180910390fd5b600082511161277f576040517f08c379a0000000000000000000000000000000000000000000000000000000008152600401612776906147e9565b60405180910390fd5b600081116127c2576040517f08c379a00000000000000000000000000000000000000000000000000000000081526004016127b99061487b565b60405180910390fd5b60006005836040516127d49190613d17565b90815260200160405180910390206000015414612826576040517f08c379a000000000000000000000000000000000000000000000000000000000815260040161281d906148e7565b60405180910390fd5b6040518060400160405280828152602001600081525060058360405161284c9190613d17565b908152602001604051809103902060008201518160000155602082015181600101559050506007829080600181540180825580915050600190039060005260206000200160009091909190915090816128a5919061411c565b505050565b600681815481106128ba57600080fd5b906000526020600020016000915054906101000a900473ffffffffffffffffffffffffffffffffffffffff1681565b60008054906101000a900473ffffffffffffffffffffffffffffffffffffffff1673ffffffffffffffffffffffffffffffffffffffff163373ffffffffffffffffffffffffffffffffffffffff1614612977576040517f08c379a000000000000000000000000000000000000000000000000000000000815260040161296e90613c2c565b60405180910390fd5b60006005826040516129899190613d17565b908152602001604051809103902060000154116129db576040517f08c379a00000000000000000000000000000000000000000000000000000000081526004016129d290613e0c565b60405180910390fd5b600160008473ffffffffffffffffffffffffffffffffffffffff1673ffffffffffffffffffffffffffffffffffffffff16815260200190815260200160002060000160009054906101000a900460ff1615612a6b576040517f08c379a0000000000000000000000000000000000000000000000000000000008152600401612a6290614953565b60405180910390fd5b600282604051612a7b9190613d17565b908152602001604051809103902060009054906101000a900460ff1615612ad7576040517f08c379a0000000000000000000000000000000000000000000000000000000008152600401612ace90613f50565b60405180910390fd5b6040518060a00160405280600115158152602001600015158152602001600073ffffffffffffffffffffffffffffffffffffffff16815260200182815260200183815250600160008573ffffffffffffffffffffffffffffffffffffffff1673ffffffffffffffffffffffffffffffffffffffff16815260200190815260200160002060008201518160000160006101000a81548160ff02191690831515021790555060208201518160000160016101000a81548160ff02191690831515021790555060408201518160000160026101000a81548173ffffffffffffffffffffffffffffffffffffffff021916908373ffffffffffffffffffffffffffffffffffffffff1602179055506060820151816001019081612bf6919061411c565b506080820151816002019081612c0c919061411c565b509050506001600283604051612c229190613d17565b908152602001604051809103902060006101000a81548160ff0219169083151502179055506008839080600181540180825580915050600190039060005260206000200160009091909190916101000a81548173ffffffffffffffffffffffffffffffffffffffff021916908373ffffffffffffffffffffffffffffffffffffffff1602179055507f96ac7a421360a2bd773d747b2f64b40a916821c4906dbfdebf787c292e741f7d838383604051612cdd93929190614973565b60405180910390a1505050565b60008054906101000a900473ffffffffffffffffffffffffffffffffffffffff1673ffffffffffffffffffffffffffffffffffffffff163373ffffffffffffffffffffffffffffffffffffffff1614612d78576040517f08c379a0000000000000000000000000000000000000000000000000000000008152600401612d6f90613c2c565b60405180910390fd5b600960009054906101000a900460ff168015612da15750600960019054906101000a900460ff16155b612de0576040517f08c379a0000000000000000000000000000000000000000000000000000000008152600401612dd7906143a5565b60405180910390fd5b6001600960016101000a81548160ff0219169083151502179055506000600960006101000a81548160ff02191690831515021790555060005b6007805490508110156130a957600060078281548110612e3c57612e3b613c4c565b5b906000526020600020018054612e5190613caa565b80601f0160208091040260200160405190810160405280929190818152602001828054612e7d90613caa565b8015612eca5780601f10612e9f57610100808354040283529160200191612eca565b820191906000526020600020905b815481529060010190602001808311612ead57829003601f168201915b5050505050905060008060005b60068054905081101561305d57600060068281548110612efa57612ef9613c4c565b5b9060005260206000200160009054906101000a900473ffffffffffffffffffffffffffffffffffffffff16905084604051602001612f389190613d17565b60405160208183030381529060405280519060200120600360008373ffffffffffffffffffffffffffffffffffffffff1673ffffffffffffffffffffffffffffffffffffffff168152602001908152602001600020600301604051602001612fa091906142cb565b604051602081830303815290604052805190602001200361304f5782600360008373ffffffffffffffffffffffffffffffffffffffff1673ffffffffffffffffffffffffffffffffffffffff16815260200190815260200160002060020154111561304e57600360008273ffffffffffffffffffffffffffffffffffffffff1673ffffffffffffffffffffffffffffffffffffffff1681526020019081526020016000206002015492508093505b5b508080600101915050612ed7565b507f3b281afe48905f20862f01b6e1bc6eaf6079665f84380a6022228a68c38308f0828285604051613091939291906149b8565b60405180910390a15050508080600101915050612e19565b50565b6005818051602081018201805184825260208301602085012081835280955050505050506000915090508060000154908060010154905082565b60008054906101000a900473ffffffffffffffffffffffffffffffffffffffff1681565b50805461311690613caa565b6000825580601f106131285750613147565b601f016020900490600052602060002090810190613146919061316b565b5b50565b5080546000825590600052602060002090810190613168919061316b565b50565b5b8082111561318457600081600090555060010161316c565b5090565b600081519050919050565b600082825260208201905092915050565b6000819050602082019050919050565b600081519050919050565b600082825260208201905092915050565b60005b838110156131ee5780820151818401526020810190506131d3565b60008484015250505050565b6000601f19601f8301169050919050565b6000613216826131b4565b61322081856131bf565b93506132308185602086016131d0565b613239816131fa565b840191505092915050565b6000613250838361320b565b905092915050565b6000602082019050919050565b600061327082613188565b61327a8185613193565b93508360208202850161328c856131a4565b8060005b858110156132c857848403895281516132a98582613244565b94506132b483613258565b925060208a01995050600181019050613290565b50829750879550505050505092915050565b600060208201905081810360008301526132f48184613265565b905092915050565b6000604051905090565b600080fd5b600080fd5b600073ffffffffffffffffffffffffffffffffffffffff82169050919050565b600061333b82613310565b9050919050565b61334b81613330565b811461335657600080fd5b50565b60008135905061336881613342565b92915050565b600080fd5b600080fd5b7f4e487b7100000000000000000000000000000000000000000000000000000000600052604160045260246000fd5b6133b0826131fa565b810181811067ffffffffffffffff821117156133cf576133ce613378565b5b80604052505050565b60006133e26132fc565b90506133ee82826133a7565b919050565b600067ffffffffffffffff82111561340e5761340d613378565b5b613417826131fa565b9050602081019050919050565b82818337600083830152505050565b6000613446613441846133f3565b6133d8565b90508281526020810184848401111561346257613461613373565b5b61346d848285613424565b509392505050565b600082601f83011261348a5761348961336e565b5b813561349a848260208601613433565b91505092915050565b600080600080608085870312156134bd576134bc613306565b5b60006134cb87828801613359565b945050602085013567ffffffffffffffff8111156134ec576134eb61330b565b5b6134f887828801613475565b935050604085013567ffffffffffffffff8111156135195761351861330b565b5b61352587828801613475565b925050606085013567ffffffffffffffff8111156135465761354561330b565b5b61355287828801613475565b91505092959194509250565b6000819050919050565b6135718161355e565b811461357c57600080fd5b50565b60008135905061358e81613568565b92915050565b6000602082840312156135aa576135a9613306565b5b60006135b88482850161357f565b91505092915050565b600082825260208201905092915050565b60006135dd826131b4565b6135e781856135c1565b93506135f78185602086016131d0565b613600816131fa565b840191505092915050565b6000602082019050818103600083015261362581846135d2565b905092915050565b60006020828403121561364357613642613306565b5b600082013567ffffffffffffffff8111156136615761366061330b565b5b61366d84828501613475565b91505092915050565b61367f81613330565b82525050565b61368e8161355e565b82525050565b60006060820190506136a96000830186613676565b81810360208301526136bb81856135d2565b90506136ca6040830184613685565b949350505050565b600081519050919050565b600082825260208201905092915050565b6000819050602082019050919050565b61370781613330565b82525050565b600061371983836136fe565b60208301905092915050565b6000602082019050919050565b600061373d826136d2565b61374781856136dd565b9350613752836136ee565b8060005b8381101561378357815161376a888261370d565b975061377583613725565b925050600181019050613756565b5085935050505092915050565b600060408201905081810360008301526137aa8185613732565b905081810360208301526137be8184613265565b90509392505050565b60006020820190506137dc6000830184613676565b92915050565b60008115159050919050565b6137f7816137e2565b82525050565b600060208201905061381260008301846137ee565b92915050565b60006020828403121561382e5761382d613306565b5b600061383c84828501613359565b91505092915050565b600060a082019050818103600083015261385f81886135d2565b905061386e6020830187613676565b61387b6040830186613685565b818103606083015261388d81856135d2565b905081810360808301526138a181846135d2565b90509695505050505050565b600081519050919050565b600082825260208201905092915050565b6000819050602082019050919050565b6138e28161355e565b82525050565b60006138f483836138d9565b60208301905092915050565b6000602082019050919050565b6000613918826138ad565b61392281856138b8565b935061392d836138c9565b8060005b8381101561395e57815161394588826138e8565b975061395083613900565b925050600181019050613931565b5085935050505092915050565b600060408201905081810360008301526139858185613265565b90508181036020830152613999818461390d565b90509392505050565b6000806000606084860312156139bb576139ba613306565b5b600084013567ffffffffffffffff8111156139d9576139d861330b565b5b6139e586828701613475565b935050602084013567ffffffffffffffff811115613a0657613a0561330b565b5b613a1286828701613475565b925050604084013567ffffffffffffffff811115613a3357613a3261330b565b5b613a3f86828701613475565b9150509250925092565b600060a082019050613a5e60008301886137ee565b613a6b60208301876137ee565b613a786040830186613676565b8181036060830152613a8a81856135d2565b90508181036080830152613a9e81846135d2565b90509695505050505050565b60008060408385031215613ac157613ac0613306565b5b600083013567ffffffffffffffff811115613adf57613ade61330b565b5b613aeb85828601613475565b9250506020613afc8582860161357f565b9150509250929050565b600080600060608486031215613b1f57613b1e613306565b5b6000613b2d86828701613359565b935050602084013567ffffffffffffffff811115613b4e57613b4d61330b565b5b613b5a86828701613475565b925050604084013567ffffffffffffffff811115613b7b57613b7a61330b565b5b613b8786828701613475565b9150509250925092565b6000604082019050613ba66000830185613685565b613bb36020830184613685565b9392505050565b7f4f6e6c792061646d696e2063616e20706572666f726d2074686973206163746960008201527f6f6e2e0000000000000000000000000000000000000000000000000000000000602082015250565b6000613c166023836135c1565b9150613c2182613bba565b604082019050919050565b60006020820190508181036000830152613c4581613c09565b9050919050565b7f4e487b7100000000000000000000000000000000000000000000000000000000600052603260045260246000fd5b7f4e487b7100000000000000000000000000000000000000000000000000000000600052602260045260246000fd5b60006002820490506001821680613cc257607f821691505b602082108103613cd557613cd4613c7b565b5b50919050565b600081905092915050565b6000613cf1826131b4565b613cfb8185613cdb565b9350613d0b8185602086016131d0565b80840191505092915050565b6000613d238284613ce6565b915081905092915050565b7f4174206c656173742074776f2063616e6469646174657320726571756972656460008201527f2e00000000000000000000000000000000000000000000000000000000000000602082015250565b6000613d8a6021836135c1565b9150613d9582613d2e565b604082019050919050565b60006020820190508181036000830152613db981613d7d565b9050919050565b7f4172656120646f6573206e6f742065786973742e000000000000000000000000600082015250565b6000613df66014836135c1565b9150613e0182613dc0565b602082019050919050565b60006020820190508181036000830152613e2581613de9565b9050919050565b7f43616e646964617465206e616d652063616e6e6f7420626520656d7074792e00600082015250565b6000613e62601f836135c1565b9150613e6d82613e2c565b602082019050919050565b60006020820190508181036000830152613e9181613e55565b9050919050565b7f43616e64696461746520616c726561647920726567697374657265642e000000600082015250565b6000613ece601d836135c1565b9150613ed982613e98565b602082019050919050565b60006020820190508181036000830152613efd81613ec1565b9050919050565b7f4e6174696f6e616c20494420616c726561647920726567697374657265642e00600082015250565b6000613f3a601f836135c1565b9150613f4582613f04565b602082019050919050565b60006020820190508181036000830152613f6981613f2d565b9050919050565b60008190508160005260206000209050919050565b60006020601f8301049050919050565b600082821b905092915050565b600060088302613fd27fffffffffffffffffffffffffffffffffffffffffffffffffffffffffffffffff82613f95565b613fdc8683613f95565b95508019841693508086168417925050509392505050565b6000819050919050565b600061401961401461400f8461355e565b613ff4565b61355e565b9050919050565b6000819050919050565b61403383613ffe565b61404761403f82614020565b848454613fa2565b825550505050565b600090565b61405c61404f565b61406781848461402a565b505050565b5b8181101561408b57614080600082614054565b60018101905061406d565b5050565b601f8211156140d0576140a181613f70565b6140aa84613f85565b810160208510156140b9578190505b6140cd6140c585613f85565b83018261406c565b50505b505050565b600082821c905092915050565b60006140f3600019846008026140d5565b1980831691505092915050565b600061410c83836140e2565b9150826002028217905092915050565b614125826131b4565b67ffffffffffffffff81111561413e5761413d613378565b5b6141488254613caa565b61415382828561408f565b600060209050601f8311600181146141865760008415614174578287015190505b61417e8582614100565b8655506141e6565b601f19841661419486613f70565b60005b828110156141bc57848901518255600182019150602085019450602081019050614197565b868310156141d957848901516141d5601f8916826140e2565b8355505b6001600288020188555050505b505050505050565b60006080820190506142036000830187613676565b818103602083015261421581866135d2565b9050818103604083015261422981856135d2565b9050818103606083015261423d81846135d2565b905095945050505050565b6000815461425581613caa565b61425f8186613cdb565b9450600182166000811461427a576001811461428f576142c2565b60ff19831686528115158202860193506142c2565b61429885613f70565b60005b838110156142ba5781548189015260018201915060208101905061429b565b838801955050505b50505092915050565b60006142d78284614248565b915081905092915050565b7f4e487b7100000000000000000000000000000000000000000000000000000000600052601160045260246000fd5b600061431c8261355e565b91507fffffffffffffffffffffffffffffffffffffffffffffffffffffffffffffffff820361434e5761434d6142e2565b5b600182019050919050565b7f566f74696e67206973206e6f74206163746976652e0000000000000000000000600082015250565b600061438f6015836135c1565b915061439a82614359565b602082019050919050565b600060208201905081810360008301526143be81614382565b9050919050565b7f596f7520617265206e6f74207265676973746572656420746f20766f74652e00600082015250565b60006143fb601f836135c1565b9150614406826143c5565b602082019050919050565b6000602082019050818103600083015261442a816143ee565b9050919050565b7f596f75206861766520616c726561647920766f7465642e000000000000000000600082015250565b60006144676017836135c1565b915061447282614431565b602082019050919050565b600060208201905081810360008301526144968161445a565b9050919050565b7f4e6174696f6e616c20494420646f6573206e6f74206d617463682e0000000000600082015250565b60006144d3601b836135c1565b91506144de8261449d565b602082019050919050565b60006020820190508181036000830152614502816144c6565b9050919050565b7f4172656120646f6573206e6f74206d617463682074686520766f74657227732060008201527f7265676973746572656420617265612e00000000000000000000000000000000602082015250565b60006145656030836135c1565b915061457082614509565b604082019050919050565b6000602082019050818103600083015261459481614558565b9050919050565b7f496e76616c69642063616e646964617465206e616d652e000000000000000000600082015250565b60006145d16017836135c1565b91506145dc8261459b565b602082019050919050565b60006020820190508181036000830152614600816145c4565b9050919050565b7f43616e64696461746520616e6420766f746572206d75737420626520696e207460008201527f68652073616d6520617265612e00000000000000000000000000000000000000602082015250565b6000614663602d836135c1565b915061466e82614607565b604082019050919050565b6000602082019050818103600083015261469281614656565b9050919050565b7f566f74696e67206c696d697420666f722074686973206172656120686173206260008201527f65656e20726561636865642e0000000000000000000000000000000000000000602082015250565b60006146f5602c836135c1565b915061470082614699565b604082019050919050565b60006020820190508181036000830152614724816146e8565b9050919050565b60006147368261355e565b91506147418361355e565b9250828201905080821115614759576147586142e2565b5b92915050565b60006060820190506147746000830186613676565b6147816020830185613676565b818103604083015261479381846135d2565b9050949350505050565b7f41726561206e616d652063616e6e6f7420626520656d7074792e000000000000600082015250565b60006147d3601a836135c1565b91506147de8261479d565b602082019050919050565b60006020820190508181036000830152614802816147c6565b9050919050565b7f41726561206d7573742068617665207265676973746572656420766f7465727360008201527f2e00000000000000000000000000000000000000000000000000000000000000602082015250565b60006148656021836135c1565b915061487082614809565b604082019050919050565b6000602082019050818103600083015261489481614858565b9050919050565b7f4172656120616c7265616479206578697374732e000000000000000000000000600082015250565b60006148d16014836135c1565b91506148dc8261489b565b602082019050919050565b60006020820190508181036000830152614900816148c4565b9050919050565b7f566f74657220616c726561647920726567697374657265642e00000000000000600082015250565b600061493d6019836135c1565b915061494882614907565b602082019050919050565b6000602082019050818103600083015261496c81614930565b9050919050565b60006060820190506149886000830186613676565b818103602083015261499a81856135d2565b905081810360408301526149ae81846135d2565b9050949350505050565b60006060820190506149cd6000830186613676565b6149da6020830185613685565b81810360408301526149ec81846135d2565b905094935050505056fea2646970667358221220a555c32debf9b536f8fb12f9a9cfdf1e2ee13780cc19cca37045a81e8f72854f64736f6c634300081c0033",
  "linkReferences": {},
  "deployedLinkReferences": {}
}