{
  "_format": "hh-sol-artifact-1",
  "contractName": "VotingSystem",
  "sourceName": "contracts/VotingSystem.sol",
  "abi": [
    {
      "inputs": [],
      "stateMutability": "nonpayable",
      "type": "constructor"
    },
    {
      "anonymous": false,
      "inputs": [
        {
          "indexed": false,
          "internalType": "address",
          "name": "candidate",
          "type": "address"
        },
        {
          "indexed": false,
          "internalType": "string",
          "name": "name",
          "type": "string"
        },
        {
          "indexed": false,
          "internalType": "string",
          "name": "nationalID",
          "type": "string"
        },
        {
          "indexed": false,
          "internalType": "string",
          "name": "area",
          "type": "string"
        }
      ],
      "name": "CandidateRegistered",
      "type": "event"
    },
    {
      "anonymous": false,
      "inputs": [
        {
          "indexed": false,
          "internalType": "address",
          "name": "voter",
          "type": "address"
        },
        {
          "indexed": false,
          "internalType": "address",
          "name": "candidate",
          "type": "address"
        },
        {
          "indexed": false,
          "internalType": "string",
          "name": "area",
          "type": "string"
        }
      ],
      "name": "VoteCasted",
      "type": "event"
    },
    {
      "anonymous": false,
      "inputs": [
        {
          "indexed": false,
          "internalType": "address",
          "name": "voter",
          "type": "address"
        },
        {
          "indexed": false,
          "internalType": "string",
          "name": "nationalID",
          "type": "string"
        },
        {
          "indexed": false,
          "internalType": "string",
          "name": "area",
          "type": "string"
        }
      ],
      "name": "VoterRegistered",
      "type": "event"
    },
    {
      "anonymous": false,
      "inputs": [
        {
          "indexed": false,
          "internalType": "address",
          "name": "winner",
          "type": "address"
        },
        {
          "indexed": false,
          "internalType": "uint256",
          "name": "voteCount",
          "type": "uint256"
        },
        {
          "indexed": false,
          "internalType": "string",
          "name": "area",
          "type": "string"
        }
      ],
      "name": "VotingEnded",
      "type": "event"
    },
    {
      "inputs": [
        {
          "internalType": "string",
          "name": "_areaName",
          "type": "string"
        },
        {
          "internalType": "uint256",
          "name": "_maxVoters",
          "type": "uint256"
        }
      ],
      "name": "addArea",
      "outputs": [],
      "stateMutability": "nonpayable",
      "type": "function"
    },
    {
      "inputs": [],
      "name": "admin",
      "outputs": [
        {
          "internalType": "address",
          "name": "",
          "type": "address"
        }
      ],
      "stateMutability": "view",
      "type": "function"
    },
    {
      "inputs": [
        {
          "internalType": "uint256",
          "name": "",
          "type": "uint256"
        }
      ],
      "name": "areaList",
      "outputs": [
        {
          "internalType": "string",
          "name": "",
          "type": "string"
        }
      ],
      "stateMutability": "view",
      "type": "function"
    },
    {
      "inputs": [
        {
          "internalType": "string",
          "name": "",
          "type": "string"
        }
      ],
      "name": "areas",
      "outputs": [
        {
          "internalType": "uint256",
          "name": "maxVoters",
          "type": "uint256"
        },
        {
          "internalType": "uint256",
          "name": "currentVotes",
          "type": "uint256"
        }
      ],
      "stateMutability": "view",
      "type": "function"
    },
    {
      "inputs": [
        {
          "internalType": "uint256",
          "name": "",
          "type": "uint256"
        }
      ],
      "name": "candidateList",
      "outputs": [
        {
          "internalType": "address",
          "name": "",
          "type": "address"
        }
      ],
      "stateMutability": "view",
      "type": "function"
    },
    {
      "inputs": [
        {
          "internalType": "address",
          "name": "",
          "type": "address"
        }
      ],
      "name": "candidates",
      "outputs": [
        {
          "internalType": "string",
          "name": "name",
          "type": "string"
        },
        {
          "internalType": "address",
          "name": "candidateAddress",
          "type": "address"
        },
        {
          "internalType": "uint256",
          "name": "voteCount",
          "type": "uint256"
        },
        {
          "internalType": "string",
          "name": "area",
          "type": "string"
        },
        {
          "internalType": "string",
          "name": "nationalID",
          "type": "string"
        }
      ],
      "stateMutability": "view",
      "type": "function"
    },
    {
      "inputs": [],
      "name": "endVoting",
      "outputs": [],
      "stateMutability": "nonpayable",
      "type": "function"
    },
    {
      "inputs": [],
      "name": "getAreas",
      "outputs": [
        {
          "internalType": "string[]",
          "name": "",
          "type": "string[]"
        }
      ],
      "stateMutability": "view",
      "type": "function"
    },
    {
      "inputs": [],
      "name": "getCandidates",
      "outputs": [
        {
          "internalType": "string[]",
          "name": "",
          "type": "string[]"
        }
      ],
      "stateMutability": "view",
      "type": "function"
    },
    {
      "inputs": [
        {
          "internalType": "string",
          "name": "_areaName",
          "type": "string"
        }
      ],
      "name": "getCandidatesByArea",
      "outputs": [
        {
          "internalType": "address[]",
          "name": "",
          "type": "address[]"
        },
        {
          "internalType": "string[]",
          "name": "",
          "type": "string[]"
        }
      ],
      "stateMutability": "view",
      "type": "function"
    },
    {
      "inputs": [
        {
          "internalType": "string",
          "name": "_areaName",
          "type": "string"
        }
      ],
      "name": "getTotalVotersByArea",
      "outputs": [
        {
          "internalType": "uint256",
          "name": "",
          "type": "uint256"
        }
      ],
      "stateMutability": "view",
      "type": "function"
    },
    {
      "inputs": [
        {
          "internalType": "string",
          "name": "_areaName",
          "type": "string"
        }
      ],
      "name": "getWinnerByArea",
      "outputs": [
        {
          "internalType": "address",
          "name": "",
          "type": "address"
        },
        {
          "internalType": "string",
          "name": "",
          "type": "string"
        },
        {
          "internalType": "uint256",
          "name": "",
          "type": "uint256"
        }
      ],
      "stateMutability": "view",
      "type": "function"
    },
    {
      "inputs": [
        {
          "internalType": "address",
          "name": "_candidate",
          "type": "address"
        },
        {
          "internalType": "string",
          "name": "_name",
          "type": "string"
        },
        {
          "internalType": "string",
          "name": "_nationalID",
          "type": "string"
        },
        {
          "internalType": "string",
          "name": "_areaName",
          "type": "string"
        }
      ],
      "name": "registerCandidate",
      "outputs": [],
      "stateMutability": "nonpayable",
      "type": "function"
    },
    {
      "inputs": [
        {
          "internalType": "address",
          "name": "_voter",
          "type": "address"
        },
        {
          "internalType": "string",
          "name": "_nationalID",
          "type": "string"
        },
        {
          "internalType": "string",
          "name": "_areaName",
          "type": "string"
        }
      ],
      "name": "registerVoter",
      "outputs": [],
      "stateMutability": "nonpayable",
      "type": "function"
    },
    {
      "inputs": [],
      "name": "startVoting",
      "outputs": [],
      "stateMutability": "nonpayable",
      "type": "function"
    },
    {
      "inputs": [
        {
          "internalType": "address",
          "name": "_candidate",
          "type": "address"
        },
        {
          "internalType": "string",
          "name": "_nationalID",
          "type": "string"
        },
        {
          "internalType": "string",
          "name": "_area",
          "type": "string"
        }
      ],
      "name": "vote",
      "outputs": [],
      "stateMutability": "nonpayable",
      "type": "function"
    },
    {
      "inputs": [
        {
          "internalType": "uint256",
          "name": "",
          "type": "uint256"
        }
      ],
      "name": "voterList",
      "outputs": [
        {
          "internalType": "address",
          "name": "",
          "type": "address"
        }
      ],
      "stateMutability": "view",
      "type": "function"
    },
    {
      "inputs": [
        {
          "internalType": "address",
          "name": "",
          "type": "address"
        }
      ],
      "name": "voters",
      "outputs": [
        {
          "internalType": "bool",
          "name": "isRegistered",
          "type": "bool"
        },
        {
          "internalType": "bool",
          "name": "hasVoted",
          "type": "bool"
        },
        {
          "internalType": "address",
          "name": "votedCandidate",
          "type": "address"
        },
        {
          "internalType": "string",
          "name": "area",
          "type": "string"
        },
        {
          "internalType": "string",
          "name": "nationalID",
          "type": "string"
        }
      ],
      "stateMutability": "view",
      "type": "function"
    },
    {
      "inputs": [],
      "name": "votingEnded",
      "outputs": [
        {
          "internalType": "bool",
          "name": "",
          "type": "bool"
        }
      ],
      "stateMutability": "view",
      "type": "function"
    },
    {
      "inputs": [],
      "name": "votingStarted",
      "outputs": [
        {
          "internalType": "bool",
          "name": "",
          "type": "bool"
        }
      ],
      "stateMutability": "view",
      "type": "function"
    }
  ],
  "bytecode": "0x6080604052348015600f57600080fd5b50336000806101000a81548173ffffffffffffffffffffffffffffffffffffffff021916908373ffffffffffffffffffffffffffffffffffffffff1602179055506141588061005f6000396000f3fe608060405234801561001057600080fd5b506004361061012c5760003560e01c806392275f63116100ad578063bb8fab8e11610071578063bb8fab8e14610362578063c3403ddf1461037e578063d110036114610388578063d4a7de3e146103b8578063f851a440146103e95761012c565b806392275f63146102a85780639d5a0529146102c4578063a3ec138d146102e2578063ac6ba3c314610316578063b13c744b146103325761012c565b8063432dea47116100f4578063432dea47146101c3578063438aabdc146101f557806350e2e8af1461022657806383d948b7146102565780638ab66a90146102745761012c565b806306a49fce146101315780631ec6b60a1461014f57806321b3f528146101595780632ea3981a146101755780633e46d27914610193575b600080fd5b610139610407565b6040516101469190612b87565b60405180910390f35b6101576105ac565b005b610173600480360381019061016e9190612d50565b6106bb565b005b61017d610b1d565b60405161018a9190612b87565b60405180910390f35b6101ad60048036038101906101a89190612e41565b610bf6565b6040516101ba9190612eb8565b60405180910390f35b6101dd60048036038101906101d89190612eda565b610ca2565b6040516101ec93929190612f41565b60405180910390f35b61020f600480360381019061020a9190612eda565b61106c565b60405161021d92919061303d565b60405180910390f35b610240600480360381019061023b9190612e41565b611534565b60405161024d9190613074565b60405180910390f35b61025e611573565b60405161026b91906130aa565b60405180910390f35b61028e600480360381019061028991906130c5565b611586565b60405161029f9594939291906130f2565b60405180910390f35b6102c260048036038101906102bd919061315a565b611774565b005b6102cc611d08565b6040516102d991906130aa565b60405180910390f35b6102fc60048036038101906102f791906130c5565b611d1b565b60405161030d9594939291906131e5565b60405180910390f35b610330600480360381019061032b9190613246565b611e9b565b005b61034c60048036038101906103479190612e41565b612098565b6040516103599190613074565b60405180910390f35b61037c6004803603810190610377919061315a565b6120d7565b005b6103866124d8565b005b6103a2600480360381019061039d9190612eda565b61289a565b6040516103af91906132a2565b60405180910390f35b6103d260048036038101906103cd9190612eda565b6129d7565b6040516103e09291906132bd565b60405180910390f35b6103f1612a11565b6040516103fe9190613074565b60405180910390f35b6060600060068054905067ffffffffffffffff81111561042a57610429612c25565b5b60405190808252806020026020018201604052801561045d57816020015b60608152602001906001900390816104485790505b50905060005b6006805490508110156105a4576003600060068381548110610488576104876132e6565b5b9060005260206000200160009054906101000a900473ffffffffffffffffffffffffffffffffffffffff1673ffffffffffffffffffffffffffffffffffffffff1673ffffffffffffffffffffffffffffffffffffffff16815260200190815260200160002060000180546104fb90613344565b80601f016020809104026020016040519081016040528092919081815260200182805461052790613344565b80156105745780601f1061054957610100808354040283529160200191610574565b820191906000526020600020905b81548152906001019060200180831161055757829003601f168201915b505050505082828151811061058c5761058b6132e6565b5b60200260200101819052508080600101915050610463565b508091505090565b60008054906101000a900473ffffffffffffffffffffffffffffffffffffffff1673ffffffffffffffffffffffffffffffffffffffff163373ffffffffffffffffffffffffffffffffffffffff161461063a576040517f08c379a0000000000000000000000000000000000000000000000000000000008152600401610631906133e7565b60405180910390fd5b60026006805490501015610683576040517f08c379a000000000000000000000000000000000000000000000000000000000815260040161067a90613479565b60405180910390fd5b6001600960006101000a81548160ff0219169083151502179055506000600960016101000a81548160ff021916908315150217905550565b60008054906101000a900473ffffffffffffffffffffffffffffffffffffffff1673ffffffffffffffffffffffffffffffffffffffff163373ffffffffffffffffffffffffffffffffffffffff1614610749576040517f08c379a0000000000000000000000000000000000000000000000000000000008152600401610740906133e7565b60405180910390fd5b600060058260405161075b91906134d5565b908152602001604051809103902060000154116107ad576040517f08c379a00000000000000000000000000000000000000000000000000000000081526004016107a490613538565b60405180910390fd5b60008351116107f1576040517f08c379a00000000000000000000000000000000000000000000000000000000081526004016107e8906135a4565b60405180910390fd5b600073ffffffffffffffffffffffffffffffffffffffff16600360008673ffffffffffffffffffffffffffffffffffffffff1673ffffffffffffffffffffffffffffffffffffffff16815260200190815260200160002060010160009054906101000a900473ffffffffffffffffffffffffffffffffffffffff1673ffffffffffffffffffffffffffffffffffffffff16146108c2576040517f08c379a00000000000000000000000000000000000000000000000000000000081526004016108b990613610565b60405180910390fd5b6004826040516108d291906134d5565b908152602001604051809103902060009054906101000a900460ff161561092e576040517f08c379a00000000000000000000000000000000000000000000000000000000081526004016109259061367c565b60405180910390fd5b6040518060a001604052808481526020018573ffffffffffffffffffffffffffffffffffffffff1681526020016000815260200182815260200183815250600360008673ffffffffffffffffffffffffffffffffffffffff1673ffffffffffffffffffffffffffffffffffffffff16815260200190815260200160002060008201518160000190816109c09190613848565b5060208201518160010160006101000a81548173ffffffffffffffffffffffffffffffffffffffff021916908373ffffffffffffffffffffffffffffffffffffffff160217905550604082015181600201556060820151816003019081610a279190613848565b506080820151816004019081610a3d9190613848565b509050506001600483604051610a5391906134d5565b908152602001604051809103902060006101000a81548160ff0219169083151502179055506006849080600181540180825580915050600190039060005260206000200160009091909190916101000a81548173ffffffffffffffffffffffffffffffffffffffff021916908373ffffffffffffffffffffffffffffffffffffffff1602179055507ed6fea68f71a20d8149f227f87e8cf7e6ad320b2dad4b45465b14599b80ee0984848484604051610b0f949392919061391a565b60405180910390a150505050565b60606007805480602002602001604051908101604052809291908181526020016000905b82821015610bed578382906000526020600020018054610b6090613344565b80601f0160208091040260200160405190810160405280929190818152602001828054610b8c90613344565b8015610bd95780601f10610bae57610100808354040283529160200191610bd9565b820191906000526020600020905b815481529060010190602001808311610bbc57829003601f168201915b505050505081526020019060010190610b41565b50505050905090565b60078181548110610c0657600080fd5b906000526020600020016000915090508054610c2190613344565b80601f0160208091040260200160405190810160405280929190818152602001828054610c4d90613344565b8015610c9a5780601f10610c6f57610100808354040283529160200191610c9a565b820191906000526020600020905b815481529060010190602001808311610c7d57829003601f168201915b505050505081565b60006060600080600585604051610cb991906134d5565b90815260200160405180910390206000015411610d0b576040517f08c379a0000000000000000000000000000000000000000000000000000000008152600401610d0290613538565b60405180910390fd5b600080606060005b6006805490508110156110585787604051602001610d3191906134d5565b604051602081830303815290604052805190602001206003600060068481548110610d5f57610d5e6132e6565b5b9060005260206000200160009054906101000a900473ffffffffffffffffffffffffffffffffffffffff1673ffffffffffffffffffffffffffffffffffffffff1673ffffffffffffffffffffffffffffffffffffffff168152602001908152602001600020600301604051602001610dd791906139f7565b604051602081830303815290604052805190602001200361104b57826003600060068481548110610e0b57610e0a6132e6565b5b9060005260206000200160009054906101000a900473ffffffffffffffffffffffffffffffffffffffff1673ffffffffffffffffffffffffffffffffffffffff1673ffffffffffffffffffffffffffffffffffffffff16815260200190815260200160002060020154111561104a576003600060068381548110610e9257610e916132e6565b5b9060005260206000200160009054906101000a900473ffffffffffffffffffffffffffffffffffffffff1673ffffffffffffffffffffffffffffffffffffffff1673ffffffffffffffffffffffffffffffffffffffff16815260200190815260200160002060020154925060068181548110610f1157610f106132e6565b5b9060005260206000200160009054906101000a900473ffffffffffffffffffffffffffffffffffffffff1693506003600060068381548110610f5657610f556132e6565b5b9060005260206000200160009054906101000a900473ffffffffffffffffffffffffffffffffffffffff1673ffffffffffffffffffffffffffffffffffffffff1673ffffffffffffffffffffffffffffffffffffffff1681526020019081526020016000206000018054610fc990613344565b80601f0160208091040260200160405190810160405280929190818152602001828054610ff590613344565b80156110425780601f1061101757610100808354040283529160200191611042565b820191906000526020600020905b81548152906001019060200180831161102557829003601f168201915b505050505091505b5b8080600101915050610d13565b508281839550955095505050509193909250565b606080600060058460405161108191906134d5565b908152602001604051809103902060000154116110d3576040517f08c379a00000000000000000000000000000000000000000000000000000000081526004016110ca90613538565b60405180910390fd5b6000805b6006805490508110156111d257846040516020016110f591906134d5565b604051602081830303815290604052805190602001206003600060068481548110611123576111226132e6565b5b9060005260206000200160009054906101000a900473ffffffffffffffffffffffffffffffffffffffff1673ffffffffffffffffffffffffffffffffffffffff1673ffffffffffffffffffffffffffffffffffffffff16815260200190815260200160002060030160405160200161119b91906139f7565b60405160208183030381529060405280519060200120036111c55781806111c190613a3d565b9250505b80806001019150506110d7565b5060008167ffffffffffffffff8111156111ef576111ee612c25565b5b60405190808252806020026020018201604052801561121d5781602001602082028036833780820191505090505b50905060008267ffffffffffffffff81111561123c5761123b612c25565b5b60405190808252806020026020018201604052801561126f57816020015b606081526020019060019003908161125a5790505b5090506000805b600680549050811015611524578760405160200161129491906134d5565b6040516020818303038152906040528051906020012060036000600684815481106112c2576112c16132e6565b5b9060005260206000200160009054906101000a900473ffffffffffffffffffffffffffffffffffffffff1673ffffffffffffffffffffffffffffffffffffffff1673ffffffffffffffffffffffffffffffffffffffff16815260200190815260200160002060030160405160200161133a91906139f7565b60405160208183030381529060405280519060200120036115175760068181548110611369576113686132e6565b5b9060005260206000200160009054906101000a900473ffffffffffffffffffffffffffffffffffffffff168483815181106113a7576113a66132e6565b5b602002602001019073ffffffffffffffffffffffffffffffffffffffff16908173ffffffffffffffffffffffffffffffffffffffff168152505060036000600683815481106113f9576113f86132e6565b5b9060005260206000200160009054906101000a900473ffffffffffffffffffffffffffffffffffffffff1673ffffffffffffffffffffffffffffffffffffffff1673ffffffffffffffffffffffffffffffffffffffff168152602001908152602001600020600001805461146c90613344565b80601f016020809104026020016040519081016040528092919081815260200182805461149890613344565b80156114e55780601f106114ba576101008083540402835291602001916114e5565b820191906000526020600020905b8154815290600101906020018083116114c857829003601f168201915b50505050508383815181106114fd576114fc6132e6565b5b6020026020010181905250818061151390613a3d565b9250505b8080600101915050611276565b5082829550955050505050915091565b6008818154811061154457600080fd5b906000526020600020016000915054906101000a900473ffffffffffffffffffffffffffffffffffffffff1681565b600960009054906101000a900460ff1681565b60036020528060005260406000206000915090508060000180546115a990613344565b80601f01602080910402602001604051908101604052809291908181526020018280546115d590613344565b80156116225780601f106115f757610100808354040283529160200191611622565b820191906000526020600020905b81548152906001019060200180831161160557829003601f168201915b5050505050908060010160009054906101000a900473ffffffffffffffffffffffffffffffffffffffff169080600201549080600301805461166390613344565b80601f016020809104026020016040519081016040528092919081815260200182805461168f90613344565b80156116dc5780601f106116b1576101008083540402835291602001916116dc565b820191906000526020600020905b8154815290600101906020018083116116bf57829003601f168201915b5050505050908060040180546116f190613344565b80601f016020809104026020016040519081016040528092919081815260200182805461171d90613344565b801561176a5780601f1061173f5761010080835404028352916020019161176a565b820191906000526020600020905b81548152906001019060200180831161174d57829003601f168201915b5050505050905085565b600960009054906101000a900460ff16801561179d5750600960019054906101000a900460ff16155b6117dc576040517f08c379a00000000000000000000000000000000000000000000000000000000081526004016117d390613ad1565b60405180910390fd5b6000600160003373ffffffffffffffffffffffffffffffffffffffff1673ffffffffffffffffffffffffffffffffffffffff16815260200190815260200160002090508060000160009054906101000a900460ff16611870576040517f08c379a000000000000000000000000000000000000000000000000000000000815260040161186790613b3d565b60405180910390fd5b8060000160019054906101000a900460ff16156118c2576040517f08c379a00000000000000000000000000000000000000000000000000000000081526004016118b990613ba9565b60405180910390fd5b826040516020016118d391906134d5565b60405160208183030381529060405280519060200120816002016040516020016118fd91906139f7565b6040516020818303038152906040528051906020012014611953576040517f08c379a000000000000000000000000000000000000000000000000000000000815260040161194a90613c15565b60405180910390fd5b8160405160200161196491906134d5565b604051602081830303815290604052805190602001208160010160405160200161198e91906139f7565b60405160208183030381529060405280519060200120146119e4576040517f08c379a00000000000000000000000000000000000000000000000000000000081526004016119db90613ca7565b60405180910390fd5b600073ffffffffffffffffffffffffffffffffffffffff16600360008673ffffffffffffffffffffffffffffffffffffffff1673ffffffffffffffffffffffffffffffffffffffff16815260200190815260200160002060010160009054906101000a900473ffffffffffffffffffffffffffffffffffffffff1673ffffffffffffffffffffffffffffffffffffffff1603611ab5576040517f08c379a0000000000000000000000000000000000000000000000000000000008152600401611aac90613d13565b60405180910390fd5b81604051602001611ac691906134d5565b60405160208183030381529060405280519060200120600360008673ffffffffffffffffffffffffffffffffffffffff1673ffffffffffffffffffffffffffffffffffffffff168152602001908152602001600020600301604051602001611b2e91906139f7565b6040516020818303038152906040528051906020012014611b84576040517f08c379a0000000000000000000000000000000000000000000000000000000008152600401611b7b90613da5565b60405180910390fd5b6000600583604051611b9691906134d5565b908152602001604051809103902090508060000154816001015410611bf0576040517f08c379a0000000000000000000000000000000000000000000000000000000008152600401611be790613e37565b60405180910390fd5b60018260000160016101000a81548160ff021916908315150217905550848260000160026101000a81548173ffffffffffffffffffffffffffffffffffffffff021916908373ffffffffffffffffffffffffffffffffffffffff1602179055506001600360008773ffffffffffffffffffffffffffffffffffffffff1673ffffffffffffffffffffffffffffffffffffffff1681526020019081526020016000206002016000828254611ca39190613e57565b925050819055506001816001016000828254611cbf9190613e57565b925050819055507f8d1cfb67c4b6ddfa4950ade9b8090e8da23fb82114fea7fd43c4cbbe2c2367b3338685604051611cf993929190613e8b565b60405180910390a15050505050565b600960019054906101000a900460ff1681565b60016020528060005260406000206000915090508060000160009054906101000a900460ff16908060000160019054906101000a900460ff16908060000160029054906101000a900473ffffffffffffffffffffffffffffffffffffffff1690806001018054611d8a90613344565b80601f0160208091040260200160405190810160405280929190818152602001828054611db690613344565b8015611e035780601f10611dd857610100808354040283529160200191611e03565b820191906000526020600020905b815481529060010190602001808311611de657829003601f168201915b505050505090806002018054611e1890613344565b80601f0160208091040260200160405190810160405280929190818152602001828054611e4490613344565b8015611e915780601f10611e6657610100808354040283529160200191611e91565b820191906000526020600020905b815481529060010190602001808311611e7457829003601f168201915b5050505050905085565b60008054906101000a900473ffffffffffffffffffffffffffffffffffffffff1673ffffffffffffffffffffffffffffffffffffffff163373ffffffffffffffffffffffffffffffffffffffff1614611f29576040517f08c379a0000000000000000000000000000000000000000000000000000000008152600401611f20906133e7565b60405180910390fd5b6000825111611f6d576040517f08c379a0000000000000000000000000000000000000000000000000000000008152600401611f6490613f15565b60405180910390fd5b60008111611fb0576040517f08c379a0000000000000000000000000000000000000000000000000000000008152600401611fa790613fa7565b60405180910390fd5b6000600583604051611fc291906134d5565b90815260200160405180910390206000015414612014576040517f08c379a000000000000000000000000000000000000000000000000000000000815260040161200b90614013565b60405180910390fd5b6040518060400160405280828152602001600081525060058360405161203a91906134d5565b908152602001604051809103902060008201518160000155602082015181600101559050506007829080600181540180825580915050600190039060005260206000200160009091909190915090816120939190613848565b505050565b600681815481106120a857600080fd5b906000526020600020016000915054906101000a900473ffffffffffffffffffffffffffffffffffffffff1681565b60008054906101000a900473ffffffffffffffffffffffffffffffffffffffff1673ffffffffffffffffffffffffffffffffffffffff163373ffffffffffffffffffffffffffffffffffffffff1614612165576040517f08c379a000000000000000000000000000000000000000000000000000000000815260040161215c906133e7565b60405180910390fd5b600060058260405161217791906134d5565b908152602001604051809103902060000154116121c9576040517f08c379a00000000000000000000000000000000000000000000000000000000081526004016121c090613538565b60405180910390fd5b600160008473ffffffffffffffffffffffffffffffffffffffff1673ffffffffffffffffffffffffffffffffffffffff16815260200190815260200160002060000160009054906101000a900460ff1615612259576040517f08c379a00000000000000000000000000000000000000000000000000000000081526004016122509061407f565b60405180910390fd5b60028260405161226991906134d5565b908152602001604051809103902060009054906101000a900460ff16156122c5576040517f08c379a00000000000000000000000000000000000000000000000000000000081526004016122bc9061367c565b60405180910390fd5b6040518060a00160405280600115158152602001600015158152602001600073ffffffffffffffffffffffffffffffffffffffff16815260200182815260200183815250600160008573ffffffffffffffffffffffffffffffffffffffff1673ffffffffffffffffffffffffffffffffffffffff16815260200190815260200160002060008201518160000160006101000a81548160ff02191690831515021790555060208201518160000160016101000a81548160ff02191690831515021790555060408201518160000160026101000a81548173ffffffffffffffffffffffffffffffffffffffff021916908373ffffffffffffffffffffffffffffffffffffffff16021790555060608201518160010190816123e49190613848565b5060808201518160020190816123fa9190613848565b50905050600160028360405161241091906134d5565b908152602001604051809103902060006101000a81548160ff0219169083151502179055506008839080600181540180825580915050600190039060005260206000200160009091909190916101000a81548173ffffffffffffffffffffffffffffffffffffffff021916908373ffffffffffffffffffffffffffffffffffffffff1602179055507f96ac7a421360a2bd773d747b2f64b40a916821c4906dbfdebf787c292e741f7d8383836040516124cb9392919061409f565b60405180910390a1505050565b60008054906101000a900473ffffffffffffffffffffffffffffffffffffffff1673ffffffffffffffffffffffffffffffffffffffff163373ffffffffffffffffffffffffffffffffffffffff1614612566576040517f08c379a000000000000000000000000000000000000000000000000000000000815260040161255d906133e7565b60405180910390fd5b600960009054906101000a900460ff16801561258f5750600960019054906101000a900460ff16155b6125ce576040517f08c379a00000000000000000000000000000000000000000000000000000000081526004016125c590613ad1565b60405180910390fd5b6001600960016101000a81548160ff0219169083151502179055506000600960006101000a81548160ff02191690831515021790555060005b6007805490508110156128975760006007828154811061262a576126296132e6565b5b90600052602060002001805461263f90613344565b80601f016020809104026020016040519081016040528092919081815260200182805461266b90613344565b80156126b85780601f1061268d576101008083540402835291602001916126b8565b820191906000526020600020905b81548152906001019060200180831161269b57829003601f168201915b5050505050905060008060005b60068054905081101561284b576000600682815481106126e8576126e76132e6565b5b9060005260206000200160009054906101000a900473ffffffffffffffffffffffffffffffffffffffff1690508460405160200161272691906134d5565b60405160208183030381529060405280519060200120600360008373ffffffffffffffffffffffffffffffffffffffff1673ffffffffffffffffffffffffffffffffffffffff16815260200190815260200160002060030160405160200161278e91906139f7565b604051602081830303815290604052805190602001200361283d5782600360008373ffffffffffffffffffffffffffffffffffffffff1673ffffffffffffffffffffffffffffffffffffffff16815260200190815260200160002060020154111561283c57600360008273ffffffffffffffffffffffffffffffffffffffff1673ffffffffffffffffffffffffffffffffffffffff1681526020019081526020016000206002015492508093505b5b5080806001019150506126c5565b507f3b281afe48905f20862f01b6e1bc6eaf6079665f84380a6022228a68c38308f082828560405161287f939291906140e4565b60405180910390a15050508080600101915050612607565b50565b6000806005836040516128ad91906134d5565b908152602001604051809103902060000154036128cd57600090506129d2565b6000805b6008805490508110156129cc57836040516020016128ef91906134d5565b60405160208183030381529060405280519060200120600160006008848154811061291d5761291c6132e6565b5b9060005260206000200160009054906101000a900473ffffffffffffffffffffffffffffffffffffffff1673ffffffffffffffffffffffffffffffffffffffff1673ffffffffffffffffffffffffffffffffffffffff16815260200190815260200160002060010160405160200161299591906139f7565b60405160208183030381529060405280519060200120036129bf5781806129bb90613a3d565b9250505b80806001019150506128d1565b50809150505b919050565b6005818051602081018201805184825260208301602085012081835280955050505050506000915090508060000154908060010154905082565b60008054906101000a900473ffffffffffffffffffffffffffffffffffffffff1681565b600081519050919050565b600082825260208201905092915050565b6000819050602082019050919050565b600081519050919050565b600082825260208201905092915050565b60005b83811015612a9b578082015181840152602081019050612a80565b60008484015250505050565b6000601f19601f8301169050919050565b6000612ac382612a61565b612acd8185612a6c565b9350612add818560208601612a7d565b612ae681612aa7565b840191505092915050565b6000612afd8383612ab8565b905092915050565b6000602082019050919050565b6000612b1d82612a35565b612b278185612a40565b935083602082028501612b3985612a51565b8060005b85811015612b755784840389528151612b568582612af1565b9450612b6183612b05565b925060208a01995050600181019050612b3d565b50829750879550505050505092915050565b60006020820190508181036000830152612ba18184612b12565b905092915050565b6000604051905090565b600080fd5b600080fd5b600073ffffffffffffffffffffffffffffffffffffffff82169050919050565b6000612be882612bbd565b9050919050565b612bf881612bdd565b8114612c0357600080fd5b50565b600081359050612c1581612bef565b92915050565b600080fd5b600080fd5b7f4e487b7100000000000000000000000000000000000000000000000000000000600052604160045260246000fd5b612c5d82612aa7565b810181811067ffffffffffffffff82111715612c7c57612c7b612c25565b5b80604052505050565b6000612c8f612ba9565b9050612c9b8282612c54565b919050565b600067ffffffffffffffff821115612cbb57612cba612c25565b5b612cc482612aa7565b9050602081019050919050565b82818337600083830152505050565b6000612cf3612cee84612ca0565b612c85565b905082815260208101848484011115612d0f57612d0e612c20565b5b612d1a848285612cd1565b509392505050565b600082601f830112612d3757612d36612c1b565b5b8135612d47848260208601612ce0565b91505092915050565b60008060008060808587031215612d6a57612d69612bb3565b5b6000612d7887828801612c06565b945050602085013567ffffffffffffffff811115612d9957612d98612bb8565b5b612da587828801612d22565b935050604085013567ffffffffffffffff811115612dc657612dc5612bb8565b5b612dd287828801612d22565b925050606085013567ffffffffffffffff811115612df357612df2612bb8565b5b612dff87828801612d22565b91505092959194509250565b6000819050919050565b612e1e81612e0b565b8114612e2957600080fd5b50565b600081359050612e3b81612e15565b92915050565b600060208284031215612e5757612e56612bb3565b5b6000612e6584828501612e2c565b91505092915050565b600082825260208201905092915050565b6000612e8a82612a61565b612e948185612e6e565b9350612ea4818560208601612a7d565b612ead81612aa7565b840191505092915050565b60006020820190508181036000830152612ed28184612e7f565b905092915050565b600060208284031215612ef057612eef612bb3565b5b600082013567ffffffffffffffff811115612f0e57612f0d612bb8565b5b612f1a84828501612d22565b91505092915050565b612f2c81612bdd565b82525050565b612f3b81612e0b565b82525050565b6000606082019050612f566000830186612f23565b8181036020830152612f688185612e7f565b9050612f776040830184612f32565b949350505050565b600081519050919050565b600082825260208201905092915050565b6000819050602082019050919050565b612fb481612bdd565b82525050565b6000612fc68383612fab565b60208301905092915050565b6000602082019050919050565b6000612fea82612f7f565b612ff48185612f8a565b9350612fff83612f9b565b8060005b838110156130305781516130178882612fba565b975061302283612fd2565b925050600181019050613003565b5085935050505092915050565b600060408201905081810360008301526130578185612fdf565b9050818103602083015261306b8184612b12565b90509392505050565b60006020820190506130896000830184612f23565b92915050565b60008115159050919050565b6130a48161308f565b82525050565b60006020820190506130bf600083018461309b565b92915050565b6000602082840312156130db576130da612bb3565b5b60006130e984828501612c06565b91505092915050565b600060a082019050818103600083015261310c8188612e7f565b905061311b6020830187612f23565b6131286040830186612f32565b818103606083015261313a8185612e7f565b9050818103608083015261314e8184612e7f565b90509695505050505050565b60008060006060848603121561317357613172612bb3565b5b600061318186828701612c06565b935050602084013567ffffffffffffffff8111156131a2576131a1612bb8565b5b6131ae86828701612d22565b925050604084013567ffffffffffffffff8111156131cf576131ce612bb8565b5b6131db86828701612d22565b9150509250925092565b600060a0820190506131fa600083018861309b565b613207602083018761309b565b6132146040830186612f23565b81810360608301526132268185612e7f565b9050818103608083015261323a8184612e7f565b90509695505050505050565b6000806040838503121561325d5761325c612bb3565b5b600083013567ffffffffffffffff81111561327b5761327a612bb8565b5b61328785828601612d22565b925050602061329885828601612e2c565b9150509250929050565b60006020820190506132b76000830184612f32565b92915050565b60006040820190506132d26000830185612f32565b6132df6020830184612f32565b9392505050565b7f4e487b7100000000000000000000000000000000000000000000000000000000600052603260045260246000fd5b7f4e487b7100000000000000000000000000000000000000000000000000000000600052602260045260246000fd5b6000600282049050600182168061335c57607f821691505b60208210810361336f5761336e613315565b5b50919050565b7f4f6e6c792061646d696e2063616e20706572666f726d2074686973206163746960008201527f6f6e2e0000000000000000000000000000000000000000000000000000000000602082015250565b60006133d1602383612e6e565b91506133dc82613375565b604082019050919050565b60006020820190508181036000830152613400816133c4565b9050919050565b7f4174206c656173742074776f2063616e6469646174657320726571756972656460008201527f2e00000000000000000000000000000000000000000000000000000000000000602082015250565b6000613463602183612e6e565b915061346e82613407565b604082019050919050565b6000602082019050818103600083015261349281613456565b9050919050565b600081905092915050565b60006134af82612a61565b6134b98185613499565b93506134c9818560208601612a7d565b80840191505092915050565b60006134e182846134a4565b915081905092915050565b7f4172656120646f6573206e6f742065786973742e000000000000000000000000600082015250565b6000613522601483612e6e565b915061352d826134ec565b602082019050919050565b6000602082019050818103600083015261355181613515565b9050919050565b7f43616e646964617465206e616d652063616e6e6f7420626520656d7074792e00600082015250565b600061358e601f83612e6e565b915061359982613558565b602082019050919050565b600060208201905081810360008301526135bd81613581565b9050919050565b7f43616e64696461746520616c726561647920726567697374657265642e000000600082015250565b60006135fa601d83612e6e565b9150613605826135c4565b602082019050919050565b60006020820190508181036000830152613629816135ed565b9050919050565b7f4e6174696f6e616c20494420616c726561647920726567697374657265642e00600082015250565b6000613666601f83612e6e565b915061367182613630565b602082019050919050565b6000602082019050818103600083015261369581613659565b9050919050565b60008190508160005260206000209050919050565b60006020601f8301049050919050565b600082821b905092915050565b6000600883026136fe7fffffffffffffffffffffffffffffffffffffffffffffffffffffffffffffffff826136c1565b61370886836136c1565b95508019841693508086168417925050509392505050565b6000819050919050565b600061374561374061373b84612e0b565b613720565b612e0b565b9050919050565b6000819050919050565b61375f8361372a565b61377361376b8261374c565b8484546136ce565b825550505050565b600090565b61378861377b565b613793818484613756565b505050565b5b818110156137b7576137ac600082613780565b600181019050613799565b5050565b601f8211156137fc576137cd8161369c565b6137d6846136b1565b810160208510156137e5578190505b6137f96137f1856136b1565b830182613798565b50505b505050565b600082821c905092915050565b600061381f60001984600802613801565b1980831691505092915050565b6000613838838361380e565b9150826002028217905092915050565b61385182612a61565b67ffffffffffffffff81111561386a57613869612c25565b5b6138748254613344565b61387f8282856137bb565b600060209050601f8311600181146138b257600084156138a0578287015190505b6138aa858261382c565b865550613912565b601f1984166138c08661369c565b60005b828110156138e8578489015182556001820191506020850194506020810190506138c3565b868310156139055784890151613901601f89168261380e565b8355505b6001600288020188555050505b505050505050565b600060808201905061392f6000830187612f23565b81810360208301526139418186612e7f565b905081810360408301526139558185612e7f565b905081810360608301526139698184612e7f565b905095945050505050565b6000815461398181613344565b61398b8186613499565b945060018216600081146139a657600181146139bb576139ee565b60ff19831686528115158202860193506139ee565b6139c48561369c565b60005b838110156139e6578154818901526001820191506020810190506139c7565b838801955050505b50505092915050565b6000613a038284613974565b915081905092915050565b7f4e487b7100000000000000000000000000000000000000000000000000000000600052601160045260246000fd5b6000613a4882612e0b565b91507fffffffffffffffffffffffffffffffffffffffffffffffffffffffffffffffff8203613a7a57613a79613a0e565b5b600182019050919050565b7f566f74696e67206973206e6f74206163746976652e0000000000000000000000600082015250565b6000613abb601583612e6e565b9150613ac682613a85565b602082019050919050565b60006020820190508181036000830152613aea81613aae565b9050919050565b7f596f7520617265206e6f74207265676973746572656420746f20766f74652e00600082015250565b6000613b27601f83612e6e565b9150613b3282613af1565b602082019050919050565b60006020820190508181036000830152613b5681613b1a565b9050919050565b7f596f75206861766520616c726561647920766f7465642e000000000000000000600082015250565b6000613b93601783612e6e565b9150613b9e82613b5d565b602082019050919050565b60006020820190508181036000830152613bc281613b86565b9050919050565b7f4e6174696f6e616c20494420646f6573206e6f74206d617463682e0000000000600082015250565b6000613bff601b83612e6e565b9150613c0a82613bc9565b602082019050919050565b60006020820190508181036000830152613c2e81613bf2565b9050919050565b7f4172656120646f6573206e6f74206d617463682074686520766f74657227732060008201527f7265676973746572656420617265612e00000000000000000000000000000000602082015250565b6000613c91603083612e6e565b9150613c9c82613c35565b604082019050919050565b60006020820190508181036000830152613cc081613c84565b9050919050565b7f496e76616c69642063616e6469646174652e0000000000000000000000000000600082015250565b6000613cfd601283612e6e565b9150613d0882613cc7565b602082019050919050565b60006020820190508181036000830152613d2c81613cf0565b9050919050565b7f43616e64696461746520616e6420766f746572206d75737420626520696e207460008201527f68652073616d6520617265612e00000000000000000000000000000000000000602082015250565b6000613d8f602d83612e6e565b9150613d9a82613d33565b604082019050919050565b60006020820190508181036000830152613dbe81613d82565b9050919050565b7f566f74696e67206c696d697420666f722074686973206172656120686173206260008201527f65656e20726561636865642e0000000000000000000000000000000000000000602082015250565b6000613e21602c83612e6e565b9150613e2c82613dc5565b604082019050919050565b60006020820190508181036000830152613e5081613e14565b9050919050565b6000613e6282612e0b565b9150613e6d83612e0b565b9250828201905080821115613e8557613e84613a0e565b5b92915050565b6000606082019050613ea06000830186612f23565b613ead6020830185612f23565b8181036040830152613ebf8184612e7f565b9050949350505050565b7f41726561206e616d652063616e6e6f7420626520656d7074792e000000000000600082015250565b6000613eff601a83612e6e565b9150613f0a82613ec9565b602082019050919050565b60006020820190508181036000830152613f2e81613ef2565b9050919050565b7f41726561206d7573742068617665207265676973746572656420766f7465727360008201527f2e00000000000000000000000000000000000000000000000000000000000000602082015250565b6000613f91602183612e6e565b9150613f9c82613f35565b604082019050919050565b60006020820190508181036000830152613fc081613f84565b9050919050565b7f4172656120616c7265616479206578697374732e000000000000000000000000600082015250565b6000613ffd601483612e6e565b915061400882613fc7565b602082019050919050565b6000602082019050818103600083015261402c81613ff0565b9050919050565b7f566f74657220616c726561647920726567697374657265642e00000000000000600082015250565b6000614069601983612e6e565b915061407482614033565b602082019050919050565b600060208201905081810360008301526140988161405c565b9050919050565b60006060820190506140b46000830186612f23565b81810360208301526140c68185612e7f565b905081810360408301526140da8184612e7f565b9050949350505050565b60006060820190506140f96000830186612f23565b6141066020830185612f32565b81810360408301526141188184612e7f565b905094935050505056fea264697066735822122071f872ff30f956dbd8567455a3d4c605c4ac5a8d5d302fa66c0a6b814c16749f64736f6c634300081c0033",
  "linkReferences": {},
  "deployedLinkReferences": {}
}