{
  "_format": "hh-sol-artifact-1",
  "contractName": "VotingSystem",
  "sourceName": "contracts/VotingSystem.sol",
  "abi": [
    {
      "inputs": [],
      "stateMutability": "nonpayable",
      "type": "constructor"
    },
    {
      "anonymous": false,
      "inputs": [
        {
          "indexed": false,
          "internalType": "address",
          "name": "candidate",
          "type": "address"
        },
        {
          "indexed": false,
          "internalType": "string",
          "name": "name",
          "type": "string"
        },
        {
          "indexed": false,
          "internalType": "string",
          "name": "nationalID",
          "type": "string"
        },
        {
          "indexed": false,
          "internalType": "string",
          "name": "area",
          "type": "string"
        }
      ],
      "name": "CandidateRegistered",
      "type": "event"
    },
    {
      "anonymous": false,
      "inputs": [
        {
          "indexed": false,
          "internalType": "address",
          "name": "voter",
          "type": "address"
        },
        {
          "indexed": false,
          "internalType": "address",
          "name": "candidate",
          "type": "address"
        },
        {
          "indexed": false,
          "internalType": "string",
          "name": "area",
          "type": "string"
        }
      ],
      "name": "VoteCasted",
      "type": "event"
    },
    {
      "anonymous": false,
      "inputs": [
        {
          "indexed": false,
          "internalType": "address",
          "name": "voter",
          "type": "address"
        },
        {
          "indexed": false,
          "internalType": "string",
          "name": "nationalID",
          "type": "string"
        },
        {
          "indexed": false,
          "internalType": "string",
          "name": "area",
          "type": "string"
        }
      ],
      "name": "VoterRegistered",
      "type": "event"
    },
    {
      "anonymous": false,
      "inputs": [
        {
          "indexed": false,
          "internalType": "address",
          "name": "winner",
          "type": "address"
        },
        {
          "indexed": false,
          "internalType": "uint256",
          "name": "voteCount",
          "type": "uint256"
        },
        {
          "indexed": false,
          "internalType": "string",
          "name": "area",
          "type": "string"
        }
      ],
      "name": "VotingEnded",
      "type": "event"
    },
    {
      "inputs": [
        {
          "internalType": "string",
          "name": "_areaName",
          "type": "string"
        },
        {
          "internalType": "uint256",
          "name": "_maxVoters",
          "type": "uint256"
        }
      ],
      "name": "addArea",
      "outputs": [],
      "stateMutability": "nonpayable",
      "type": "function"
    },
    {
      "inputs": [],
      "name": "admin",
      "outputs": [
        {
          "internalType": "address",
          "name": "",
          "type": "address"
        }
      ],
      "stateMutability": "view",
      "type": "function"
    },
    {
      "inputs": [
        {
          "internalType": "uint256",
          "name": "",
          "type": "uint256"
        }
      ],
      "name": "areaList",
      "outputs": [
        {
          "internalType": "string",
          "name": "",
          "type": "string"
        }
      ],
      "stateMutability": "view",
      "type": "function"
    },
    {
      "inputs": [
        {
          "internalType": "string",
          "name": "",
          "type": "string"
        }
      ],
      "name": "areas",
      "outputs": [
        {
          "internalType": "uint256",
          "name": "maxVoters",
          "type": "uint256"
        },
        {
          "internalType": "uint256",
          "name": "currentVotes",
          "type": "uint256"
        }
      ],
      "stateMutability": "view",
      "type": "function"
    },
    {
      "inputs": [
        {
          "internalType": "uint256",
          "name": "",
          "type": "uint256"
        }
      ],
      "name": "candidateList",
      "outputs": [
        {
          "internalType": "address",
          "name": "",
          "type": "address"
        }
      ],
      "stateMutability": "view",
      "type": "function"
    },
    {
      "inputs": [
        {
          "internalType": "address",
          "name": "",
          "type": "address"
        }
      ],
      "name": "candidates",
      "outputs": [
        {
          "internalType": "string",
          "name": "name",
          "type": "string"
        },
        {
          "internalType": "address",
          "name": "candidateAddress",
          "type": "address"
        },
        {
          "internalType": "uint256",
          "name": "voteCount",
          "type": "uint256"
        },
        {
          "internalType": "string",
          "name": "area",
          "type": "string"
        },
        {
          "internalType": "string",
          "name": "nationalID",
          "type": "string"
        }
      ],
      "stateMutability": "view",
      "type": "function"
    },
    {
      "inputs": [],
      "name": "endVoting",
      "outputs": [],
      "stateMutability": "nonpayable",
      "type": "function"
    },
    {
      "inputs": [],
      "name": "getAreas",
      "outputs": [
        {
          "internalType": "string[]",
          "name": "",
          "type": "string[]"
        }
      ],
      "stateMutability": "view",
      "type": "function"
    },
    {
      "inputs": [],
      "name": "getCandidates",
      "outputs": [
        {
          "internalType": "string[]",
          "name": "",
          "type": "string[]"
        }
      ],
      "stateMutability": "view",
      "type": "function"
    },
    {
      "inputs": [
        {
          "internalType": "string",
          "name": "_areaName",
          "type": "string"
        }
      ],
      "name": "getCandidatesByArea",
      "outputs": [
        {
          "internalType": "address[]",
          "name": "",
          "type": "address[]"
        },
        {
          "internalType": "string[]",
          "name": "",
          "type": "string[]"
        }
      ],
      "stateMutability": "view",
      "type": "function"
    },
    {
      "inputs": [],
      "name": "getTotalValidVotersByAllAreas",
      "outputs": [
        {
          "internalType": "string[]",
          "name": "",
          "type": "string[]"
        },
        {
          "internalType": "uint256[]",
          "name": "",
          "type": "uint256[]"
        }
      ],
      "stateMutability": "view",
      "type": "function"
    },
    {
      "inputs": [
        {
          "internalType": "string",
          "name": "_areaName",
          "type": "string"
        }
      ],
      "name": "getWinnerByArea",
      "outputs": [
        {
          "internalType": "address",
          "name": "",
          "type": "address"
        },
        {
          "internalType": "string",
          "name": "",
          "type": "string"
        },
        {
          "internalType": "uint256",
          "name": "",
          "type": "uint256"
        }
      ],
      "stateMutability": "view",
      "type": "function"
    },
    {
      "inputs": [
        {
          "internalType": "address",
          "name": "_candidate",
          "type": "address"
        },
        {
          "internalType": "string",
          "name": "_name",
          "type": "string"
        },
        {
          "internalType": "string",
          "name": "_nationalID",
          "type": "string"
        },
        {
          "internalType": "string",
          "name": "_areaName",
          "type": "string"
        }
      ],
      "name": "registerCandidate",
      "outputs": [],
      "stateMutability": "nonpayable",
      "type": "function"
    },
    {
      "inputs": [
        {
          "internalType": "address",
          "name": "_voter",
          "type": "address"
        },
        {
          "internalType": "string",
          "name": "_nationalID",
          "type": "string"
        },
        {
          "internalType": "string",
          "name": "_areaName",
          "type": "string"
        }
      ],
      "name": "registerVoter",
      "outputs": [],
      "stateMutability": "nonpayable",
      "type": "function"
    },
    {
      "inputs": [],
      "name": "startVoting",
      "outputs": [],
      "stateMutability": "nonpayable",
      "type": "function"
    },
    {
      "inputs": [
        {
          "internalType": "string",
          "name": "_candidateName",
          "type": "string"
        },
        {
          "internalType": "string",
          "name": "_nationalID",
          "type": "string"
        },
        {
          "internalType": "string",
          "name": "_area",
          "type": "string"
        }
      ],
      "name": "vote",
      "outputs": [],
      "stateMutability": "nonpayable",
      "type": "function"
    },
    {
      "inputs": [
        {
          "internalType": "uint256",
          "name": "",
          "type": "uint256"
        }
      ],
      "name": "voterList",
      "outputs": [
        {
          "internalType": "address",
          "name": "",
          "type": "address"
        }
      ],
      "stateMutability": "view",
      "type": "function"
    },
    {
      "inputs": [
        {
          "internalType": "address",
          "name": "",
          "type": "address"
        }
      ],
      "name": "voters",
      "outputs": [
        {
          "internalType": "bool",
          "name": "isRegistered",
          "type": "bool"
        },
        {
          "internalType": "bool",
          "name": "hasVoted",
          "type": "bool"
        },
        {
          "internalType": "address",
          "name": "votedCandidate",
          "type": "address"
        },
        {
          "internalType": "string",
          "name": "area",
          "type": "string"
        },
        {
          "internalType": "string",
          "name": "nationalID",
          "type": "string"
        }
      ],
      "stateMutability": "view",
      "type": "function"
    },
    {
      "inputs": [],
      "name": "votingEnded",
      "outputs": [
        {
          "internalType": "bool",
          "name": "",
          "type": "bool"
        }
      ],
      "stateMutability": "view",
      "type": "function"
    },
    {
      "inputs": [],
      "name": "votingStarted",
      "outputs": [
        {
          "internalType": "bool",
          "name": "",
          "type": "bool"
        }
      ],
      "stateMutability": "view",
      "type": "function"
    }
  ],
  "bytecode": "0x6080604052348015600f57600080fd5b50336000806101000a81548173ffffffffffffffffffffffffffffffffffffffff021916908373ffffffffffffffffffffffffffffffffffffffff1602179055506145ba8061005f6000396000f3fe608060405234801561001057600080fd5b506004361061012c5760003560e01c80638dfba9ac116100ad578063b13c744b11610071578063b13c744b14610351578063bb8fab8e14610381578063c3403ddf1461039d578063d4a7de3e146103a7578063f851a440146103d85761012c565b80638dfba9ac146102a857806395f59fe1146102c75780639d5a0529146102e3578063a3ec138d14610301578063ac6ba3c3146103355761012c565b8063432dea47116100f4578063432dea47146101c3578063438aabdc146101f557806350e2e8af1461022657806383d948b7146102565780638ab66a90146102745761012c565b806306a49fce146101315780631ec6b60a1461014f57806321b3f528146101595780632ea3981a146101755780633e46d27914610193575b600080fd5b6101396103f6565b6040516101469190612e68565b60405180910390f35b61015761059b565b005b610173600480360381019061016e9190613031565b6106aa565b005b61017d610b0c565b60405161018a9190612e68565b60405180910390f35b6101ad60048036038101906101a89190613122565b610be5565b6040516101ba9190613199565b60405180910390f35b6101dd60048036038101906101d891906131bb565b610c91565b6040516101ec93929190613222565b60405180910390f35b61020f600480360381019061020a91906131bb565b61105b565b60405161021d92919061331e565b60405180910390f35b610240600480360381019061023b9190613122565b611523565b60405161024d9190613355565b60405180910390f35b61025e611562565b60405161026b919061338b565b60405180910390f35b61028e600480360381019061028991906133a6565b611575565b60405161029f9594939291906133d3565b60405180910390f35b6102b0611763565b6040516102be9291906134f9565b60405180910390f35b6102e160048036038101906102dc9190613530565b611abc565b005b6102eb612126565b6040516102f8919061338b565b60405180910390f35b61031b600480360381019061031691906133a6565b612139565b60405161032c9594939291906135d7565b60405180910390f35b61034f600480360381019061034a9190613638565b6122b9565b005b61036b60048036038101906103669190613122565b6124b6565b6040516103789190613355565b60405180910390f35b61039b60048036038101906103969190613694565b6124f5565b005b6103a56128f6565b005b6103c160048036038101906103bc91906131bb565b612cb8565b6040516103cf92919061371f565b60405180910390f35b6103e0612cf2565b6040516103ed9190613355565b60405180910390f35b6060600060068054905067ffffffffffffffff81111561041957610418612f06565b5b60405190808252806020026020018201604052801561044c57816020015b60608152602001906001900390816104375790505b50905060005b60068054905081101561059357600360006006838154811061047757610476613748565b5b9060005260206000200160009054906101000a900473ffffffffffffffffffffffffffffffffffffffff1673ffffffffffffffffffffffffffffffffffffffff1673ffffffffffffffffffffffffffffffffffffffff16815260200190815260200160002060000180546104ea906137a6565b80601f0160208091040260200160405190810160405280929190818152602001828054610516906137a6565b80156105635780601f1061053857610100808354040283529160200191610563565b820191906000526020600020905b81548152906001019060200180831161054657829003601f168201915b505050505082828151811061057b5761057a613748565b5b60200260200101819052508080600101915050610452565b508091505090565b60008054906101000a900473ffffffffffffffffffffffffffffffffffffffff1673ffffffffffffffffffffffffffffffffffffffff163373ffffffffffffffffffffffffffffffffffffffff1614610629576040517f08c379a000000000000000000000000000000000000000000000000000000000815260040161062090613849565b60405180910390fd5b60026006805490501015610672576040517f08c379a0000000000000000000000000000000000000000000000000000000008152600401610669906138db565b60405180910390fd5b6001600960006101000a81548160ff0219169083151502179055506000600960016101000a81548160ff021916908315150217905550565b60008054906101000a900473ffffffffffffffffffffffffffffffffffffffff1673ffffffffffffffffffffffffffffffffffffffff163373ffffffffffffffffffffffffffffffffffffffff1614610738576040517f08c379a000000000000000000000000000000000000000000000000000000000815260040161072f90613849565b60405180910390fd5b600060058260405161074a9190613937565b9081526020016040518091039020600001541161079c576040517f08c379a00000000000000000000000000000000000000000000000000000000081526004016107939061399a565b60405180910390fd5b60008351116107e0576040517f08c379a00000000000000000000000000000000000000000000000000000000081526004016107d790613a06565b60405180910390fd5b600073ffffffffffffffffffffffffffffffffffffffff16600360008673ffffffffffffffffffffffffffffffffffffffff1673ffffffffffffffffffffffffffffffffffffffff16815260200190815260200160002060010160009054906101000a900473ffffffffffffffffffffffffffffffffffffffff1673ffffffffffffffffffffffffffffffffffffffff16146108b1576040517f08c379a00000000000000000000000000000000000000000000000000000000081526004016108a890613a72565b60405180910390fd5b6004826040516108c19190613937565b908152602001604051809103902060009054906101000a900460ff161561091d576040517f08c379a000000000000000000000000000000000000000000000000000000000815260040161091490613ade565b60405180910390fd5b6040518060a001604052808481526020018573ffffffffffffffffffffffffffffffffffffffff1681526020016000815260200182815260200183815250600360008673ffffffffffffffffffffffffffffffffffffffff1673ffffffffffffffffffffffffffffffffffffffff16815260200190815260200160002060008201518160000190816109af9190613caa565b5060208201518160010160006101000a81548173ffffffffffffffffffffffffffffffffffffffff021916908373ffffffffffffffffffffffffffffffffffffffff160217905550604082015181600201556060820151816003019081610a169190613caa565b506080820151816004019081610a2c9190613caa565b509050506001600483604051610a429190613937565b908152602001604051809103902060006101000a81548160ff0219169083151502179055506006849080600181540180825580915050600190039060005260206000200160009091909190916101000a81548173ffffffffffffffffffffffffffffffffffffffff021916908373ffffffffffffffffffffffffffffffffffffffff1602179055507ed6fea68f71a20d8149f227f87e8cf7e6ad320b2dad4b45465b14599b80ee0984848484604051610afe9493929190613d7c565b60405180910390a150505050565b60606007805480602002602001604051908101604052809291908181526020016000905b82821015610bdc578382906000526020600020018054610b4f906137a6565b80601f0160208091040260200160405190810160405280929190818152602001828054610b7b906137a6565b8015610bc85780601f10610b9d57610100808354040283529160200191610bc8565b820191906000526020600020905b815481529060010190602001808311610bab57829003601f168201915b505050505081526020019060010190610b30565b50505050905090565b60078181548110610bf557600080fd5b906000526020600020016000915090508054610c10906137a6565b80601f0160208091040260200160405190810160405280929190818152602001828054610c3c906137a6565b8015610c895780601f10610c5e57610100808354040283529160200191610c89565b820191906000526020600020905b815481529060010190602001808311610c6c57829003601f168201915b505050505081565b60006060600080600585604051610ca89190613937565b90815260200160405180910390206000015411610cfa576040517f08c379a0000000000000000000000000000000000000000000000000000000008152600401610cf19061399a565b60405180910390fd5b600080606060005b6006805490508110156110475787604051602001610d209190613937565b604051602081830303815290604052805190602001206003600060068481548110610d4e57610d4d613748565b5b9060005260206000200160009054906101000a900473ffffffffffffffffffffffffffffffffffffffff1673ffffffffffffffffffffffffffffffffffffffff1673ffffffffffffffffffffffffffffffffffffffff168152602001908152602001600020600301604051602001610dc69190613e59565b604051602081830303815290604052805190602001200361103a57826003600060068481548110610dfa57610df9613748565b5b9060005260206000200160009054906101000a900473ffffffffffffffffffffffffffffffffffffffff1673ffffffffffffffffffffffffffffffffffffffff1673ffffffffffffffffffffffffffffffffffffffff168152602001908152602001600020600201541115611039576003600060068381548110610e8157610e80613748565b5b9060005260206000200160009054906101000a900473ffffffffffffffffffffffffffffffffffffffff1673ffffffffffffffffffffffffffffffffffffffff1673ffffffffffffffffffffffffffffffffffffffff16815260200190815260200160002060020154925060068181548110610f0057610eff613748565b5b9060005260206000200160009054906101000a900473ffffffffffffffffffffffffffffffffffffffff1693506003600060068381548110610f4557610f44613748565b5b9060005260206000200160009054906101000a900473ffffffffffffffffffffffffffffffffffffffff1673ffffffffffffffffffffffffffffffffffffffff1673ffffffffffffffffffffffffffffffffffffffff1681526020019081526020016000206000018054610fb8906137a6565b80601f0160208091040260200160405190810160405280929190818152602001828054610fe4906137a6565b80156110315780601f1061100657610100808354040283529160200191611031565b820191906000526020600020905b81548152906001019060200180831161101457829003601f168201915b505050505091505b5b8080600101915050610d02565b508281839550955095505050509193909250565b60608060006005846040516110709190613937565b908152602001604051809103902060000154116110c2576040517f08c379a00000000000000000000000000000000000000000000000000000000081526004016110b99061399a565b60405180910390fd5b6000805b6006805490508110156111c157846040516020016110e49190613937565b60405160208183030381529060405280519060200120600360006006848154811061111257611111613748565b5b9060005260206000200160009054906101000a900473ffffffffffffffffffffffffffffffffffffffff1673ffffffffffffffffffffffffffffffffffffffff1673ffffffffffffffffffffffffffffffffffffffff16815260200190815260200160002060030160405160200161118a9190613e59565b60405160208183030381529060405280519060200120036111b45781806111b090613e9f565b9250505b80806001019150506110c6565b5060008167ffffffffffffffff8111156111de576111dd612f06565b5b60405190808252806020026020018201604052801561120c5781602001602082028036833780820191505090505b50905060008267ffffffffffffffff81111561122b5761122a612f06565b5b60405190808252806020026020018201604052801561125e57816020015b60608152602001906001900390816112495790505b5090506000805b60068054905081101561151357876040516020016112839190613937565b6040516020818303038152906040528051906020012060036000600684815481106112b1576112b0613748565b5b9060005260206000200160009054906101000a900473ffffffffffffffffffffffffffffffffffffffff1673ffffffffffffffffffffffffffffffffffffffff1673ffffffffffffffffffffffffffffffffffffffff1681526020019081526020016000206003016040516020016113299190613e59565b6040516020818303038152906040528051906020012003611506576006818154811061135857611357613748565b5b9060005260206000200160009054906101000a900473ffffffffffffffffffffffffffffffffffffffff1684838151811061139657611395613748565b5b602002602001019073ffffffffffffffffffffffffffffffffffffffff16908173ffffffffffffffffffffffffffffffffffffffff168152505060036000600683815481106113e8576113e7613748565b5b9060005260206000200160009054906101000a900473ffffffffffffffffffffffffffffffffffffffff1673ffffffffffffffffffffffffffffffffffffffff1673ffffffffffffffffffffffffffffffffffffffff168152602001908152602001600020600001805461145b906137a6565b80601f0160208091040260200160405190810160405280929190818152602001828054611487906137a6565b80156114d45780601f106114a9576101008083540402835291602001916114d4565b820191906000526020600020905b8154815290600101906020018083116114b757829003601f168201915b50505050508383815181106114ec576114eb613748565b5b6020026020010181905250818061150290613e9f565b9250505b8080600101915050611265565b5082829550955050505050915091565b6008818154811061153357600080fd5b906000526020600020016000915054906101000a900473ffffffffffffffffffffffffffffffffffffffff1681565b600960009054906101000a900460ff1681565b6003602052806000526040600020600091509050806000018054611598906137a6565b80601f01602080910402602001604051908101604052809291908181526020018280546115c4906137a6565b80156116115780601f106115e657610100808354040283529160200191611611565b820191906000526020600020905b8154815290600101906020018083116115f457829003601f168201915b5050505050908060010160009054906101000a900473ffffffffffffffffffffffffffffffffffffffff1690806002015490806003018054611652906137a6565b80601f016020809104026020016040519081016040528092919081815260200182805461167e906137a6565b80156116cb5780601f106116a0576101008083540402835291602001916116cb565b820191906000526020600020905b8154815290600101906020018083116116ae57829003601f168201915b5050505050908060040180546116e0906137a6565b80601f016020809104026020016040519081016040528092919081815260200182805461170c906137a6565b80156117595780601f1061172e57610100808354040283529160200191611759565b820191906000526020600020905b81548152906001019060200180831161173c57829003601f168201915b5050505050905085565b606080600060078054905067ffffffffffffffff81111561178757611786612f06565b5b6040519080825280602002602001820160405280156117ba57816020015b60608152602001906001900390816117a55790505b509050600060078054905067ffffffffffffffff8111156117de576117dd612f06565b5b60405190808252806020026020018201604052801561180c5781602001602082028036833780820191505090505b50905060005b600780549050811015611aaf576000806007838154811061183657611835613748565b5b90600052602060002001805461184b906137a6565b80601f0160208091040260200160405190810160405280929190818152602001828054611877906137a6565b80156118c45780601f10611899576101008083540402835291602001916118c4565b820191906000526020600020905b8154815290600101906020018083116118a757829003601f168201915b5050505050905060005b600880549050811015611a605760016000600883815481106118f3576118f2613748565b5b9060005260206000200160009054906101000a900473ffffffffffffffffffffffffffffffffffffffff1673ffffffffffffffffffffffffffffffffffffffff1673ffffffffffffffffffffffffffffffffffffffff16815260200190815260200160002060000160009054906101000a900460ff168015611a3f5750816040516020016119819190613937565b6040516020818303038152906040528051906020012060016000600884815481106119af576119ae613748565b5b9060005260206000200160009054906101000a900473ffffffffffffffffffffffffffffffffffffffff1673ffffffffffffffffffffffffffffffffffffffff1673ffffffffffffffffffffffffffffffffffffffff168152602001908152602001600020600101604051602001611a279190613e59565b60405160208183030381529060405280519060200120145b15611a53578280611a4f90613e9f565b9350505b80806001019150506118ce565b5080858481518110611a7557611a74613748565b5b602002602001018190525081848481518110611a9457611a93613748565b5b60200260200101818152505050508080600101915050611812565b5081819350935050509091565b600960009054906101000a900460ff168015611ae55750600960019054906101000a900460ff16155b611b24576040517f08c379a0000000000000000000000000000000000000000000000000000000008152600401611b1b90613f33565b60405180910390fd5b6000600160003373ffffffffffffffffffffffffffffffffffffffff1673ffffffffffffffffffffffffffffffffffffffff16815260200190815260200160002090508060000160009054906101000a900460ff16611bb8576040517f08c379a0000000000000000000000000000000000000000000000000000000008152600401611baf90613f9f565b60405180910390fd5b8060000160019054906101000a900460ff1615611c0a576040517f08c379a0000000000000000000000000000000000000000000000000000000008152600401611c019061400b565b60405180910390fd5b82604051602001611c1b9190613937565b6040516020818303038152906040528051906020012081600201604051602001611c459190613e59565b6040516020818303038152906040528051906020012014611c9b576040517f08c379a0000000000000000000000000000000000000000000000000000000008152600401611c9290614077565b60405180910390fd5b81604051602001611cac9190613937565b6040516020818303038152906040528051906020012081600101604051602001611cd69190613e59565b6040516020818303038152906040528051906020012014611d2c576040517f08c379a0000000000000000000000000000000000000000000000000000000008152600401611d2390614109565b60405180910390fd5b6000805b600680549050811015611e625785604051602001611d4e9190613937565b604051602081830303815290604052805190602001206003600060068481548110611d7c57611d7b613748565b5b9060005260206000200160009054906101000a900473ffffffffffffffffffffffffffffffffffffffff1673ffffffffffffffffffffffffffffffffffffffff1673ffffffffffffffffffffffffffffffffffffffff168152602001908152602001600020600001604051602001611df49190613e59565b6040516020818303038152906040528051906020012003611e555760068181548110611e2357611e22613748565b5b9060005260206000200160009054906101000a900473ffffffffffffffffffffffffffffffffffffffff169150611e62565b8080600101915050611d30565b50600073ffffffffffffffffffffffffffffffffffffffff168173ffffffffffffffffffffffffffffffffffffffff1603611ed2576040517f08c379a0000000000000000000000000000000000000000000000000000000008152600401611ec990614175565b60405180910390fd5b82604051602001611ee39190613937565b60405160208183030381529060405280519060200120600360008373ffffffffffffffffffffffffffffffffffffffff1673ffffffffffffffffffffffffffffffffffffffff168152602001908152602001600020600301604051602001611f4b9190613e59565b6040516020818303038152906040528051906020012014611fa1576040517f08c379a0000000000000000000000000000000000000000000000000000000008152600401611f9890614207565b60405180910390fd5b6000600584604051611fb39190613937565b90815260200160405180910390209050806000015481600101541061200d576040517f08c379a000000000000000000000000000000000000000000000000000000000815260040161200490614299565b60405180910390fd5b60018360000160016101000a81548160ff021916908315150217905550818360000160026101000a81548173ffffffffffffffffffffffffffffffffffffffff021916908373ffffffffffffffffffffffffffffffffffffffff1602179055506001600360008473ffffffffffffffffffffffffffffffffffffffff1673ffffffffffffffffffffffffffffffffffffffff16815260200190815260200160002060020160008282546120c091906142b9565b9250508190555060018160010160008282546120dc91906142b9565b925050819055507f8d1cfb67c4b6ddfa4950ade9b8090e8da23fb82114fea7fd43c4cbbe2c2367b3338386604051612116939291906142ed565b60405180910390a1505050505050565b600960019054906101000a900460ff1681565b60016020528060005260406000206000915090508060000160009054906101000a900460ff16908060000160019054906101000a900460ff16908060000160029054906101000a900473ffffffffffffffffffffffffffffffffffffffff16908060010180546121a8906137a6565b80601f01602080910402602001604051908101604052809291908181526020018280546121d4906137a6565b80156122215780601f106121f657610100808354040283529160200191612221565b820191906000526020600020905b81548152906001019060200180831161220457829003601f168201915b505050505090806002018054612236906137a6565b80601f0160208091040260200160405190810160405280929190818152602001828054612262906137a6565b80156122af5780601f10612284576101008083540402835291602001916122af565b820191906000526020600020905b81548152906001019060200180831161229257829003601f168201915b5050505050905085565b60008054906101000a900473ffffffffffffffffffffffffffffffffffffffff1673ffffffffffffffffffffffffffffffffffffffff163373ffffffffffffffffffffffffffffffffffffffff1614612347576040517f08c379a000000000000000000000000000000000000000000000000000000000815260040161233e90613849565b60405180910390fd5b600082511161238b576040517f08c379a000000000000000000000000000000000000000000000000000000000815260040161238290614377565b60405180910390fd5b600081116123ce576040517f08c379a00000000000000000000000000000000000000000000000000000000081526004016123c590614409565b60405180910390fd5b60006005836040516123e09190613937565b90815260200160405180910390206000015414612432576040517f08c379a000000000000000000000000000000000000000000000000000000000815260040161242990614475565b60405180910390fd5b604051806040016040528082815260200160008152506005836040516124589190613937565b908152602001604051809103902060008201518160000155602082015181600101559050506007829080600181540180825580915050600190039060005260206000200160009091909190915090816124b19190613caa565b505050565b600681815481106124c657600080fd5b906000526020600020016000915054906101000a900473ffffffffffffffffffffffffffffffffffffffff1681565b60008054906101000a900473ffffffffffffffffffffffffffffffffffffffff1673ffffffffffffffffffffffffffffffffffffffff163373ffffffffffffffffffffffffffffffffffffffff1614612583576040517f08c379a000000000000000000000000000000000000000000000000000000000815260040161257a90613849565b60405180910390fd5b60006005826040516125959190613937565b908152602001604051809103902060000154116125e7576040517f08c379a00000000000000000000000000000000000000000000000000000000081526004016125de9061399a565b60405180910390fd5b600160008473ffffffffffffffffffffffffffffffffffffffff1673ffffffffffffffffffffffffffffffffffffffff16815260200190815260200160002060000160009054906101000a900460ff1615612677576040517f08c379a000000000000000000000000000000000000000000000000000000000815260040161266e906144e1565b60405180910390fd5b6002826040516126879190613937565b908152602001604051809103902060009054906101000a900460ff16156126e3576040517f08c379a00000000000000000000000000000000000000000000000000000000081526004016126da90613ade565b60405180910390fd5b6040518060a00160405280600115158152602001600015158152602001600073ffffffffffffffffffffffffffffffffffffffff16815260200182815260200183815250600160008573ffffffffffffffffffffffffffffffffffffffff1673ffffffffffffffffffffffffffffffffffffffff16815260200190815260200160002060008201518160000160006101000a81548160ff02191690831515021790555060208201518160000160016101000a81548160ff02191690831515021790555060408201518160000160026101000a81548173ffffffffffffffffffffffffffffffffffffffff021916908373ffffffffffffffffffffffffffffffffffffffff16021790555060608201518160010190816128029190613caa565b5060808201518160020190816128189190613caa565b50905050600160028360405161282e9190613937565b908152602001604051809103902060006101000a81548160ff0219169083151502179055506008839080600181540180825580915050600190039060005260206000200160009091909190916101000a81548173ffffffffffffffffffffffffffffffffffffffff021916908373ffffffffffffffffffffffffffffffffffffffff1602179055507f96ac7a421360a2bd773d747b2f64b40a916821c4906dbfdebf787c292e741f7d8383836040516128e993929190614501565b60405180910390a1505050565b60008054906101000a900473ffffffffffffffffffffffffffffffffffffffff1673ffffffffffffffffffffffffffffffffffffffff163373ffffffffffffffffffffffffffffffffffffffff1614612984576040517f08c379a000000000000000000000000000000000000000000000000000000000815260040161297b90613849565b60405180910390fd5b600960009054906101000a900460ff1680156129ad5750600960019054906101000a900460ff16155b6129ec576040517f08c379a00000000000000000000000000000000000000000000000000000000081526004016129e390613f33565b60405180910390fd5b6001600960016101000a81548160ff0219169083151502179055506000600960006101000a81548160ff02191690831515021790555060005b600780549050811015612cb557600060078281548110612a4857612a47613748565b5b906000526020600020018054612a5d906137a6565b80601f0160208091040260200160405190810160405280929190818152602001828054612a89906137a6565b8015612ad65780601f10612aab57610100808354040283529160200191612ad6565b820191906000526020600020905b815481529060010190602001808311612ab957829003601f168201915b5050505050905060008060005b600680549050811015612c6957600060068281548110612b0657612b05613748565b5b9060005260206000200160009054906101000a900473ffffffffffffffffffffffffffffffffffffffff16905084604051602001612b449190613937565b60405160208183030381529060405280519060200120600360008373ffffffffffffffffffffffffffffffffffffffff1673ffffffffffffffffffffffffffffffffffffffff168152602001908152602001600020600301604051602001612bac9190613e59565b6040516020818303038152906040528051906020012003612c5b5782600360008373ffffffffffffffffffffffffffffffffffffffff1673ffffffffffffffffffffffffffffffffffffffff168152602001908152602001600020600201541115612c5a57600360008273ffffffffffffffffffffffffffffffffffffffff1673ffffffffffffffffffffffffffffffffffffffff1681526020019081526020016000206002015492508093505b5b508080600101915050612ae3565b507f3b281afe48905f20862f01b6e1bc6eaf6079665f84380a6022228a68c38308f0828285604051612c9d93929190614546565b60405180910390a15050508080600101915050612a25565b50565b6005818051602081018201805184825260208301602085012081835280955050505050506000915090508060000154908060010154905082565b60008054906101000a900473ffffffffffffffffffffffffffffffffffffffff1681565b600081519050919050565b600082825260208201905092915050565b6000819050602082019050919050565b600081519050919050565b600082825260208201905092915050565b60005b83811015612d7c578082015181840152602081019050612d61565b60008484015250505050565b6000601f19601f8301169050919050565b6000612da482612d42565b612dae8185612d4d565b9350612dbe818560208601612d5e565b612dc781612d88565b840191505092915050565b6000612dde8383612d99565b905092915050565b6000602082019050919050565b6000612dfe82612d16565b612e088185612d21565b935083602082028501612e1a85612d32565b8060005b85811015612e565784840389528151612e378582612dd2565b9450612e4283612de6565b925060208a01995050600181019050612e1e565b50829750879550505050505092915050565b60006020820190508181036000830152612e828184612df3565b905092915050565b6000604051905090565b600080fd5b600080fd5b600073ffffffffffffffffffffffffffffffffffffffff82169050919050565b6000612ec982612e9e565b9050919050565b612ed981612ebe565b8114612ee457600080fd5b50565b600081359050612ef681612ed0565b92915050565b600080fd5b600080fd5b7f4e487b7100000000000000000000000000000000000000000000000000000000600052604160045260246000fd5b612f3e82612d88565b810181811067ffffffffffffffff82111715612f5d57612f5c612f06565b5b80604052505050565b6000612f70612e8a565b9050612f7c8282612f35565b919050565b600067ffffffffffffffff821115612f9c57612f9b612f06565b5b612fa582612d88565b9050602081019050919050565b82818337600083830152505050565b6000612fd4612fcf84612f81565b612f66565b905082815260208101848484011115612ff057612fef612f01565b5b612ffb848285612fb2565b509392505050565b600082601f83011261301857613017612efc565b5b8135613028848260208601612fc1565b91505092915050565b6000806000806080858703121561304b5761304a612e94565b5b600061305987828801612ee7565b945050602085013567ffffffffffffffff81111561307a57613079612e99565b5b61308687828801613003565b935050604085013567ffffffffffffffff8111156130a7576130a6612e99565b5b6130b387828801613003565b925050606085013567ffffffffffffffff8111156130d4576130d3612e99565b5b6130e087828801613003565b91505092959194509250565b6000819050919050565b6130ff816130ec565b811461310a57600080fd5b50565b60008135905061311c816130f6565b92915050565b60006020828403121561313857613137612e94565b5b60006131468482850161310d565b91505092915050565b600082825260208201905092915050565b600061316b82612d42565b613175818561314f565b9350613185818560208601612d5e565b61318e81612d88565b840191505092915050565b600060208201905081810360008301526131b38184613160565b905092915050565b6000602082840312156131d1576131d0612e94565b5b600082013567ffffffffffffffff8111156131ef576131ee612e99565b5b6131fb84828501613003565b91505092915050565b61320d81612ebe565b82525050565b61321c816130ec565b82525050565b60006060820190506132376000830186613204565b81810360208301526132498185613160565b90506132586040830184613213565b949350505050565b600081519050919050565b600082825260208201905092915050565b6000819050602082019050919050565b61329581612ebe565b82525050565b60006132a7838361328c565b60208301905092915050565b6000602082019050919050565b60006132cb82613260565b6132d5818561326b565b93506132e08361327c565b8060005b838110156133115781516132f8888261329b565b9750613303836132b3565b9250506001810190506132e4565b5085935050505092915050565b6000604082019050818103600083015261333881856132c0565b9050818103602083015261334c8184612df3565b90509392505050565b600060208201905061336a6000830184613204565b92915050565b60008115159050919050565b61338581613370565b82525050565b60006020820190506133a0600083018461337c565b92915050565b6000602082840312156133bc576133bb612e94565b5b60006133ca84828501612ee7565b91505092915050565b600060a08201905081810360008301526133ed8188613160565b90506133fc6020830187613204565b6134096040830186613213565b818103606083015261341b8185613160565b9050818103608083015261342f8184613160565b90509695505050505050565b600081519050919050565b600082825260208201905092915050565b6000819050602082019050919050565b613470816130ec565b82525050565b60006134828383613467565b60208301905092915050565b6000602082019050919050565b60006134a68261343b565b6134b08185613446565b93506134bb83613457565b8060005b838110156134ec5781516134d38882613476565b97506134de8361348e565b9250506001810190506134bf565b5085935050505092915050565b600060408201905081810360008301526135138185612df3565b90508181036020830152613527818461349b565b90509392505050565b60008060006060848603121561354957613548612e94565b5b600084013567ffffffffffffffff81111561356757613566612e99565b5b61357386828701613003565b935050602084013567ffffffffffffffff81111561359457613593612e99565b5b6135a086828701613003565b925050604084013567ffffffffffffffff8111156135c1576135c0612e99565b5b6135cd86828701613003565b9150509250925092565b600060a0820190506135ec600083018861337c565b6135f9602083018761337c565b6136066040830186613204565b81810360608301526136188185613160565b9050818103608083015261362c8184613160565b90509695505050505050565b6000806040838503121561364f5761364e612e94565b5b600083013567ffffffffffffffff81111561366d5761366c612e99565b5b61367985828601613003565b925050602061368a8582860161310d565b9150509250929050565b6000806000606084860312156136ad576136ac612e94565b5b60006136bb86828701612ee7565b935050602084013567ffffffffffffffff8111156136dc576136db612e99565b5b6136e886828701613003565b925050604084013567ffffffffffffffff81111561370957613708612e99565b5b61371586828701613003565b9150509250925092565b60006040820190506137346000830185613213565b6137416020830184613213565b9392505050565b7f4e487b7100000000000000000000000000000000000000000000000000000000600052603260045260246000fd5b7f4e487b7100000000000000000000000000000000000000000000000000000000600052602260045260246000fd5b600060028204905060018216806137be57607f821691505b6020821081036137d1576137d0613777565b5b50919050565b7f4f6e6c792061646d696e2063616e20706572666f726d2074686973206163746960008201527f6f6e2e0000000000000000000000000000000000000000000000000000000000602082015250565b600061383360238361314f565b915061383e826137d7565b604082019050919050565b6000602082019050818103600083015261386281613826565b9050919050565b7f4174206c656173742074776f2063616e6469646174657320726571756972656460008201527f2e00000000000000000000000000000000000000000000000000000000000000602082015250565b60006138c560218361314f565b91506138d082613869565b604082019050919050565b600060208201905081810360008301526138f4816138b8565b9050919050565b600081905092915050565b600061391182612d42565b61391b81856138fb565b935061392b818560208601612d5e565b80840191505092915050565b60006139438284613906565b915081905092915050565b7f4172656120646f6573206e6f742065786973742e000000000000000000000000600082015250565b600061398460148361314f565b915061398f8261394e565b602082019050919050565b600060208201905081810360008301526139b381613977565b9050919050565b7f43616e646964617465206e616d652063616e6e6f7420626520656d7074792e00600082015250565b60006139f0601f8361314f565b91506139fb826139ba565b602082019050919050565b60006020820190508181036000830152613a1f816139e3565b9050919050565b7f43616e64696461746520616c726561647920726567697374657265642e000000600082015250565b6000613a5c601d8361314f565b9150613a6782613a26565b602082019050919050565b60006020820190508181036000830152613a8b81613a4f565b9050919050565b7f4e6174696f6e616c20494420616c726561647920726567697374657265642e00600082015250565b6000613ac8601f8361314f565b9150613ad382613a92565b602082019050919050565b60006020820190508181036000830152613af781613abb565b9050919050565b60008190508160005260206000209050919050565b60006020601f8301049050919050565b600082821b905092915050565b600060088302613b607fffffffffffffffffffffffffffffffffffffffffffffffffffffffffffffffff82613b23565b613b6a8683613b23565b95508019841693508086168417925050509392505050565b6000819050919050565b6000613ba7613ba2613b9d846130ec565b613b82565b6130ec565b9050919050565b6000819050919050565b613bc183613b8c565b613bd5613bcd82613bae565b848454613b30565b825550505050565b600090565b613bea613bdd565b613bf5818484613bb8565b505050565b5b81811015613c1957613c0e600082613be2565b600181019050613bfb565b5050565b601f821115613c5e57613c2f81613afe565b613c3884613b13565b81016020851015613c47578190505b613c5b613c5385613b13565b830182613bfa565b50505b505050565b600082821c905092915050565b6000613c8160001984600802613c63565b1980831691505092915050565b6000613c9a8383613c70565b9150826002028217905092915050565b613cb382612d42565b67ffffffffffffffff811115613ccc57613ccb612f06565b5b613cd682546137a6565b613ce1828285613c1d565b600060209050601f831160018114613d145760008415613d02578287015190505b613d0c8582613c8e565b865550613d74565b601f198416613d2286613afe565b60005b82811015613d4a57848901518255600182019150602085019450602081019050613d25565b86831015613d675784890151613d63601f891682613c70565b8355505b6001600288020188555050505b505050505050565b6000608082019050613d916000830187613204565b8181036020830152613da38186613160565b90508181036040830152613db78185613160565b90508181036060830152613dcb8184613160565b905095945050505050565b60008154613de3816137a6565b613ded81866138fb565b94506001821660008114613e085760018114613e1d57613e50565b60ff1983168652811515820286019350613e50565b613e2685613afe565b60005b83811015613e4857815481890152600182019150602081019050613e29565b838801955050505b50505092915050565b6000613e658284613dd6565b915081905092915050565b7f4e487b7100000000000000000000000000000000000000000000000000000000600052601160045260246000fd5b6000613eaa826130ec565b91507fffffffffffffffffffffffffffffffffffffffffffffffffffffffffffffffff8203613edc57613edb613e70565b5b600182019050919050565b7f566f74696e67206973206e6f74206163746976652e0000000000000000000000600082015250565b6000613f1d60158361314f565b9150613f2882613ee7565b602082019050919050565b60006020820190508181036000830152613f4c81613f10565b9050919050565b7f596f7520617265206e6f74207265676973746572656420746f20766f74652e00600082015250565b6000613f89601f8361314f565b9150613f9482613f53565b602082019050919050565b60006020820190508181036000830152613fb881613f7c565b9050919050565b7f596f75206861766520616c726561647920766f7465642e000000000000000000600082015250565b6000613ff560178361314f565b915061400082613fbf565b602082019050919050565b6000602082019050818103600083015261402481613fe8565b9050919050565b7f4e6174696f6e616c20494420646f6573206e6f74206d617463682e0000000000600082015250565b6000614061601b8361314f565b915061406c8261402b565b602082019050919050565b6000602082019050818103600083015261409081614054565b9050919050565b7f4172656120646f6573206e6f74206d617463682074686520766f74657227732060008201527f7265676973746572656420617265612e00000000000000000000000000000000602082015250565b60006140f360308361314f565b91506140fe82614097565b604082019050919050565b60006020820190508181036000830152614122816140e6565b9050919050565b7f496e76616c69642063616e646964617465206e616d652e000000000000000000600082015250565b600061415f60178361314f565b915061416a82614129565b602082019050919050565b6000602082019050818103600083015261418e81614152565b9050919050565b7f43616e64696461746520616e6420766f746572206d75737420626520696e207460008201527f68652073616d6520617265612e00000000000000000000000000000000000000602082015250565b60006141f1602d8361314f565b91506141fc82614195565b604082019050919050565b60006020820190508181036000830152614220816141e4565b9050919050565b7f566f74696e67206c696d697420666f722074686973206172656120686173206260008201527f65656e20726561636865642e0000000000000000000000000000000000000000602082015250565b6000614283602c8361314f565b915061428e82614227565b604082019050919050565b600060208201905081810360008301526142b281614276565b9050919050565b60006142c4826130ec565b91506142cf836130ec565b92508282019050808211156142e7576142e6613e70565b5b92915050565b60006060820190506143026000830186613204565b61430f6020830185613204565b81810360408301526143218184613160565b9050949350505050565b7f41726561206e616d652063616e6e6f7420626520656d7074792e000000000000600082015250565b6000614361601a8361314f565b915061436c8261432b565b602082019050919050565b6000602082019050818103600083015261439081614354565b9050919050565b7f41726561206d7573742068617665207265676973746572656420766f7465727360008201527f2e00000000000000000000000000000000000000000000000000000000000000602082015250565b60006143f360218361314f565b91506143fe82614397565b604082019050919050565b60006020820190508181036000830152614422816143e6565b9050919050565b7f4172656120616c7265616479206578697374732e000000000000000000000000600082015250565b600061445f60148361314f565b915061446a82614429565b602082019050919050565b6000602082019050818103600083015261448e81614452565b9050919050565b7f566f74657220616c726561647920726567697374657265642e00000000000000600082015250565b60006144cb60198361314f565b91506144d682614495565b602082019050919050565b600060208201905081810360008301526144fa816144be565b9050919050565b60006060820190506145166000830186613204565b81810360208301526145288185613160565b9050818103604083015261453c8184613160565b9050949350505050565b600060608201905061455b6000830186613204565b6145686020830185613213565b818103604083015261457a8184613160565b905094935050505056fea2646970667358221220d32e6ac4149bd0569cc9b6c1bf0c670ad03e0fcaa6702fe503f3e30d909ff8ce64736f6c634300081c0033",
  "linkReferences": {},
  "deployedLinkReferences": {}
}